S01B00006275696C642F64656275672F5A335377697463682E73333765
S214000000001000207D0F000025590000295900002F
S214000010890703002D5900003559000089070300A1
S214000020890703008907030089070300890703007F
S214000030395900000CA8030089070300890703004C
S21400004089070300BD8C01008907030089070300A8
S214000050FD840100C56E0300C16E0300DD8C010047
S214000060B96E030079160000D9170000890703004F
S2140000709522010013560300890703008907030031
S2140000808907030089070300F517000089070300A6
S214000090890703008907030089070300890703000F
S2140000A089070300890703008907030089070300FF
S2140000B0118D0100BD6E0300716B00004D8D0100B7
S2140000C08907030075B0010089070300890703004C
S2140000D089070300890703008907030089070300CF
S2140000E089070300890703008907030089070300BF
S2140000F089070300890703008907030089070300AF
S2140001008907030089070300890703000000000031
S214000110013800D0FCE77047000000000000000037
S21400012001F0FF01102A2BDB10F0070F08D010F8A3
S214000130013B013A8B422DD010F0070F42B3F6D1A7
S214000140F0B441EA012141EA014122F007047FF0C0
S21400015000070023F0E80256083C85EA010586EA17
S214000160010685FA47F5A3FA87F586FA47F6A5FA53
S21400017087F68EB9EED1F0BC01F0FF0102F007025F
S21400018032B110F8013B013A83EA010313B1F8D10A
S2140001900020704701387047002D06BF35460338EB
S2140001A0073815F0010F07D1013015F4807F02BF24
S2140001B0013015F4C03F0130F0BC0138704700BF75
S2140001C02DE9F04F93B0CDE90A329DED1C7BDDE9B9
S2140001D01E530E9353EC172BCDE908011046194613
S2140001E08DED067B209E12F013FF80B1DDE906013F
S2140001F0C94B4FF0FF3212F033FF40B9DDE906017C
S2140002004FF0FF326FF4801312F00CFF80B10E9B9C
S2140002102096CDE91E539DED067BDDE90A32DDE929
S21400022008018DED1C7B13B0BDE8F04F00F08CB9D3
S214000230DDE906010022002312F0F4FE002800F09B
S2140002403681DDE906A303F1004BCBF30A5016F422
S2140002508063A0F2FF3008BF06250F9312F006FC5D
S2140002609DA3D3E9002312F06BFC9DA3D3E90023E2
S21400027012F0B0FACBF31304894644F07F5180465F
S214000280A64B0022504641F4401112F0A1FA96A364
S214000290D3E9002312F054FC02460B46404649467A
S2140002A012F098FA12F0E6FE044612F0DFFB90A376
S2140002B0D3E900238046894612F042FC984B002280
S2140002C012F088FA12F0D6FE8BA3D3E90023074675
S2140002D04946404612F034FC80463846894612F0BD
S2140002E0C5FB87A3D3E9002312F02AFC02460B467F
S2140002F04046494612F06CFA02460B46CDE90C23FE
S21400030012F01EFCDDE90C2380468946104619468D
S21400031012F060FA834BCDE91001002240464946B0
S21400032012F038FD804B002212F054FA02460B46BB
S2140003304046494612F02EFD7C4B002212F04AFA47
S21400034002460B464046494612F024FDDDE90C23E2
S2140003508046894600204FF0804112F039FA024666
S2140003600B464046494612F035FA02460B46DDE992
S214000370100112F00FFD07F2FF376D4B002212F04E
S21400038029FA00223B0512F0DBFB52465B4680460C
S214000390894612F065FE002840F08C80CDE90C8975
S2140003A004F16303C72B34BF0427052731051ED588
S2140003B055A3D3E900235046594612F047FE0028BD
S2140003C000F0828052A3D3E900235046594612F02B
S2140003D029FE002878D0A542C8BF2C1B4FF0000786
S2140003E0CCBF04F1FF35002546F480663C460E9BE4
S2140003F09F4234BFA3EB07084FF0000816F002092F
S21400040003D0002F18BF4FF000083CB150465946A5
S214000410DDE90C2312F0BEFC82468B46DDE90601C0
S2140004200022002312F0FEFD10B10BF100439B46A4
S21400043026F40063CDE90383CDE900ABDDE90A329B
S214000440DDE90801029500F07FF802465FB316F07A
S214000450200F00F10105DDE909130CBF65204520DA
S214000460089EB0470523059300220A23002CCDE9F9
S214000470023207F1FF374FEAD473B8BF64420193E4
S2140004802A46DDE908010A9B0497009434F08DFEA5
S2140004900246B9F1000F06D00B9BC41A0B9B1A1923
S2140004A00E9BA34246D8104613B0BDE8F08FDDE998
S2140004B006ABCAE61C4B00224046494612F06AFCD0
S2140004C0013CCDE90C016BE7002D90D00F9B002B73
S2140004D08DD0013D8BE700BFFB799F501344D33F7F
S2140004E0B3C8608B288AC63F61436F63A787D23F35
S2140004F071A379094F930A401655B5BBB16B0240FC
S214000500EF39FAFE422EE63F2D431CEBE2361A3F49
S2140005100000000080842E41FFFFEF7F0000F83FC0
S2140005200000E03F00002C4000002440000018407F
S2140005300000F03FDDE90913089D2020A84701349C
S214000540ACE700BF000000002DE9F04F97B0DDE9F2
S21400055020ABCDE90501CDE90723504652465B4660
S2140005605946DDE92257249E12F052FD70B9032346
S214000570CDE922762193B44B2093DDE90501DDE930
S214000580072317B0BDE8F04F34F02FBD4FF0FF3211
S2140005906FF480135046594612F044FD28B10423E8
S2140005A02193CDE92276A94BE6E7A94B4FF0FF321F
S2140005B05046594612F054FD68B1A64A06F00403A8
S2140005C0002B08BF0322A44B1CBF13460422CDE910
S2140005D022762192D0E798A3D3E9002350465946C5
S2140005E012F03EFD38B996A3D3E90023504659468B
S2140005F012F018FD68B1DDE90723DDE90501CDE954
S2140006002376CDE920AB229517B0BDE8F04FFFF773
S214000610D7BD002200235046594612F003FD00289D
S21400062000F09A805B4652460020002112F0D0F877
S214000630012382468B46099316F4806400F08E8070
S214000640092D40F28E800EABA5F109020024302160
S2140006500134202C03F8011BA5EB040901D09442B9
S214000660F6D15946504612F005FD7C4B03EBC90304
S21400067093ED007B05468DED0A7B12F0F7F90246F6
S2140006800B465046594612F0A3F8DDE90A2312F04D
S21400069057FA02460B46CDE90C2312F013FD8046AE
S2140006A012F0D4F902460B46DDE90C0112F090F880
S2140006B002460B46CDE90C23694B002212F0D0FC13
S2140006C0002851D008F10108404612F0BFF9024652
S2140006D00B46DDE90A0112F0AFFC10B101354FF010
S2140006E00008B9F1000F50D1284612F0BFF90246B3
S2140006F00B465046594612F06BF8594B002280467E
S214000700894612F08FFC30B1554B002240464946D0
S21400071012F0A6FC10B1E80700D501350EAB1A1989
S2140007200A21202C0AD095FBF1F001FB105530353C
S21400073002F8015B013405460028F2D106F00302F8
S214000740012A5FD1002F5DD0099A12B916F00C0F5E
S21400075000D0013F302244E009906DE74FF00609D3
S2140007607FE7A94600247CE7DDE90C013C4B00222C
S21400077012F058FC0028B4D1B8F1000F02D018F0DF
S214000780010FAED008F10108ABE70EAB23440A21F7
S214000790202C0DD0B8FBF1F001FB10823032B8F1FE
S2140007A0090F03F8012B09F1FF3904F1010411D8F0
S2140007B0A1440EAA3021202CB0D0A14504F101039B
S2140007C00AD11C4609F158030DEB03092E2309F83C
S2140007D0203CA3E78046DBE7A1541C46EBE71A550E
S2140007E00134A7420ED9202CF9D1CDE90034CDE949
S2140007F00276DDE90723DDE9050134F0F6FB17B0E4
S214000800BDE8F08F202CF0D0099A3AB104F15802D6
S2140008106A442D2102F8201C0134E6E7710704D54E
S21400082004F158026A442B21F4E73207DDD504F1BF
S21400083058026A442021EDE70000000065CDCD4156
S2140008400000000065CDCDC1D1060400D506040029
S214000850FFFFEF7FC8060400CD060400E006040094
S2140008600000E03F0000000070B58EB02C22002192
S21400087003A835F0B4FA64234FF00232CDE905231D
S21400088008930B238DF83430514B1B880121D80771
S2140008908DF8101000F1968008461AF0F9FD4D4BC1
S2140008A04D494E484E4C0A221A704FF42873ADF844
S2140008B0123019F0ADFE206020B94A4840F25B21A4
S2140008C004F02EFF2068052136F046FD20B145488D
S2140008D040F26B2104F024FF206811F0E7FC424B45
S2140008E02068196836F071F91BF0B4FC0C256843D3
S2140008F009901BF0AFFC684307900DEB05012068DC
S21400090015F0D4F920B137484FF4207104F008FFF1
S21400091036492068002236F0E3F920B1314840F22B
S214000920822104F0FDFE324E324D96F9000040F270
S21400093003532B807F284FF00503AB7001D11AF0CC
S21400094005FF3378EB701BF085FC00EB8000800021
S214000950A8801BF07FFC0023C000E880AB604FF04F
S214000960FF3019A3D3E900234FF0FF311AF04CFFF4
S2140009702149206836F0C5FD206802A936F08AF9BC
S21400098020B1184840F2BB2104F0CAFE04222068B9
S2140009900DEB020136F007F9042804D0114840F2A6
S2140009A0BE2104F0BDFE01A9012036F0DEFE04F0F3
S2140009B0FDFF01201BF0ECFE30F00DFC1BF012FFDB
S2140009C01AF0EAFD0EB070BD0A0020FF42030000D8
S2140009D08C4400204C580020B9B40100F4120020CA
S2140009E0583C00200A970400E81000205A580020BF
S2140009F0391600204C3C002059B601000348044B31
S214000A00834202D0034B03B1184770478C16002070
S214000A108C160020000000000548064B1B1AD90F54
S214000A2001EBA301491002D0034B03B118477047EE
S214000A308C1600208C1600200000000010B5064C16
S214000A40237843B9FFF7DAFF044B13B10448AFF33A
S214000A5000800123237010BD224500200000000006
S214000A60309A040008B5054B1BB105490548AFF39D
S214000A700080BDE80840FFF7CFBF00BF00000000C1
S214000A8080190020309A0400A3F5803A704700BF12
S214000A90174B002B08BF134B9D46FFF7F5FF0021B1
S214000AA08B460F461348144A121A35F098F90E4B27
S214000AB0002B00D098470D4B002B00D09847002005
S214000AC0002104000D000D48002802D00C48AFF3AA
S214000AD0008012F043FE2000290034F072FE12F06F
S214000AE089FC00BF000008000000000000000000B5
S214000AF0001000208C160020D858002000000000AF
S214000B000000000008B50548012100F065FF34F03C
S214000B1049FDBDE8084000F04FB900BF00350A00A7
S214000B200148012100F058BF00350A0007B508202B
S214000B302FF0A9FE064B02226846CDE900232FF0CF
S214000B406CFD082003B05DF804EB2FF0A7BE00BFD5
S214000B50006A18102DE9F0431F4E04468946904659
S214000B600FCE89B001AD0FC596E8070085E80700EF
S214000B7025681A486E6FAF6F012100F02DFF606880
S214000B80012100F029FF617B207B0023042201F075
S214000B90FFFF617A207A0422002301F0F9FF012387
S214000BA0284601A98DF81230CDF80C90ADF81480C7
S214000BB030F0ACF8237CA27B1B0643EA022307F046
S214000BC01F0706F001063B4346F00A060020AB6707
S214000BD06E6709B0BDE8F083C0A7030000350A00C1
S214000BE0024B4FF40052C3F8A820704700A0004004
S214000BF013B5044605F0E2FD217B00230122CDE972
S214000C0000324900034AB0FBF1F1034831F0DCFA48
S214000C1002B010BDE10B0000AC19002073B50F4BFD
S214000C200F4E4FF48045C3F89C500446407B06F0B8
S214000C3061FA042302220DF106013046ADF80630B3
S214000C402FF035FD30462FF043FDA07B06F052FA1C
S214000C50044B0020C3F89C5002B070BD00A00046B4
S214000C609810002000A0004470B5064601211248E6
S214000C70124C00F0B1FEB16811480022FFF76AFF7F
S214000C80002304220E21032001F082FF35460023B4
S214000C9004220D21032001F07BFF0FCD0FC42B682B
S214000CA02360084B012230461A70FFF7A1FF30463A
S214000CB0FFF7B4FF002070BD00350A009819002029
S214000CC098100020234500202DE9F74F0688DFF80E
S214000CD0A890984603795E43264B14464FF480420C
S214000CE0C3F89C200134A4B20546407B0F4606F0AC
S214000CF001FA230243F001031F48ADF80630022232
S214000D000DF1060101342FF0D2FC2402F610A4B235
S214000D104FF0000B08F1FF3AC34511D116482FF0EB
S214000D20D7FCA87B06F0E6F9144B13484FF4804234
S214000D30C3F89C202FF0D1FC002003B0BDE8F08F54
S214000D403946324648462FF0B2FCDA4514BF44F026
S214000D50FF034FF6FF7302220DF10601484604F525
S214000D608074ADF8063037442FF0A1FC0BF1010B70
S214000D70A4B2D1E700A000469810002000A00044CE
S214000D80034B04481B78002B08BF0020704700BFA9
S214000D90234500209819002030B5064D0FCD87B0AA
S214000DA001AC0FC42B68236001A8FFF75DFF07B0F6
S214000DB030BD00BFDCA703002DE9F0433B4D3C4FA0
S214000DC0DFF80091DFF800810FCD89B001AC0FC4C9
S214000DD095E8070084E80700364C3748012100F004
S214000DE0FBFD3846012100F0F7FD0125334B039348
S214000DF001A920468DF812502FF088FF2B460422BA
S214000E000621022001F0C4FE2A4600230721022004
S214000E1001F0BEFE2B4604220821022001F0B8FE97
S214000E20042211462B46002001F0B2FE244BA36795
S214000E300B23636710264FF4487006F05BF9C9F879
S214000E400C60142006F056F9C8F80C60232006F053
S214000E5051F9C9F80C60B92120462FF09CFF0023F9
S214000E601A46C8F80C600621022001F091FE002305
S214000E701A460721022001F08BFE2B46002208218D
S214000E80022001F085FE002210462B46042101F0C8
S214000E907FFE204602F04CF90021A16738466167C4
S214000EA000F09AFD09B0BDE8F08300BFF0A703008C
S214000EB0005204000004014000350A0000127A00C7
S214000EC00B0B000B00A0004400A000460F4BD3F80D
S214000ED02838A3F17E62A2F58432B2F5104F10B521
S214000EE011D219680A4A91420DD10A4C227812F0A2
S214000EF0FD0F01D0002010BDDB6998470028FAD10D
S214000F0001232370F6E74FF48170F4E70000E10F49
S214000F1007B0CD5E2445002070B5D0B1C9B10E4EE5
S214000F20431E013913F8014F325D02F00302012A15
S214000F3011F8012FB55C05F00305204608BF04F143
S214000F402000012D08BF2032801A01D1002CE9D1E3
S214000F5070BD0120FCE700BFAF770400054A0649D4
S214000F600346106803448B4294BF13604FF0FF3073
S214000F70704700BFAC1000200000042008B500F049
S214000F8083F8124B12498B4212D3124B124900209F
S214000F908B4218D3FFF77CFD186850F8224058683B
S214000FA040F82240013298688242F5D30C33EAE7D3
S214000FB00022F8E71C6844F8220001325C68A2426E
S214000FC0F8D30833E4E70022F8E700BF389A0400B5
S214000FD0449A0400449A0400449A04000048704767
S214000FE000F04902104AD2F8943003F00703023B9F
S214000FF0032B13D8DFE803F00C14020E0B4B1B6810
S214001000D2F80001C0F304200130B3FBF0F07047C3
S214001010074BF4E7074B1B685B08F1E7054BEEE769
S2140010204FF40043ECE700BF00400E40B81000202D
S214001030BC100020B010002008B5FFF7D3FF054B0A
S214001040D3F80831C3F308230133B0FBF3F0024BA7
S214001050186008BD00400E40B4100020014B186810
S214001060704700BFBC100020054B1860054BD3F836
S214001070943003F00703022B01D1FFF7DDBF704762
S214001080BC10002000400E40044B054A9A60D3F87E
S214001090882042F47002C3F88820704700ED00E014
S2140010A000000000014B1868704700BFB810002011
S2140010B037B5046801210546124800F08DFC002370
S2140010C061792079012201F063FD617920792FF0A2
S2140010D06CFBB0FA80F35B092370A379022B0ED168
S2140010E000F01EFB084960792A4600F043FB012306
S2140010F0617902462079CDE9003301F005FD002034
S21400110003B030BD00350A00C507030008B52948FE
S214001110012100F061FC012304220221052001F0D8
S21400112037FD002001F0E4FC234B0122C3F8102811
S2140011301146042000F02AFF204800F09FFD204BB7
S214001140D3F8F02042F00102C3F8F020D3F8FC20D8
S21400115042F08072C3F8FC20A3F55D43194A1A607A
S21400116000F5D520184B00F2FC40B0FBF3F0174B0F
S214001170013802221861C3F8F0204FF48072C3F8D9
S21400118004234FF06043124AC3F8B02F114AC3F845
S214001190802ED3F8002E42F48072C3F8002EFF2271
S2140011A083F82020D3F8002E22F48072C3F8002E95
S2140011B0002008BD00350A000080144206000E001C
S2140011C000ED00E0FF030040F8590D00000004E0C9
S2140011D055CEACC5090001004FF0604330B5D3F8DA
S2140011E0802ED20715D501240B4D8440D5F8FC205F
S2140011F042F08072C5F8FC20D3F8002E2243C3F8D4
S214001200002E53F82020002AF0D003F820100020EB
S21400121030BD1120FCE700BF00ED00E010B5012155
S2140012200446094800F0D8FB0848012100F0D4FB2A
S214001230A37820786178B3FA83F35B09042201F07F
S214001240A7FC002010BD00BF4041050000350A0085
S2140012502DE9F04F9A46554B85B01B78DDF83C904B
S2140012609DF844B0DDF8508006460F461546002B24
S21400127000F09680072A00F295800E9B002B00F067
S2140012809180B9F1000F00F08D80129BB3F5006FCE
S21400129000F38880012803D1109B002B00F0828089
S2140012A0434B03EB05131B7B002B7DD0414C1022D8
S2140012B00021684634F093FD04EB451410229FBBD2
S2140012C03946204634F08BFD43F210036380BBF1B1
S2140012D0000F03D1E37843F00303E370354A0E9B17
S2140012E0CDF800A002EB451CCCE90193129B581EDA
S2140012F09DF84C30690103F00303C0F30A009B0617
S21400130043EA001E53582C4818404EEA0003012EAC
S214001310535017D0B8F1000F2ED19CF8023068F366
S21400132004138CF8023027E00021204634F057FDE5
S2140013304FF444736380BBF1000FCFD1E37843F0E2
S2140013403003CAE71323CCF80C309CE80F000CF1EE
S214001350100E8EE80F00DCF81C20109BCCF8143022
S2140013606FF0030161F39F02012FCCF81C2003D11C
S214001370CCF81890CCF804300D4A290102EB05137E
S21400138042F80180159A5A60002728462246694688
S2140013909F605E7301F080FC384605B0BDE8F08FB4
S2140013A00648FAE70648F8E70648F6E72545002027
S2140013B0CC1A0020CC1900200F80FFF3028000F02A
S2140013C0018000F0078000F038B5124B1B78054608
S2140013D0DBB1E0B12FF023FB0F4A00231146147B4C
S2140013E054B92B601A0101EB031301258C501D73B1
S2140013F02FF01BFB204638BD0133082B02F11002EC
S214001400EDD12FF012FB0548F5E70548F3E7054850
S214001410F1E700BF25450020CC1A0020048000F02C
S214001420028000F0018000F038B52FF0F8FA0C4A80
S21400143005460023147B6CB90133082B02F1100219
S214001440F8D101F0DFFB074B28461C702FF0EDFAB1
S214001450204603E028462FF0E8FA034838BD00BFD0
S214001460CC1A002025450020058000F00D4B1B7887
S21400147010B5044693B1072812D82FF0D0FA0A4BBD
S21400148003EB04131A7B2AB100241C732FF0CDFA49
S214001490204610BD2FF0C9FA0448FAE70448F8E7DA
S2140014A00448F6E725450020CC1A0020068000F008
S2140014B0028000F0018000F013B5164B186801900A
S2140014C000238DF804302FF0AAFA134B1C7824B1B1
S2140014D02FF0ABFA114802B010BD01221A702FF09F
S2140014E0A4FA0F4B1C731C7783F82C4083F83C40FF
S2140014F083F84C4083F85C4083F86C4083F87C406B
S21400150004230DEB03008DF8073001F09BFB20460B
S214001510E1E700BF5CA8030025450020038000F03B
S214001520CC1A00200A4A127808B55AB107280BD8F8
S214001530084A02EB00131B7B43B1002101F078FB45
S214001540002008BD0448FCE70448FAE70448F8E72A
S21400155025450020CC1A0020028000F0018000F013
S214001560078000F00A4A127808B55AB107280BD847
S214001570084A02EB00131B7B43B1012101F058FB24
S214001580002008BD0448FCE70448FAE70448F8E7EA
S21400159025450020CC1A0020028000F0018000F0D3
S2140015A0078000F00A4A127808B552B107280AD810
S2140015B0084A02EB00131B7B3BB101F0BDFB002089
S2140015C008BD0548FCE70548FAE70548F8E700BF08
S2140015D025450020CC1A0020028000F0018000F093
S2140015E0078000F00D4B1B7893B1072812D889B1FD
S2140015F00B4B03EB00131B7B73B10A4B1A6E0123D4
S2140016008340134214BF012300230B700020704751
S214001610054870470548704705487047254500202F
S214001620CC1A002000200E40028000F0018000F05E
S214001630078000F00B4A127810B50C4662B10728F6
S2140016400CD859B1084A02EB00131B7B43B101F0DA
S21400165089FB2070002010BD0448FCE70448FAE728
S2140016600448F8E725450020CC1A0020028000F048
S214001670018000F0078000F02DE9F041DFF864807B
S214001680D8F86070D8F86C301F4000D5FEE7134CD1
S21400169001260025374218D02368C8F86860A3B131
S2140016A0A16862680131A16028469847637B012BD8
S2140016B00BD150B90A4B03EB45131A7B60F341027A
S2140016C01A731A7F60F341021A770135082D4FEA24
S2140016D0460604F11004DDD1BDE8F081CC1A0020E6
S2140016E0CC19002000200E4070B50C4E0446012593
S2140016F004B970BD94FAA4F0B0FA80F006EB0012BC
S21400170005FA00F324EA03045368002BF0D0117B9B
S21400171011B191689847EBE79847E9E74C1B002022
S21400172008B5122000F086FD28B1084B4FF4802241
S214001730C3F880211A600A2000F07CFD28B1034B14
S2140017404FF48062C3F880211A6008BD00E100E013
S21400175038B505460C462FF062F9054B03EB05132A
S21400176000225C601A73BDE838402FF05EB900BFF7
S2140017704C1B0020F8B505460E4617462FF04FF9CD
S214001780134BD3F8282422FA05F3DB0705F0FC01F7
S2140017902C4612D500230133DBB2042B04D1FF24E0
S2140017A02FF043F92046F8BDEC1804F003040C446F
S2140017B022FA04FC1CF0010FEDD1FF2CF0D0054BF3
S2140017C003EB04130122C3E901671A73E8E700BFBD
S2140017D000A000404C1B0020054BD3F82804D3F88B
S2140017E01C24104000F05530C3F82404FFF77CBFDB
S2140017F000A00040054BD3F82804D3F81C24104062
S21400180000F0AA30C3F82404FFF76EBF00A0004023
S214001810024B1968024B186813F0E4BDC010002094
S214001820E010002070B59400224605460E462FF0C4
S21400183026FA431C0AD058B922463146284634F0C8
S214001840A4FA0028034808BF002070BD0248FCE741
S2140018500248FAE710E000F021E000F024E000F093
S21400186010B5044601F02EFB431C10D088B901F0D9
S2140018700FFC20F0030023462044984201D10020AC
S21400188010BD53F8042B0132F7D00348F8E703489D
S214001890F6E70348F4E700BF0EE000F021E000F0B2
S2140018A024E000F008B52FF0AFF8014B186008BD33
S2140018B03C240020014B18682FF0AAB83C240020D6
S2140018C00C4B984205D90C4B984210D801220123A4
S2140018D001E00022134609490B640949D1F800319A
S2140018E023F0807343EA0263C1F800317047022296
S2140018F0EDE700BF0048E8010090D0030000C843B1
S21400190000400E400F4B5B680F4B30B500221C4664
S214001910C9B21D798D4202D11D6885420DD20132B1
S214001920052A03F10803F4D10321064A536823F07D
S214001930407343EA0163536030BD04EBC20461792F
S214001940F3E700BF00000E40A0A8030038B5074C20
S21400195041F67133256C2364FFF740FBADB20021DE
S214001960FFF7D0FF0DB10023236438BD00000E4002
S214001970044BDB6B5B0604D4034AD2F8C830002B5A
S214001980FBD1704700300E400000C64308B5FFF795
S214001990EFFF024B5868C0F3014008BD00300E4010
S2140019A0044BD3F84421D20703D4D3F84021104285
S2140019B0FBD1704700400E4038B5064C256C41F60A
S2140019C071332364ADB2FFF79DFF0DB1002323648E
S2140019D038BD00BF00000E4038B5C0F30323013BFE
S2140019E0092B11D8DFE803F0052710102B221D1055
S2140019F01511154DC0F3043405F1424505F5801563
S214001A0004EBC5008000016038BD104DC0F30434FF
S214001A10F2E70F4DC0F304344FF48030FFF7C0FFF9
S214001A20EAE7C0F304340B4D1020F7E7C0F30434A4
S214001A30094D0120F2E7094DC0F30434DCE7084DF8
S214001A40C0F30434D8E700BF00400E4050410E40BB
S214001A50F0400E40E8400E40E0400E40C0400E40D1
S214001A60B0400E40C0F30313013B092B2AD8DFE831
S214001A7003F0050B0F1929291F23374B274BD3F8E3
S214001A800001C0F304207047244BD3F81401F8E794
S214001A90224BD3F80031C3F3006301330120984092
S214001AA0013870471D4BD3F80C01C0F3082070476F
S214001AB01A4BD3F80801F8E7194B984204D0194B93
S214001AC0984207D000207047144BD3F8203103F01B
S214001AD00F03E3E7114BD3F82031C3F30113DDE71F
S214001AE0114B98420CD003F5B01303F5805398427F
S214001AF0E8D10A4BD3F82831C3F301230433CDE7EA
S214001B00064BD3F82831E8E7084B9842DAD1034B66
S214001B10D3F8300100F00300704700BF00400E40CD
S214001B208006160080162E0090171A00A0091400D2
S214001B3000F00F000138072850D8DFE800F0041541
S214001B40244F34384F402B4BD3F8943003F0070320
S214001B50023B052B06D8DFE803F049243F03054384
S214001B600B20704705207047224BD3F8800000F00A
S214001B70070002283DD0042836D0012808BF0320DD
S214001B8018BF012070471B4BD3F8843003F00703BF
S214001B90013B032B03D8DFE803F0041F25270120B1
S214001BA0704703207047134BD3F88800DFE7114BCC
S214001BB01B6F13F0010F0CBF0720092070470D4B59
S214001BC0D3F85C3103F03003202B0FD0302B0FD02E
S214001BD0102B08BF0720D3E702207047002070476D
S214001BE00C207047062070470A2070470420704774
S214001BF00820704700400E4008B50146FFF798FFE2
S214001C001A4B994211D01A4B994212D0194B99424D
S214001C1004D1194BD3F8800000F0070001380328E0
S214001C2021D8DFE800F00A0E1612134BD3F8840012
S214001C30F2E7114BD3F88800EEE7BDE808402EF037
S214001C40A4BDBDE80840FFF72DBABDE808402EF059
S214001C509FBDFFF7C7F9084BD3F80031C3F3006305
S214001C600133D84008BD0020FCE700BF0300200079
S214001C700500240002001E0000400E4000F4781309
S214001C80B3F5B01F10B5044674D025D8B3F5402F71
S214001C905ED010D8B3F5802F49D005D83BB1B3F548
S214001CA0003F4FD0002010BDB3F5202FFAD1BDE87D
S214001CB01040FFF797B9B3F5801F00F08480B3F5A6
S214001CC0A01F4DD0B3F5602FECD14A48FFF730FF88
S214001CD0072878D00928E9E7B3F5381F53D013D87A
S214001CE0B3F5001F58D00AD8B3F5D01F56D0B3F5B9
S214001CF0F01FD7D14048BDE81040FFF77DBFB3F5D1
S214001D00101FCFD13D48F6E7B3F5481F4DD0B3F5C9
S214001D10781F65D0B3F5401FC4D13948FFF76CFF74
S214001D20384BD3F82831C3F30123043320E0FFF700
S214001D3059F9344BD3F80C31C3F308230133B0FB05
S214001D40F3F0B0E7FFF74EF92E4BD3F80831F3E780
S214001D50FFF748F92B4BD3F81431C3F30423EDE710
S214001D602648FFF749FF274BD3F8303103F003032B
S214001D70D84098E72048FFF73FFF224BD3F82031A2
S214001D8003F00F03F4E71C48FFF736FF1D4BD3F8AC
S214001D902031C3F30113EBE71948ACE71848FFF707
S214001DA02BFF184BD3F82831F3E71748FFF7C0FE90
S214001DB0072808D0082809D004287FF473AFBDE8A8
S214001DC01040FFF74BB9114B18686CE7FFF70AF99C
S214001DD00C4BD3F80031C3F3042303FB000062E787
S214001DE0FFF700F9014620462EF009FEB1FBF0F0A1
S214001DF059E700BF06000E0002001E000500240082
S214001E000300200000400E40B8003200E41000201E
S214001E1010B5FFF79BFD094B07225A67FFF7E2F85C
S214001E20FFF74EFDFFF708F90446FFF7AFFD014642
S214001E302046BDE81040FFF7BFBD00BF00400E4083
S214001E40014B1880704700BF92150020014B188088
S214001E50704700BF9015002010B5042813D8DFE89F
S214001E6000F047032F132100294AC1F30801D2F8D6
S214001E706838002BFBD1274A136A23F4FF7323F03C
S214001E8001030B43136210BD214A01F07F01D2F813
S214001E906038002BFBD11F4A136923F07F030B43E6
S214001EA01361F0E71A4A01F07F01D2F86438002B7C
S214001EB0FBD1184A936923F07F030B439361E2E753
S214001EC0144AD2F89030536A23F0300343F01003DC
S214001ED05362146B104BC1F3C31003300F2803EA90
S214001EE0040328BF0F200B4343EA00731363CAE7BB
S214001EF04F29074A28BF4F21D2F87438002BFBD150
S214001F00044A936B23F07F030B439363BBE700BF46
S214001F100020C84300400E4000F8FF0F104A536AE6
S214001F2013F0300F18D0202913D0302914D00029F0
S214001F300C4B08BF4FF44003D2F8901033EA01016F
S214001F40FAD15B0246BFD2F8A000C0F38020012081
S214001F5070474FF40003EFE74FF44003ECE700BF91
S214001F6000400E40FF33E10702280AD129B1064B94
S214001F704FF48060C3F8A800596612B10220FFF73C
S214001F80CDBF0120704700BF00400E400428F8B5C2
S214001F9048D8304B13F800C02F4B1D5C2F4B33F83E
S214001FA010702F4B33F810402E4B002940D00228DB
S214001FB039D15C6A14F0300F35D12B4CE46B5C6A77
S214001FC0E40705D55E6A26F0300646F010065E6227
S214001FD0264C244B25441F66AD002B68002BFCD0F6
S214001FE002B36444A4002368002BFCD0022819D155
S214001FF0C1B11C4D696A11F0010116D001222021E1
S214002000FFF7B2FFD5F89C60012200210220FFF7FF
S214002010BDFFC6F30A010220FFF71EFF2F662368E6
S214002020002BFCD0F8BD0021D2E7FFF777FFE9E7E9
S21400203001211C66A940D3F890000842FBD1002A73
S214002040F0D00123074903FA0CF3D1F890201A4286
S214002050FBD1E7E79BA8030096A803008CA8030023
S21400206082A8030000400E4000300E408004F210AC
S21400207010B50246B8B901221146FFF787FFFFF7F1
S21400208065FC0F4B04225A67FEF7ACFFFFF718FCFF
S214002090FEF7D2FF0446FFF779FC01462046BDE86E
S2140020A01040FFF789BC012807D10146FFF76EFFF5
S2140020B0FFF74CFC024B0322E5E7FFF747FCE3E79C
S2140020C000400E4038B5FEF7C9FF0021044600F078
S2140020D0B7FA1248FFF7F4FB012211460220FFF779
S2140020E055FFFFF733FC0CB1FFF742FC0C4B022206
S2140020F05A67FEF777FFFFF7E3FBFEF79DFF0546FF
S214002100FFF744FC01462846FFF756FC2CB920464C
S2140021100121BDE8384000F093BA38BD0148E80117
S21400212000400E40012210B511460320FFF72EFF97
S214002130FFF70CFC084B05225A67FEF753FFFFF724
S214002140BFFBFEF779FF0446FFF720FC014620465A
S214002150BDE81040FFF730BC00400E4010B5044606
S2140021601120FFF7E5FC002101220220FFF70EFFF9
S214002170184A217C536A23F00103022908BF43F062
S21400218001035362144B2178C3F8A014637AA18824
S21400219043EAC123D362136BA07A217A03F07F63EC
S2140021A00343E08843EAC02343EAC11303310F29FF
S2140021B028BF0F2143EA01731363A37B617B1B01D6
S2140021C043EA0133E17B0B43217B43EA014353633C
S2140021D010BD00BF00400E400000C84338B50E4D8D
S2140021E00E4C01461120FFF7A3FCAA6B4B78144057
S2140021F00A78144344EAC3248B7844EA0364CB7811
S21400220044EA0324AB6BA34205D000210122084612
S214002210FFF7BCFEAC6338BD00400E4080E4FFF81C
S214002220034B5868C0F30800003818BF01207047F9
S21400223000ED00E04209054B53F8223000F01F0085
S21400224023FA00F0C04300F00100704700E100E010
S214002250034BD86B80F04000C0F38010704700BF7F
S21400226000300E4042EA0322B2F5007F10B5194C4A
S21400227029D00AD8B2F5807F22D040F201139A42C4
S21400228015D062B9D4F81C320BE0B2F5407F1DD0F1
S21400229040F201339A4210D0D4F8283201E0D4F844
S2140022A02432C3F30722DBB203600A6010BDD4F801
S2140022B024321A0EC3F30743F6E7D4F82832F8E7B9
S2140022C0D4F81C32F5E7D4F82032EAE7D4F8203206
S2140022D0EFE700BF0081E00F08B5FFF7B9FF20B1B8
S2140022E0024AD2F8C830002BFBD108BD0000C64316
S2140022F008B5FFF7ADFF80B1FFF7EEFF074B196893
S2140023005A68C1F30121C2F3014291421A688CBF98
S21400231042F0100222F010021A6008BD00300E4093
S214002320064B1B68DB0608D5054B1B69C3F3044345
S214002330082B02BF034B044A1A60704700300E4059
S21400234000400E40B0100020C0EA210170B5FFF733
S2140023507FFF38B12D4B1A781023C2F1020293404A
S2140023602B4A13612B492C4DD1F8804145F60E03BC
S214002370C1F880312B6823F0AA03DB05DB0D0B6662
S214002380FFF7AAFF224B1B68D80604F0010415D5F8
S214002390D1F84031DA01FBD4204B1B680B61204B8F
S2140023A01B78052B0AD11F4B1E68FFF795FF184BAD
S2140023B059683046C1F30141FFF7FEFA184B1B7807
S2140023C0023B0A2B0AD8DFE803F0061517090909AD
S2140023D00909091A1D000020FFF74AFE2B68DB07D3
S2140023E05EBF0C4B02221A661CB10A4B0022C3F8D1
S2140023F0802170BD0120EFE7FFF764FEEEE7FFF7F0
S21400240091FEEBE7FFF704FDE8E700BF2645002056
S21400241000300E4000400E4044240020402400209F
S21400242027450020B010002010B50B4C0B4BD4F8FD
S21400243090201A601120FFF77BFB094B1870FFF7FE
S2140024404BFF084B084A5B68C3F301431370074B06
S21400245022691A6010BD00BF00400E4044240020D0
S2140024602745002000300E4026450020402400204E
S214002470064942780B6823F4407343EA0223022A93
S2140024800B6004BF024B5B6A704700BF00300E4013
S21400249000400E4010B5044608B1FFF7C5FFFFF731
S2140024A027FF144A136943F0040313612EF0D1FB8F
S2140024B02EF0D0FB104B114AC3F8242403F5592301
S2140024C01B68DB060ED52EF09FFA38F065F92EF065
S2140024D09FFA2EF0C0FB03F031FF2CB1BDE8104090
S2140024E0FFF734BF30BFF4E7FFF71AFFBDE8104030
S2140024F0FEF7A2BD00ED00E000A000400000FFFFD8
S21400250010B5044608B1FFF78FFFFFF7F1FE1A4B30
S214002510D3F8802145F60E01D207C3F8801148BFD4
S21400252000224FF42071196648BFC3F88021134A71
S214002530136943F004031361114B124AC3F82424B1
S2140025402EF087FB104B1B68DB060CD52EF05CFAD2
S21400255038F022F92EF05CFA03F0F0FE2CB1BDE85C
S2140025601040FFF7F3BE30BFF6E7FFF7D9FEBDE831
S2140025701040FEF761BD00BF00400E4000ED00E0D9
S21400258000A000400000FFFF00300E400E4A037916
S214002590916921F03F010B43017843EA81034178BA
S2140025A043EA4103817843EAC103C178012908BFA1
S2140025B043F0010393611368417923F4403343EAFF
S2140025C001431360704700BF00300E402DE9F04114
S2140025D004460D46FFF73CFE60B3DFF86080FFF769
S2140025E07BFED8F80430C3F301439C4222D0124B42
S2140025F0D3F80031FEF7F6FC022C07464FF0100623
S21400260009D12146FFF7D8F9C8F8106095B1BDE8A2
S214002610F041FFF761BEC4F102039E40C8F81060A7
S2140026200DB1FFF759FE2CB921463846BDE8F041FA
S214002630FFF7C2B9BDE8F08100400E4000300E4002
S21400264038B505460C46FFF703FEB8B145B90C4B46
S214002650D3F80051FEF7C6FCC5F3042505FB0005BC
S214002660084B1B7821463BB1074B9D4204D80220FD
S214002670BDE83840FFF7AABF0020F9E738BD00BF25
S21400268000400E4028450020002D3101034B027803
S2140026901A7001210020FFF7D3BF00BF2845002095
S2140026A0234B4AF6E85210B5596B5A639A6FD20715
S2140026B0FCD41B6C13F0030306D01E4A0124984278
S2140026C0C2F8B44A1AD110BDA0B1431E012B17D8C8
S2140026D0174A4FF40023D362936FDB07FCD4136CC6
S2140026E023F0030343F001031364114A536A1C03E7
S2140026F0FCD505E00F4BC3F8B40AE4E7032BE4D09F
S2140027000B4B9A6FD207FCD41A6C22F003020243DA
S2140027101A649A6F12F00102FBD10038054C18BFFC
S21400272001200129C4F8B40A08BF5A63CBE700BFEA
S21400273000300E400000C6432DE9F04F00238BB05A
S214002740CDE90433CDE90633CDE90833A0F5E163DE
S214002750B3F5966F05460191934603D900200BB05A
S214002760BDE8F08F624BDFF88C81D3F81842B0F5E5
S214002770E16F15BF4FEA146AC4F3072AC4F307448F
S214002780E4B20694CDF824A0D8F84C60C6F30176DF
S2140027908CBF01220022334607A904A815BF4FF4B8
S2140027A0E1674FF496674FF496694FF416790392F3
S2140027B0FFF758FDD8F8EC30039AC3F3012308A9B5
S2140027C005A80293FFF74EFDA5EB070CAAEB040243
S2140027D00CFB02F2B2FBF9F214445445079F04982E
S2140027E0089A0599BAD8A2EB010E0CFB0EFEBEFBAA
S2140027F0F9FE11EB0E012CBF4FF0010E4FF0000E4C
S2140028008A42ABD3BEF1000FA8D13A1A0CFB02F2F3
S214002810B2FBF9F280182CBF0122002287429DD31A
S214002820002A9BD1029BBBF1000F0FD0D8F85C208A
S214002830B5F5E16722F4FE4218BF012722F0020236
S21400284042EA470242EA0422C8F85C20019A0AB922
S214002850012084E7264A022ED2F830223ED0032EEC
S2140028603FD0012E14BFD2B2C2F30722120312F4D5
S214002870702F7FF473AF1F4EF46E24F4704422431F
S214002880F2661B4A022BD2F830222CD0032B2DD016
S214002890012B14BFD2B2C2F30722120312F4702F18
S2140028A07FF45CAF134CD4F8EC3023F4704313433E
S2140028B0C4F8EC30636E884238BF084623F4FF73D2
S2140028C0E72823F0010328BFE720B5F5E16F18BF1E
S2140028D043F0010343EA40036366B9E7C2F30742E5
S2140028E0C4E7120EC2E7C2F30742D6E7120ED4E7D9
S2140028F00081E00F00300E402F4B1A6FD96C11F09C
S214002900010F02F0060242D0002A40D013284FD909
S214002910143813288CBF102308232749013BCA6CA0
S214002920180322F47F4240EA03231343CB64234B6D
S214002930CA6C1B88C2F303222833013202EB8200E2
S21400294003EB5303B3FBF0F3C86C013B072B28BF24
S214002950072320F0EE6040EA036343F48013CB6461
S214002960174BB3F90030002B10DB2833500800EB70
S214002970420203EB5303B3FBF2F30A6D072B28BFA7
S214002980072322F0700242EA03130B657047D96CE6
S21400299001F00101114304D1092809D90A38092890
S2140029A0B8E7DB6C13F00103B7D01AB92728B1E7F4
S2140029B00423B2E70023B0E700300E40743E002048
S2140029C0703E0020064A074BD3F88039136F23F079
S2140029D0070303431367044B1888FFF78DBF00BF38
S2140029E000300E400000C643723E0020394B0222E3
S2140029F02DE9F0419A639B6B03F00F039342044664
S214002A0003D000252846BDE8F081C288B0F80880CB
S214002A108588B0F90C6047784A2A4ED9B2F5FA7F15
S214002A204DD340F6C3139A428CBF4FF040524FF03E
S214002A3000522849CB6C23F0405323F00103002EAC
S214002A40A8BF43F001031343CB64D1F8EC3043F442
S214002A504073C1F8EC30204B1D80CB6E43F0807382
S214002A60CB661E4BD3F8800900B10420FFF7AAFFFF
S214002A701B4BA3F800801B4B28461E80FFF73CFF2D
S214002A80A37BFBB1012B21D0012260881146FFF702
S214002A9053FE05460028B4D00E4AD36B43F4806339
S214002AA0D3633846FFF7FCFDA37AA3F12002534216
S214002AB053410A4AC2F89437A4E70022B9E74FF018
S214002AC08052B6E7034B084A9A65DDE7014B074A92
S214002AD0FAE700BF00300E40723E00200000C643FA
S214002AE0743E0020703E002077402057372110B7F4
S214002AF0044AD2F8443423F003030343C2F84434B0
S214002B00704700BF00A00040072AF8B501F0030692
S214002B1014461F464FF00F011FD8950000FA05F225
S214002B20A94015482EF09CF80321144806FA05F231
S214002B30A9402EF095F812499DF81830114A214404
S214002B4089000F60C1F880300123A340C2F8243406
S214002B509DF81C30C1F80033F8BDA2F10805AD00A1
S214002B6000FA05F2A94008482EF07AF80321074833
S214002B7006FA05F2A940DCE700A4004008A40040DD
S214002B808020851000A0004004A400400CA4004053
S214002B9000EB4000F8B50D461F46040116463AB154
S214002BA0154801238B402044C7B100F1C060036084
S214002BB0072D4FF00F0114D8AB00104806FA03F2A9
S214002BC0994020442EF04CF83EB90B4A0123AB4006
S214002BD0224477B102F1C0621360F8BD00F1806054
S214002BE0E5E7A5F108039B00054806FA03F29940BD
S214002BF0E7E702F18062EFE70CA0004004A0004087
S214002C0008A00040084B4FF40072C3F88020BFF3C2
S214002C104F8FBFF36F8F054B0021D9664FF4AA4044
S214002C201962FEF7D9BE00BF00E100E000200E40AA
S214002C30034B03449B0081F001011960704700BFFD
S214002C40A001F11010B5044601214FF4AA40FEF78A
S214002C50C3FEB4F8013022785BBA9BB243EA026343
S214002C600B4A136000231362D36253634FF0004392
S214002C70D3664FF0FF339366064A4FF40071C2F8EE
S214002C808011E3785B01DBB282F80933116010BD76
S214002C9000200E4000E100E0F8B5254D8F7AD1F80F
S214002CA000C0C3B201269E404FF0300ECB7A0EFB1A
S214002CB000500C461B05097BAE6643EA0743C0F886
S214002CC080C094F80DC0C0F888C043EA415322F093
S214002CD00302C0F88430C0F898202DF0A0FEEB6EFA
S214002CE03343EB66237A13B16B6B33436B63637AC0
S214002CF013B1EB6A3343EB6223792A6823B1DB43D3
S214002D001B0263F47F431A4063790BB142EA032245
S214002D10A3790BB122EA0302E3791343044A136052
S214002D20044B9E62D663BDE8F8402DF07EBE00BF21
S214002D3000200E4000200E4410B5C0B2012484408E
S214002D402DF06DFE054AD36E23EA0403D366044BCA
S214002D501C62BDE810402DF068BE00BF00200E408B
S214002D6000200E4410B5C0B2012484402DF057FE5A
S214002D70074B1A6A224208D19B6A9C430CBF012467
S214002D8000242DF052FE204610BD0024F9E700BFB7
S214002D9000200E40054B5A685B68054B41F67132C1
S214002DA01A649A6822F001029A60704700300E405A
S214002DB000000E40034B9A6822F001029A6000223F
S214002DC01A64704700000E40094A0A4BD969C907C1
S214002DD005D512B96FF002007047013AF6E7002AEF
S214002DE0F8D001221861DA60D86940F38000704795
S214002DF08096980000000E4070B509B9002070BD9E
S214002E000E4A0023082550F8234094610C4CD560E8
S214002E100133D669F60705D514B96FF00200EEE760
S214002E20013CF6E7002CF8D0D469A40702D49942F6
S214002E30E9D1E3E76FF00100E1E700BF00000E40D4
S214002E40809698002DE9F8431C4B0D4641F67131EB
S214002E501E6C19641A49804648684968996841F0AA
S214002E600101B6B2996097084FF00009B94501D341
S214002E70002005E008EB89042046FFF7A5FF48B1CF
S214002E800E4B9A6822F001029A600EB100221A6474
S214002E90BDE8F883C4F30A01C1F500618908A7EB11
S214002EA00903994228BF19462846FFF7A5FF0028C0
S214002EB0E6D1894405EB8105D8E700BF00000E4047
S214002EC000300E40234B41F671311A6C10B5196470
S214002ED021494C684968996841F0010199600121CF
S214002EE01861D960D9694C0792B209D5996821F062
S214002EF0010199600AB100221A644FF0FF3010BD3C
S214002F000221D9601549D869C00700D569B9D869C2
S214002F1010F002000BD0996821F0010199600AB107
S214002F2000221A646FF00100E9E70139EBE741B9C6
S214002F30986820F00100986002B119646FF00200F2
S214002F40DDE7996821F0010199600AB90020D6E70B
S214002F501864FBE700000E4000300E408096980094
S214002F60014B01229A60704700500E40134B1449E3
S214002F70F0B500225D68134E1046D6F8E8714C682E
S214002F800B687F070BD4B3F5006F06D012D8B3F5E5
S214002F90007F02D0B3F5806F01D144F480742B42D9
S214002FA002D02C4208BF18430132092A01F1080159
S214002FB0E3D1F0BDB3F5803FEEE700BF00500E4012
S214002FC0C8A803000040E00F8B784A789B0143EACC
S214002FD082030A781343CA7843EA02130A7943EA5B
S214002FE0C2234A7943EA02338A79043043EA4243E9
S214002FF00001014A1350704700200440014B18603E
S214003000704700BF00008442437882789B0043EA02
S214003010021302781343C27843EA4213027943EA62
S2140030200223427943EA0233827943EAC233C27901
S21400303043EA0243027A43EA4243014A1360704776
S214003040002004400D4AD2F8E430D2F8E0109B008D
S21400305003F03C03C1F381110B438370D2F8E030D8
S21400306003F03F034370D2F8E830D2F8EC2003F0C8
S214003070F003C2F3031213430370704700FF0FE020
S214003080024BD3F8FC00000E704700BF0081E00F33
S214003090044BD3F8E4301B0E0A3303F01F03012061
S2140030A0984070470081E00F70B5054616461C46EE
S2140030B019B91448FEF7E2FD0146402C1BD003D890
S2140030C0DCB1202C1BD070BD602CFCD1042303FB8C
S2140030D006F2530803EB4113B3FBF2F30A4A203B14
S2140030E002EAC3032A6822F060022A602A681443B0
S2140030F02C606B61E7E70623E9E71023E7E7082380
S214003100E5E700BF40410500F8FF7F0038B50546FB
S214003110144619B90548FEF7B1FD014601396400A9
S214003120B1FBF4F10902696138BD00BF40410500FA
S21400313040F6AA63C36041F20502002303604260C2
S214003140104A83604361C36482640F4A03669042F8
S21400315043678367C3670DD002F5806290420BD049
S21400316002F58062904205D002F58062904203D05C
S214003170836570470365FBE7036583650023C365C6
S214003180704700BFF9FF0100000001404111054AE9
S21400319000F01F000123834052F82100034342F849
S2140031A02130704748240020044B1B681BB1044B99
S2140031B00360002070470120704700BF582400209D
S2140031C0763E002070B50D4C246884B10C4C2688E1
S2140031D08518B5420DDC6688CD18B54209DC52B1BB
S2140031E04BB1A080E18022816381002070BD012068
S2140031F0FCE70420FAE70520F8E700BF5824002083
S214003200763E00202DE9F74F9946494B1B68002B68
S21400321000F08A80DFF820A10D9EBAF80650BAF8B2
S2140032200A30B9F100072B4418BF01279BB27F4232
S2140032300D440093FFB2ADB24FF0010B1EB93046FD
S21400324003B0BDE8F08F009AABB29A426ED9BAF8D6
S2140032500840BAF80430241AB4421844354B28BF44
S2140032603446361B80B203EB0512B9F1000F0AD0C4
S214003270072C26D80444A04216D32846FFF786FF1C
S21400328001350020DAE7072C1BD80444A042F4D20C
S214003290C10800F0070C535C0BFA0CFC23EA0C0385
S2140032A00130535480B2F1E7C10800F0070312F86A
S2140032B001C00BFA03F343EA0C030130535480B207
S2140032C0D9E74FEAD00C02EBD00810F007000BD17C
S2140032D0E20839464046019232F081FD14F00704B8
S2140032E0019ACAD0904412E00BFA00F312F80CE0F0
S2140032F0DBB2591E5B420EEA01013B400838194317
S214003300044402F80C10E20808F10108E1D10BFAB7
S21400331004F498F80030E4B26242013C13403C40AA
S214003320234388F80030A8E7012688E7042686E7C6
S2140033305824002029450020763E002037B5114D40
S2140033402B68EBB9FDF728FD044610B1012003B049
S21400335030BDFDF715FD28600028F7D002884188AB
S214003360094B1A801A814A43598059819C80DC8017
S2140033702146CDE90042234622462046FFF742FF7B
S2140033800020E4E758240020763E00202DE9F8438C
S2140033901B4FDFF874803C68DFF868900023012537
S2140033A01A46D8F800004188D6188E4207D3FBB9D3
S2140033B013481022002132F012FD002012E0E1072F
S2140033C008D50133D118C9060ABF57F82540640846
S2140033D00135E6E753B109EB0211FDF775FC03462C
S2140033E010B10720BDE8F883721CEBE70132E9E76D
S2140033F0044901EB0211FDF767FC0028D8D0F0E77E
S21400340048240020294500205824002030B50546D1
S21400341087B000B300226FF07F43C0E9012301A804
S214003420FFF7C2FE044698B9019B2B601A885B889A
S214003430CDE90200013A013B02A928460492059311
S2140034402DF0EDFC044618B9044928462DF07FFE01
S214003450204607B030BD0524FAE700BF40AC0300A5
S21400346038B5044633F0C2FB0FCC044D0FC594E8C4
S2140034700F0085E80F00002038BD00BF5C24002048
S21400348047F6FF739A42F0B572D0062972D83A4BC7
S2140034905B5C022B6ED8394D05EBC304DF00A178C8
S2140034A015F83330012938BF0121012B13D1E078FC
S2140034B00025401AA84202D80844C0B2F0BD431BFB
S2140034C0A0EB5303666836F913609642CCBF03F14F
S2140034D0FF301D46EEE760680028EFD0B0F90040E8
S2140034E0944204DBB0F902409442B8BF1446838885
S2140034F0FF2B04BFB0F90620B0F908C03D440FBF4B
S21400350001260026C8224FF0280C131B93FBFCF361
S21400351033446E781BB29E4201DD002B01DA731E27
S2140035201BB201339BB24FF47A7C071D5D1E2DB291
S2140035304FEAC50E00EBC5059E42EA88AD6814FB4F
S214003540025222EAE27202F15C02B2FBFCF205DDF4
S21400355037F83350954203F10103E7D200EB0E0330
S2140035609888904228BF1046884238BF0846A4E78D
S214003570FF20A3E70020A1E770AF03005C24002033
S2140035800629F0B561D8324B595C02295DD8314B1B
S21400359013F83100012816D103EBC1039C78D878C4
S2140035A05B68012C214638BF0121904294BFC1EBD5
S2140035B00001C1EB0201CAB2001B8242C8BF002252
S2140035C033F91200F0BD002A3DD003EBC103596861
S2140035D000293AD09878904202D3B1F90200F1E778
S2140035E0DC78B1F900009442ECD95C788B88A3F1C2
S2140035F0FF06013C734201F10405E4B2734101F198
S2140036000C07DEB2B44216D805EBC3034FF47A7546
S214003610B3F902405B686A43D21A04EBD47302EB38
S214003620630292FBF4F29042CCDBB1F902009042C6
S214003630C8DC10B2C6E737F833C0944503F101067C
S214003640E2D33346DDE70448BCE70448BAE700BFE8
S21400365070AF03005C2400200CFEFFFF0080FFFF1D
S21400366008B50448FFF7FCFEBDE80840012033F02B
S214003670E2BA00BF78AF03007FB5094B09490222C2
S214003680CDE901234FF08373CDE903134FF0FF30EC
S2140036900D2301A9059333F00AFB07B05DF804FB80
S2140036A0006A180006010C00024B03480122C3F80A
S2140036B0002670470010C84300000F40094B984290
S2140036C00ED003F58063984209D10122064B03EB26
S2140036D0C2035A68054B13449B0000221A607047C9
S2140036E00022F3E700000F40E8B003008005F21068
S2140036F010B504462369DB07FCD404F180002DF0E6
S214003700DBF9014B236510BD510545012DE9F0435A
S214003710064689B0174698460C4600294DD1FFF755
S214003720C3FF0146044630462DF062FD4FF0010906
S21400373096F86C5006F15C01C5F10F06C5F10E0354
S214003740F6B22A460DF1010001358DF8003032F050
S21400375080FA324600210DEB050032F040FBC6F140
S214003760100001233246002168448DF80F3032F0F5
S21400377036FB2DF049F904F18006054669463046C9
S2140037802DF09AF90E4B23652369DB07FCD404A9B8
S21400379030462DF0AEF928462DF03AF9424604A9F7
S2140037A0384632F056FAB9F1000F02D02046FFF73D
S2140037B085FF002009B0BDE8F0834FF00009B7E7A9
S2140037C0055101002DE9F04F89B00546DDF8489017
S2140037D016461F460C4639BBFFF766FF01460446F1
S2140037E028462DF005FD4FF0010B6B6C33446B64DF
S2140037F02DF00AF98246D6B950462DF009F9BBF1EC
S214003800000F0ED02DF000F905F14C01064604F12C
S21400381084002DF06EF930462DF0FAF82046FFF7BA
S2140038204DFF09B0BDE8F08F4FF0000BDDE72B79B8
S214003830102EB04628BF4FF01008012B0DD11022D5
S2140038400021684632F0CBFA39464246684632F0E6
S21400385000FA69462046FFF74BFF394604F18C0014
S2140038602DF02AF9124B2365012363652369DB07D4
S214003870FCD404A904F180002DF03BF904A94246CB
S214003880484632F0E6F9297961B91022684632F0E6
S214003890A6FA49464246684632F0DBF969462046B3
S2140038A0FFF726FFC1444744A6EB0806A3E700BF80
S2140038B04805590370B5048804F4E043B3F5005F87
S2140038C005461ED1C4F30223042B1AD181F0AA6345
S2140038D083F4807333F47E13204821F47E1618D0C8
S2140038E081F0AA6383F4007333F47E1311D086420A
S2140038F030D1B4F5105F0CBF6FF086006FF0850016
S21400390070BDB4F5105F25D1144B21F47E11994299
S214003910F1E786424FEA1143C1F305411AD1B4F5E7
S214003920105F17D104390C2911D813F001000ED1FD
S214003930073A062A0BD86B88C02B0BD0B3F5807FCE
S214003940DED0802B0CBF00206FF08600D8E76FF02B
S2140039508600D5E76FF08500D2E700BF000140057E
S2140039602DE9F04FA7B0DDE93475DDF8D880DDF835
S214003970EC90089206461C468A4629B96FF08602E5
S214003980104627B0BDE8F08F0028F7D0309B002BFC
S214003990F4D0329B13B9339B002BEFD1002F7DD18F
S2140039A0002DEBD1389B002BE8D0B9F1000FE5D005
S2140039B03A9B002BE2D0399B002BDFD0338803F4F0
S2140039C0E042B2F5005F74D1C3F30222042A70D13C
S2140039D084F0AA6383F4807333F47E1306D084F0F5
S2140039E0AA6383F4007333F47E136BD1C4F30543E8
S2140039F0319AC9F80030214630460993FFF75AFF3E
S214003A0002460028BCD17288089BB3EBD20F4FEA5F
S214003A10D20BB3D3379B9D425FD83A9A099B934209
S214003A205BD8474508D27B19984505D239462A46C1
S214003A30404632F0BAF94746702200210AA832F012
S214003A40CEF95A4651460DF12D00CDF850B032F061
S214003A5000F9234B24F47E149C423BD13388B3F503
S214003A60105F37D1D9F800300693399B0397CDE91C
S214003A700483339B0293329B0193319B00932A4627
S214003A80309B01210AA82DF0CEFC0246E0B9389BF7
S214003A901D6070210AA82DF0BEFC71E7002D81D0B4
S214003AA0B8F1000F3FF46AAF379B002B7FF47AAF74
S214003AB064E742F20402934204D184F0052383F4BF
S214003AC0801390E7002393E7389900230B60C9F82A
S214003AD00030DEE76FF08502DBE76FF089024FE724
S214003AE0000140052DE9F04FABB0DDE938A4DDE973
S214003AF03B658946099298460746002800F0A28052
S214003B00002900F09F80349B002B00F09B80369BA2
S214003B101BB9379B002B40F09580BAF1000F02D1FD
S214003B20002C40F08F801DB93D9B002B40F08A8012
S214003B303E9B002B00F086803A9B002B00F0828094
S214003B40359A41463846FFF7B5FE0246002866D14C
S214003B507A88099BB3EBD20F4FEAD20B72D33D9B08
S214003B609C4272D8AA4509D20AEB0402954205D2B5
S214003B7051462246284632F018F9AA4670220021FD
S214003B800EA832F02CF95A4649460DF13D00CDF804
S214003B9060B032F05EF82E4A28F47E180021904578
S214003BA0CDE90A11CDE90C1149D13A88B2F5105F7A
S214003BB045D1379B0293369B01930AAF359B009302
S214003BC02246CDE90457349B0696CDF80CA00EA8E5
S214003BD02DF029FC0246C8B93A9B384603EB060C82
S214003BE090469C451FD11EB1314638462DF013FC39
S214003BF0B8F1000F20D03E9A002313601CB1214676
S214003C0028462DF008FC6FF0940204E01EB1314601
S214003C1038462DF000FC70210EA82DF0FCFB104657
S214003C202BB0BDE8F08F10F8011B13F801EB81EA0A
S214003C300E0148EA0108D4E73E9B1C60EBE76FF0F4
S214003C408502E8E76FF08602E9E76FF08902E6E7AB
S214003C50000140052DE9F04F8FB09846DDF86CA0C6
S214003C60049093460023B8F1000F16D0D8F8004011
S214003C701029CDE90633CDE908330CBF08231023FD
S214003C80029300255D450AD3B8F1000F01D0C8F8AD
S214003C90004000200FB0BDE8F08F4446E8E75CB176
S214003CA0199B1A9A1B5D525D013453400AF8053081
S214003CB004F00F040135E5E7FFF7F6FC4FF4404348
S214003CC04460036006462CF09FFE029A049907465D
S214003CD030462CF043FF06F18403184618990193EA
S214003CE02CF0EAFE3846ABEB05072CF091FE27F0E9
S214003CF00F0706F1A0032F440593AAF11009BD4251
S214003D0034D11A9B3B440AAD03F1100C186859686D
S214003D102A4603C2083363451546F7D10F2F0ED93E
S214003D200AEB070306AD103B0DF1280C2A4603CA22
S214003D30624518605960154603F10803F6D106F18E
S214003D40800357440AEB0B0903934F4536D12CF0FA
S214003D505BFE1899054601982CF0CBFE28462CF001
S214003D6057FE3046FFF7AAFC5D468BE72CF04CFE6C
S214003D70224B039033653369DA07FCD41A9B059807
S214003D8059192CF099FE0F2D0ED90DF1180C09EBD0
S214003D9005020DF1280E634603CB73451060516093
S214003DA09C4602F10802F6D106A906F180002CF026
S214003DB0A0FE03982CF02CFE1035A0E774B92CF06A
S214003DC023FE0E4B336505463369DB07FCD40398A8
S214003DD019992CF08EFE28462CF01AFE04F13803B2
S214003DE00DEB0302199B12F8102C1B5D0134534097
S214003DF007F8013B04F00F04A7E700BF48050301DE
S214003E002DE9F74FDDF848A0DDE90E74DDE910680E
S214003E1083461D46894621B96FF0860003B0BDE88B
S214003E20F08F002AF8D00FB9002CF5D116B9B8F1EA
S214003E30000FF1D1BAF1000FEED02E4B9D4215D0F7
S214003E400BD82D4B25F4807199420FD003F5806373
S214003E509D420BD06FF08500E0E7284B9D4205D0D1
S214003E6025F40071A3F580739942F2E7BBF80030A1
S214003E70B3F5105FEED1BBF80230B2EBD30FE9D347
S214003E80802B02D0B3F5807FE4D124B3B7420AD2A8
S214003E903B199E4207D24445BED839462246304694
S214003EA031F083FF3746164BBBF802B09D424FEA0F
S214003EB0DB0BCFD14445AFD814F00F05ACD1731946
S214003EC0009301227B19594648462DF0E5FA30B991
S214003ED01035AC42F3D8CAF8004000209EE74246B0
S214003EE00021304631F07BFF0023CAF800306FF027
S214003EF0920093E70010C004004040040012C00483
S214003F00004440042DE9F04F91B0DDE91A4ADDE99E
S214003F101C56DDF8789007469B46884629B96FF010
S214003F208608404611B0BDE8F08F002AF7D014B9D5
S214003F30BAF1000FF3D10DB9002EF0D1B9F1000F90
S214003F40EDD0574B9B4515D00BD8564B2BF48071B4
S214003F5099420FD003F580639B450BD06FF0850820
S214003F60DFE7514B9B4505D02BF40071A3F580731A
S214003F709942F2E73B88B3F5105FEFD17B88B2EB4E
S214003F80D30FEBD3802B02D0B3F5807FE6D1BAF106
S214003F90000F04D1C9F800A04FF00008C1E7AC42FA
S214003FA00BD204EB0A039D4207D2B245B7D821468E
S214003FB05246284631F0F9FE2C46394B7F889B4501
S214003FC04FEAD70758D003F540739B4521D0374BAF
S214003FD09B45C3D1B245A2D81AF00F0B9FD14046DD
S214003FE03B4608AA39462DF091FA8046002898D11B
S214003FF005EB0B030093002204EB0B03394608A8DD
S2140040002DF04AFA804670BB0BF1100BDA45EFD85C
S214004010C0E7AAF10D0AB2453FD801238DF810304B
S2140040200DF11102234604F10C0153F8040B42F87B
S214004030040B8B42F9D11B7813704FF48073ADF8E4
S2140040401E300D3404ABCDE900334046CDE90245C1
S214004050002352463946FFF7FDFDC9F800A080460A
S21400406000283FF45EAF32460021284631F0B7FE06
S2140040700023C9F8003054E7AAF1100AB2453FF60B
S2140040804EAF04AA04F1100C20686168134603C3FF
S214004090083464451A46F7D1D4E76FF0890840E73C
S2140040A00010C004004040040012C0040044400455
S2140040B010B54FF42F720446002131F090FE802395
S2140040C0C4F88C30054BC4F88430012384F888305B
S2140040D004F19C00BDE810402CF009BBF8B00300CA
S2140040E010B5D0F8A0400A4684B92DF01AFC044654
S2140040F010B90024204610BD2D2896BF064B074950
S21400410053F8201006482DF053FDF3E7D0F8A4101E
S2140041101046A047EDE700BFA4B1030002B10300BC
S21400412091D70300F8B590F88060044616B10026D3
S2140041303046F8BD2DF026FA0028F8D1012384F881
S214004140803094F8883033B1D4F88410194884F855
S21400415088602DF02DFD4FF0FF37D4F8B402421CD6
S2140041601CD0C4F8B47210F0FF0520D020462DF005
S21400417006FA2946204600F0AFFB0028EDD0204680
S2140041802DF00BFA94F888306BB1D4F884100948F7
S2140041902DF00EFD002384F8883004E02DF0EDFCB1
S2140041A0431CE0D10126002384F88030C0E70126B6
S2140041B0D3E700BF2CD40300F8B50B78302B0446A9
S2140041C00D46164604D14B7803F0DF03582B11D06A
S2140041D0284F6A1E12F8011F002935D128460A22E8
S2140041E00FF0B2FA202C03460D4632D1B1FA81F018
S2140041F040091BE04A1C1F4912F8013F93B92846A4
S21400420031F05AFD1C4B2340032BA0F1020012D1C3
S2140042100134A41084420AD1A87837288CBF002025
S214004220012003E0CB5C13F04400E5D1F8BDCCBF21
S21400423001200020FAE7002CB8BF0334B0EBA40F2F
S214004240D4BF01200020F1E77B5C13F00400C1D14D
S214004250ECE726B1084302D0013B61F100050122DC
S214004260A240013A1A40002D08BF9A420CBF012016
S2140042700020DBE7AF77040003000080F0B503788A
S2140042807B2B014617D10D4F06460224002216F856
S214004290015F7D2D05D10B5D6BB9D24302F00100A5
S2140042A008E07B5D13F0440002D001320134EEE7F3
S2140042B0202DFBD0F0BD0020FCE700BFAF77040048
S2140042C070B506460D4631F0F7FC044630462DF034
S2140042D06FFC044EAC4200D370BD30462DF068FC37
S2140042E00134F7E760CB03002DE9F84F04460221BE
S2140042F06048FFF7E5FF1E212068FFF7E1FF6368CF
S21400430058682DF055FC5C482DF052FC67683B7BE6
S214004310FD2B12D8D7F80880DFF85891DFF8B4A143
S214004320DFF870B1404631F0C7FC0C3706464FF058
S214004330FF3417F8013BFF2B01D1BDE8F88F212B86
S21400434014D8212B14D8DFE803F0178C8884807CDF
S21400435078741313131313131313706C6864605C70
S21400436058541313131313131313504CFE2B34D03B
S21400437006B10134414D02E006B10134404D022140
S2140043804846FFF79DFF1E214846FFF799FF504617
S2140043902DF00EFC5946284631F044FC39490028D9
S2140043A018BF294638482DF003FC3B78202B02D155
S2140043B02B202DF0F1FB35482DF0FAFB4EB118F806
S2140043C004301F2B05D018F804001F2801D0B44273
S2140043D04BDB29482DF0ECFBABE706B101342C4D46
S2140043E0CDE706B101342B4DC9E7002EA1D001342C
S2140043F09FE706B10134284DC1E706B10134274DC9
S214004400BDE706B10134264DB9E706B10134254DA6
S214004410B5E706B10134244DB1E706B10134234DAA
S214004420ADE706B10134224DA9E706B10134214DAE
S214004430A5E706B10134204DA1E706B101341F4DB2
S2140044409DE706B101341E4D99E706B101341D4DB6
S21400445095E706B101341C4D91E706B101341B4DBA
S2140044608DE706B101341A4D89E72DF095FB01342E
S214004470A9E700BF955E0400E1B6030069B2030039
S21400448063B20300C0B203002CD40300E8C50300E7
S21400449071B2030077B2030080B2030087B2030054
S2140044A092B203009CB20300A6B2030091B20300CE
S2140044B09BB20300A5B20300AEB20300B2B2030083
S2140044C0BAB203005DB2030064B20300B9B20300DF
S2140044D05CB2030009DA03002DE9F04F9BB00546F5
S2140044E08B460092049331F0E7FB249F049B0590D3
S2140044F000241C600AAA3C6009A928462DF079FB16
S214004500064658B90A9831F0D7FB049B1860D5F8D0
S2140045109C3003933446B146039B1BB920461BB020
S214004520BDE8F08F039B9B680193002B69D02E4457
S21400453016F8013B202B12D000260C23019A734359
S21400454002EB030AD3580293002B55D0DDF82480E3
S214004550C84551DB9AF808302BB1721C35E03B6831
S21400456001333B60E4E73B68D5F894200299D21A01
S214004570049B1A601AAB03EB890353F8403C06937E
S214004580184631F074FB07900028E6D1029831F007
S21400459093FBDAF80410079AD7F800A00346087BC6
S2140045A0FE2816D108F1FF38C8452ED00B680698AD
S2140045B00292019331F080FB0AF10103029A034450
S2140045C0E95C21B13B6009F101091646B5E7013304
S2140045D0F6E7D5F89420A2EB0A029A42BDDC5846CC
S2140045E0069331F069FB069B03447B2B1DD91F4ABB
S2140045F0009958462CF0A2F8059A2B462A449A426F
S2140046002AD1039B1B68039386E7D5F89420A2EB78
S2140046100A029A42E3DDD1F8008058F80C2B82B9E2
S214004620059B3B60049B1A60E6E7029A0099584691
S2140046302CF084F80E4A0099584601342CF07EF887
S2140046408BE7009958462CF079F8094A00995846A5
S2140046502CF074F80134E0E713F8011B0029CED1E2
S2140046604FF0200103F8011CC9E700BFC2B20300E7
S21400467060CB03002DE9F04786B0DDE90EA80024E4
S2140046801C60064689468AF800401168154888F876
S214004690004017461D468DF81740FCF73DFC18B93C
S2140046A02B6801332B600124D6F89C60002036B9B5
S2140046B014B1012388F8003006B0BDE8F087B06872
S2140046C068B14B46CDE902A8CDE900750DF1170299
S2140046D000212DF0C5F89DF81730002BE8D136687C
S2140046E0E5E700BFC7B203002DE9F0430026ADF5AD
S2140046F0457D04467C22314605A802AF049631F07B
S2140047006EFB009703AB802204A92046FFF7E4FE69
S21400471001283ED104A831F0CFFA03993B68A0EBFC
S21400472001080B44234428EAE878054604A8014417
S2140047304246184631F08DFA00F80860D4F89060CA
S214004740039B3968D4F890201944B14212DCD4F89F
S2140047509410E81A0244C4F89020014404AAC4F84D
S2140047609410D41825182B1B002B0DDC0DF5457D59
S214004770BDE8F083A05C2DF00FFAD4F8903001333A
S214004780C4F890300136DBE714F8010B2DF004FA7C
S214004790E9E7EBDD24AD80223146284631F01FFBE9
S2140047A044AB4FF400723146184631F018FB0DF159
S2140047B0100903464A464FF00108314612F8016BCD
S2140047C0002E49D104A843F8281031F075FA29467E
S2140047D0334619F8016B0DF5887C5CF8042B824291
S2140047E043D10133984501F8016BF2DAD4F89060B2
S2140047F0039BB34242DC364A3648234604A92DF0D2
S214004800D7F9284631F058FA039B3F6806461F44FE
S214004810F61AE0191D4426EAE67204F198031744D6
S214004820984204EB07014ED204F1900399424AD90C
S2140048306A1E81190B1A002B39DD12F8013F00F8A9
S214004840013BD4F890300133C4F89030D4F894305B
S2140048500133C4F89430EDE7202E01F1010104BFC6
S21400486043F8281008F10108A8E70DF1100E72446D
S214004870D25CB242B1D00022EA54B7E7D4F8903006
S214004880E05C2DF089F9D4F890300133C4F890300C
S2140048900136ADE7D4F890200132C4F89020D4F861
S2140048A094200132C4F89420013B002BF2DC002354
S2140048B0E3552E44731B002B7FF758AF15F8010BFA
S2140048C02DF06AF9F6E7294631F0C3F93346ECE7EE
S2140048D0F8B00300CCB203002DE9F843D0E9245623
S2140048E004460F46002294F89830012B07D10A2F71
S2140048F007D1002384F898300020BDE8F88300F242
S2140049009F801B2F01D10223F4E70D2F0DD1012329
S21400491084F898300D202DF03FF90A202DF03CF950
S2140049200023C4E924330120E7E74FF00008082FEE
S21400493084F8988034D1454530DDB5420FD13846ED
S2140049402DF02AF9013D20202DF026F938462DF0CD
S21400495023F904F80580013EC4E92456CCE7FBDAC7
S21400496005F1FF3938462DF017F904EB0903A6EBDD
S21400497009026119184631F018FA04F80680014653
S21400498048482DF015F9013E35464D4501DC4D46AB
S214004990E2E708202DF000F9013DF6E7ACD0DBE7B2
S2140049A07F2F1CD1002EA7DDB542A5DA6319691C3E
S2140049B02144721B184631F0F8F904F806800146C7
S2140049C039482DF0F5F80820013E2DF0E5F8B542FF
S2140049D0F9D1D4F89430013BC4F894308CE70A2F10
S2140049E098D0092F03D12046FFF77EFE84E7D4F83F
S2140049F08C30013BB3427FF77FAFB54204EB05082E
S214004A0005F101090CDB88F80070D4F89430C4F87E
S214004A1090900133C4F8943038462DF0BDF86BE71B
S214004A20721B414604EB090031F0BFF940462DF0F9
S214004A30BFF80820013E2DF0AFF8B542F9DDE2E7F9
S214004A40022B06D15B2F01D1032353E784F898206D
S214004A5049E7032B7FF450AF413F84F89820032F9B
S214004A603FF64AAFDFE807F002070A1601212046A4
S214004A702DF043F840E74FF0FF31F8E7B542BFF6B8
S214004A803BAF605D2DF088F8D4F890300133C4F861
S214004A90903031E7002D7FF72FAF013DC4F89050DE
S214004AA00820BAE7D5B20300CDC603007FB5094B90
S214004AB06A4603F11006154618685968144603C47A
S214004AC00833B3422246F7D12846FDF78FFF002071
S214004AD004B070BDDAB2030070B5184B86B001AAF8
S214004AE003F11006154618685968144603C40833BF
S214004AF0B3422246F7D11B882380114BD3F8B4204B
S214004B00120316D5A3F500434FF6FF721B88934297
S214004B1008BF4FF4A5730B48ADF80A30FCF7A4FAAB
S214004B202846FDF71BFB3220FDF790F9002006B063
S214004B3070BDD3F8B830C3F30803ECE7EAB203005D
S214004B400081E00F00F0490207B5084B1868019095
S214004B50202301A88DF80430FDF740FB3220FDF736
S214004B606FF9002003B05DF804FB00BFFCB2030041
S214004B7010B50C480C4C6FF00403A02113F0800F06
S214004B8003F1010207D12344332A83F800131346A6
S214004B90F4D1002010BD03F00F03043B0344197644
S214004BA01346EBE700ED00E000E100E010B5044638
S214004BB02BF02AFF024B1C602BF02AFF002010BDB2
S214004BC08424002010B52BF01FFF034B1C682BF02D
S214004BD01FFF204610BD00BF8424002038B50C46B9
S214004BE01546014610B9FFF7EDFF01462B46224653
S214004BF003480BF041FE0028D4BF3720002038BD04
S214004C005B1D030030B5144687B0054610462DF0F0
S214004C10D6F8636983423CBFD4E903315B181B1A9C
S214004C2002467BB10F4903910021CDE901310123F2
S214004C3004940093D4E9001328462BF095FE002038
S214004C4007B030BD0122627694F82D20002AF6D0F7
S214004C5084F835301321E36920469847636A204676
S214004C609847ECE7054C00002DE9F04788B004466D
S214004C700F46164698462BF0D2FE8146002E7BD075
S214004C80237E03F0FF02002B00F0A38020462DF0C9
S214004C9096F86569A84205D1637ED4E903321344C9
S214004CA05D1B01E0F9D9451BB54228BF35462BF000
S214004CB0B6FE94F82D308246002B6ED161692A46E6
S214004CC0384630F0C6FF63692B4463612E4621E008
S214004CD0037803F0FD0111295CD1216B814205D1D7
S214004CE0A3F111014B424B4184F83430013E636915
S214004CF0216B8B4203F1010308BF2363636101321A
S214004D0095426069E4D1D4E90323216B13449942A8
S214004D1000D12263D4E903236169207A13449942BF
S214004D204FF0000508BF62616576FCF7FBFB204686
S214004D302DF045F86369834232D194F82D302576FC
S214004D40E568656103B12563636A20469847224B90
S214004D500393002304940293236901930123009391
S214004D6063682168207A2A462BF0FEFD207AFCF73D
S214004D70F9FB50462BF059FE4846C8F800602BF069
S214004D8054FED8F80030002B0CBF1B20002008B0C3
S214004D90BDE8F08707F8013BA9E72E460022AFE7FB
S214004DA001232376207A0DF11E01FCF743FC9DF8C3
S214004DB01E30002BDAD00DF11F01207AFCF712FC12
S214004DC09DF81F100029D1D1207A2246FFF71AFF3E
S214004DD0CCE71646D0E700BF054C0000002807DBEE
S214004DE0044A4109012300F01F00834042F82130A5
S214004DF0704700BF00E100E0002808DB43090449D3
S214004E0000F01F0001226033824041F823207047E3
S214004E1000E100E070B504460568FFF7D3FE844263
S214004E2002D10020FFF7C2FE95F936603046FFF744
S214004E30E3FF002E0CDB7309194906F01F0620332A
S214004E400122B24041F82320BFF34F8FBFF36F8F8C
S214004E5095F937603046FFF7CFFF002E0CDB73095D
S214004E600F4906F01F0620330122B24041F82320E6
S214004E70BFF34F8FBFF36F8F287AFCF793FB287A28
S214004E80FCF7F4FAFCF7D0FA0023C4E90033C4E9CF
S214004E900433A3602846AB6ABDE87040184700BFDD
S214004EA000E100E02DE9F0430C461546064687B0C3
S214004EB04022002120461F4630F091FF002395E84F
S214004EC003002A692376EB68E360C4E904232A7D9D
S214004ED084F82C20AA7D2363012384F8343084F8D8
S214004EE035300E9B236284E803000F9B6362109BA1
S214004EF084F82D20E761A3622B7A84F836306B7A2B
S214004F0084F837302D4B73602D4BB3602D4B3361D7
S214004F102D4B346073612D4BF360FCF7CDFA38B13E
S214004F202B4B984204D01024204607B0BDE8F083EF
S214004F30002104F10800FCF747FA07460028F2D1E2
S214004F40244B33624FF00108234B84F83C80B36156
S214004F50224BF3619DF8483084F83B309DF844308E
S214004F6084F83A30697D84F8390084F83880204621
S214004F702CF036FF95F909904846FFF73DFF484666
S214004F80FFF72CFF164B0494CDE902732369CDE995
S214004F9000836368E2682168207A2BF0E5FC04460B
S214004FA00028C0D195F908502846FFF725FF284667
S214004FB0FFF714FF3046FFF7F9FDB5E7311E030093
S214004FC0694C0000AD1D0300B31D0300154E000024
S214004FD0038000F0871D0300E11D0300B91D0300D8
S214004FE0054C00002DE9F04186B01C46524B0C9D46
S214004FF00293524B01930126514B0093CDE9036671
S214005000504B90460A462946FFF74CFF07460028B5
S21400501056D123682B6463686B64637A85F84930DD
S214005020237A85F84830E37A85F84B30A37A85F8FA
S2140050304A30637B85F84D30237B85F84C30E37B24
S21400504085F84F30A37B85F84E303F483146FCF755
S214005050C3FC3E483146FCF7BFFC617A207A3346F3
S2140050600422FDF795FD33460222E17AA07AFDF789
S2140050708FFD60683146FCF7AFFC88F8007041464B
S21400508020682BF005FE2268536F43F00303536736
S214005090936F617C23F4F85323F01F0343EA012344
S2140050A0A17C0B4393670323536785F8507098F8E9
S2140050B01920202A28D007D8E2B1102A38D0232772
S2140050C0384606B0BDE8F081302AF8D185F8503071
S2140050D002220023617B207BFDF75AFD2368E27CD9
S2140050E0DA675A6E42F004025A665A6F42F01002AD
S2140050F05A6766B92A6C2068D36C43F00403D364FD
S21400510005212BF0BEFDDBE7022385F85030E17B5E
S214005110A07B00230422FDF73BFD2368217DDA6F88
S21400512042EA0122DA675A6F42F020025A67E1E744
S21400513033463E46CAE700BF5D1F0300511F03000B
S214005140E91F0300DD1F03004041050000350A008B
S21400515007B501F019FB6A4601F07CFB18B104485C
S214005160522100F0DDFADDE9000103B05DF804FB32
S21400517000B3030008B501F03BFA18B102487A21E3
S21400518000F0CEFA002008BD00B3030008B500F01A
S21400519025FA0D4A536A43F4E0235362EFF308837B
S2140051A00A4A043B4FF0CD31934209D2084B012204
S2140051B01A61FFF7DFFFBDE808400648FEF750B962
S2140051C043F80419F0E700BF00ED00E000000020FF
S2140051D000300E4030B0030007B504220DEB02018C
S2140051E0002031F0E0FC042804D0054840F26711A6
S2140051F000F096FA019800F0D9FB03B05DF804FBC6
S21400520000B3030010B50A0A41400748C9B2082394
S21400521001F00104490804B14140013B13F0FF03CB
S214005220F6D181EA020010BD2083B8ED2DE9F843DF
S214005230134C144EDFF85480134FDFF854900025BB
S21400524023780BB9BDE8F88356F8043B224641465E
S21400525000202CF08BFD227823460134002AFAD158
S2140052605B7853B105F00303032B0CBF3946494660
S21400527000202CF07BFD0135E2E73946F8E700BF59
S21400528076B8030000100020E0B603005DB303000C
S21400529018F903006B4B1B8840F6052293422DE954
S2140052A0F0410ED8B3F5206F0DD840F2025293426B
S2140052B018D040F20172934220D040F2015293423D
S2140052C00AD0BDE8F081A3F602235F4C032B1ED85C
S2140052D0DFE803F0376396B25C490020BDE8F04192
S2140052E02CF044BD5A4900202CF040FD564B1A6C59
S2140052F05849BDE8F04100202CF038BD524A5649C6
S214005300BDE8F041D2E9242300202CF02FBD5349FC
S21400531000202CF02BFD94F868309E0703D55049EA
S21400532000202CF023FD94F86B305D0603D54D4924
S21400533000202CF01BFD94F96B30002BC1DA4A4993
S214005340CBE74A4900202CF011FD94F8643098070A
S21400535004D0226C3F4900202CF008FD94F96430FC
S214005360002B04DA226F424900202CF0FFFC414F4C
S214005370DFF80C8100250126626E06FA05F313425B
S21400538007D057F8252013781BB1414600202CF093
S214005390EDFC0135082DEFD193E7374900202CF0BE
S2140053A0E5FC2C49226C00202CF0E0FC94F86530DB
S2140053B0590703D5314900202CF0D8FC94F9653004
S2140053C0002B04DA226F2A4900202CF0CFFC294E4D
S2140053D02B4F0825636EEB40DA0707D556F82520D5
S2140053E013781BB1394600202CF0C0FC0135102D77
S2140053F0F0D194F8640000287FF463AF21496DE78C
S21400540021491C4E1E4F00202CF0B0FC226C114986
S21400541000202CF0ABFC1025636EEB40DB0707D5B5
S21400542056F8252013781BB1394600202CF09EFC38
S21400543001351A2DF0D144E7144900202CF096FCD3
S214005440226C55E7823E00200010002067B3030060
S214005450A5B30300D6B30300F1B303000DB40300F5
S21400546026B4030061B4030095B40300D2B403006D
S214005470F8B40300D0BF03001FB5030037B5030020
S21400548016B503007EB50300AFB50300C9B503002B
S2140054902DE9F04F424CD4E90D32D4E9121B5807DF
S2140054A048BF0026D4F83CA05DBFD4F850803D4EDF
S2140054B0DFF81C91DFF81C915ABF8B469246B04627
S2140054C013F0080F384B394A394918BF1A46B6EB5D
S2140054D0080718BF7D0885B01BBF642303FB0B5568
S2140054E03D46B5FBF7F54B4618BFADB2CDE9016AB0
S2140054F0CDF800800020BFB22CF038FCCDE9009734
S2140055002C492B461FFA8BF200202CF02FFCB245BC
S21400551001D8C24504D228494A4600202CF026FC71
S214005520D4E91703184338D02449254FDFF8A8805C
S21400553000202CF01BFC00250126E26D06FA05F380
S214005540134207D057F8252013781BB14146002098
S2140055502CF00CFC0135202DEFD11A4FDFF87880A7
S21400556000250126226E06FA05F3134207D057F8E7
S214005570252013781BB1414600202CF0F7FB01359F
S214005580122DEFD1104900202CF0F0FB0E49002020
S21400559005B0BDE8F04F2CF0E9BB0C49F4E700BFBE
S2140055A00010002000100020F0B50300F7B503003F
S2140055B0FFB5030031B603006BB603008AB60300DE
S2140055C008BF030088BF0300E1B60300BAB60300B5
S2140055D0EBB5030008E403002BD4030010B5FDF779
S2140055E0C5FC0446FDF7BCFCE30721D401221046A7
S2140055F0114600FA01F3234002F101021AD0214BB2
S21400560033F811302049062B19D040F20722934276
S21400561012D14FF000524FF20F00548884420BD143
S2140056201088984208D14CF23C335380088010BD55
S2140056300021E4E7112ADBD1134A138012E04FF071
S21400564000534FF20F025888904218D11B88B3F5CA
S214005650406F28BF4FF4C0630B804FF000534CF2EE
S2140056603C325A80084B1A8840F201739A4201BFB6
S214005670064A074BD2E90001C3E90001D7E74FF419
S214005680C063E9E754B80300823E00209010002073
S21400569088240020014B1888704700BF823E0020F7
S2140056A0014B1888000A7047823E0020044B0548CC
S2140056B01B881A0AB3F5406F38BF00EB82007047AC
S2140056C0823E002024B80300044B1888044B020ACC
S2140056D0C0B253F8223003EB80007047823E0020B1
S2140056E0F4B7030010B504462BF095F94FF00053BD
S2140056F04FF20F021C805A80BFF35F8FBFF34F8FAD
S2140057000549064BCA6802F4E0621343CB60BFF358
S2140057104F8F00BFFDE700BF00ED00E00400FA0574
S21400572038B504460D4631F0B2FF08492B462246EE
S21400573000202CF01BFB2CF0F9FC2BF06CF9294612
S2140057402046BDE838402CF0D7BC00BFD0B60300DA
S2140057506B4A6C4B2DE9F04155685D65516A996559
S21400576069496A4CD1F80002D865D1F80412196666
S214005770916A5966D16A9966116BD966516B196739
S214005780D26B586B5A67D3E90E1210F0040F18BF8D
S21400579011465F4A1A6500209142D8645DD301F134
S2140057A02000A04259D888691864C5F30805CE6958
S2140057B05E64062D55D1574DA84252D3564DA84289
S2140057C04FD205884DF6426085424AD11868C3F824
S2140057D090005868C3F8940040F20170A242154643
S2140057E005D22E68B6F1CD3F02F10402F6D00022B3
S2140057F0C3E91E22C3E92022C3E92222641BDFF884
S21400580014C1424DDFF810E19C648D422CD8D3E9D8
S2140058101EC7D3E92065D3E922414FF0000E013AB6
S214005820D2B2FF2A3BD1BEF1000F05D0C3E91EC796
S214005830C3E92065C3E92241B3F85430C3F3080333
S214005840DA1E0F2A52D8DFE802F03458414451518C
S2140058505151514E5151515151380021C3E9101147
S2140058602B494FF42060B9E755F8044D6445CCD376
S2140058707445CAD2E607C8D5284F002657F8048FC5
S214005880A045C2D00136062EF8D132B1013AD2B2C6
S21400589002F11E0643F82640B7E70522F8E7E04681
S2140058A04FF0010EBC4637462E4625460C4641466E
S2140058B0B5E740F60120BDE8F081194BDB6913F02F
