S0260000626F6F746C6F616465722D756172742D786D6F64656D2D636F6D62696E65642E73333795
S3150FE100000F4880F308880F4800470000D105E10F3C
S3150FE10010D105E10FD105E10FD105E10FD105E10FD2
S3150FE10020D105E10FD105E10FEC05E10FD105E10FA7
S3150FE10030D105E10FD105E10FD105E10FD105E10FB2
S3150FE10040004000208505E10F0348044B834202D0AF
S3150FE10050034B03B118477047140100201401002028
S3150FE10060000000000548064B1B1AD90F01EBA3014F
S3150FE10070491002D0034B03B1184770471401002012
S3150FE10080140100200000000010B5064C237843B997
S3150FE10090FFF7DAFF044B13B10448AFF300800123F6
S3150FE100A0237010BD14010020000000000006E10FCF
S3150FE100B008B5054B1BB105490548AFF30080BDE80F
S3150FE100C00840FFF7CFBF00BF000000001801002076
S3150FE100D00006E10F044B054A9A60D3F8882042F4F3
S3150FE100E07002C3F88820704700ED00E00000E10FD1
S3150FE100F0094A0A4BD969C90705D512B96FF002004A
S3150FE101007047013AF6E7002AF8D001221861DA6062
S3150FE10110D86940F3800070478096980000000E4042
S3150FE1012070B509B9002070BD0E4A0023082550F8B5
S3150FE10130234094610C4CD5600133D669F60705D59A
S3150FE1014014B96FF00200EEE7013CF6E7002CF8D0A8
S3150FE10150D469A40702D49942E9D1E3E76FF001002C
S3150FE10160E1E700BF00000E40809698002DE9F843C5
S3150FE101701C4B0D4641F671311E6C19641A498046C6
S3150FE1018048684968996841F00101B6B299609708E4
S3150FE101904FF00009B94501D3002005E008EB8904CA
S3150FE101A02046FFF7A5FF48B10E4B9A6822F00102F0
S3150FE101B09A600EB100221A64BDE8F883C4F30A010E
S3150FE101C0C1F500618908A7EB0903994228BF1946D2
S3150FE101D02846FFF7A5FF0028E6D1894405EB8105FF
S3150FE101E0D8E700BF00000E4000300E40234B41F62A
S3150FE101F071311A6C10B5196421494C6849689968CF
S3150FE1020041F00101996001211861D960D9694C0763
S3150FE1021092B209D5996821F0010199600AB10022DC
S3150FE102201A644FF0FF3010BD0221D9601549D86924
S3150FE10230C00700D569B9D86910F002000BD09968EB
S3150FE1024021F0010199600AB100221A646FF00100F1
S3150FE10250E9E70139EBE741B9986820F001009860C9
S3150FE1026002B119646FF00200DDE7996821F001012F
S3150FE1027099600AB90020D6E71864FBE700000E4043
S3150FE1028000300E4080969800FFF770BF08B50A4B15
S3150FE102901A680A4B1A600A4B40221A615A685203CE
S3150FE102A0FCD400F07DF80028FBD040F2022000F0EC
S3150FE102B0C9F8002008BD00BF040100200801002095
S3150FE102C000300E4010B5104C104BA36000F0D8F87B
S3150FE102D00F4B5B68B3F5803F09D040F20923984293
S3150FE102E002D0B0F5007F02D100F016F850B9094BF4
S3150FE102F0A3601846016881F3088881F3098840688D
S3150FE103008746FEE710BD00BF00ED00E00000E10FFC
S3150FE1031000500E400008E10F2DE9F041DFF87C8037
S3150FE10320D8F828201069D568836AAB4202D200203B
S3150FE10330BDE8F08105F510429A42F8D95B1BC61864
S3150FE10340C758144B9F42F2D1F1684FF0FF3200F0DC
S3150FE10350FFF8114B98420446E9D1D8F82838A3F1B2
S3150FE103607E62A2F58432B2F5104F10D21A68BA4204
S3150FE103700DD1B1689A68914209D8D9684FF0FF3229
S3150FE10380284600F0E5F8001B18BF0120D0E7012051
S3150FE10390CEE700BF07B0CD5EE320BBDE0000E10F85
S3150FE103A0F8B5194B9B6AD3E90347BB6A1B1BFD18CB
S3150FE103B02646EA68A318B3421DD83946204600F00F
S3150FE103C092F8B8B1104BD3F82838A3F17E62A2F5B3
S3150FE103D08432B2F5104F14D219680C4A914210D1FA
S3150FE103E0D9684FF0FF32204600F0B2F8084BC31A36
S3150FE103F058425841F8BD304600F06EF806F50066F2
S3150FE10400D7E70020F6E700BF0000E10F07B0CD5EAA
S3150FE10410E320BBDE4FF000534AF6C0305B8823F092
S3150FE104200F039BB21B1A5842584170474FF00052C7
S3150FE1043008B51080FFF7EEFF10B94FF20F035380A7
S3150FE1044008BD000008B5FFF7F1FF0A4A136823F468
S3150FE10450E06343F400731360BFF34F8F0649074B15
S3150FE10460CA6802F4E0621343CB60BFF34F8F00BF5C
S3150FE10470FDE700BF00500E4000ED00E00400FA0575
S3150FE104804FF000534FF20F015A888A4201D1188873
S3150FE1049070473AB91B88012B40F2022018BF4FF47F
S3150FE104A0007070474FF40070704707B503469B071E
S3150FE104B053BF6FEA01414FF6FF7343EA01416FEA1A
S3150FE104C011410422019120F003000DEB0201FFF728
S3150FE104D0DBFE03B05DF804FB08B5FFF787FEB0FA64
S3150FE104E080F0400908BDF8B505460E4614460AB92F
S3150FE104F00120F8BD42EA0003DA0701D50020F8E74B
S3150FE10500830721D50988FFF7D0FF0028F6D1023CF2
S3150FE10510032C05F1020506F102060BD924F00307B8
S3150FE105203A4631462846FFF7AFFE0028E6D13E446C
S3150FE105303D44E41B002CDBD031882846FFF7B5FF9D
S3150FE10540B0FA80F04009D4E7032CE7D8F4E70000CE
S3150FE1055010B50A4CD4F8B03043F04003C4F8B030CC
S3150FE10560074B01241C6001449A605C60884201D10B
S3150FE10570D86910BD10F8012B9A61F7E700400E40DC
S3150FE1058000C001400B4880470B4880470B490C4A96
S3150FE105900C4B9A42BEBF51F8040B42F8040BF8E735
S3150FE105A009490A4A00209142BCBF41F8040BFAE718
S3150FE105B0FFF76CFED500E10FC502E10F0406E10F6F
S3150FE105C00401002014010020140100203001002055
S3150FE105D0FEE700BFF8B500BFF8BC08BC9E46704702
S3150FE105E0F8B500BFF8BC08BC9E467047AD1007B022
S3150FE105F00100000000000C010008E10F008000007F
S3150FE1060000000000C0EA2101C0EA2101B100E10FBB
S3090FE106108900E10F77
S3150FE1080008100020432CE10F412CE10FF92CE10FE9
S3150FE10810412CE10F412CE10F412CE10F412CE10F6E
S3150FE10820412CE10F412CE10F7437E10F412CE10F20
S3150FE10830412CE10F2437E10F412CE10F412CE10F60
S3150FE10840412CE10F412CE10F412CE10F412CE10F3E
S3150FE10850412CE10F412CE10F412CE10F412CE10F2E
S3150FE10860412CE10F412CE10F412CE10F412CE10F1E
S3150FE10870412CE10F412CE10F412CE10F412CE10F0E
S3150FE10880412CE10F412CE10F412CE10F412CE10FFE
S3150FE10890412CE10F412CE10F412CE10F412CE10FEE
S3150FE108A0412CE10F412CE10F412CE10F412CE10FDE
S3150FE108B0412CE10F412CE10F412CE10F412CE10FCE
S3150FE108C0412CE10F412CE10F412CE10F412CE10FBE
S3150FE108D0412CE10F412CE10F412CE10F412CE10FAE
S3150FE108E0412CE10F412CE10F412CE10F412CE10F9E
S3150FE108F0412CE10F412CE10F412CE10F412CE10F8E
S3150FE10900412CE10F412CE10F412CE10F0348044B40
S3150FE10910834202D0034B03B118477047681000209A
S3150FE1092068100020000000000548064B1B1AD90F7E
S3150FE1093001EBA301491002D0034B03B118477047EE
S3150FE1094068100020681000200000000010B5064C6A
S3150FE10950237843B9FFF7DAFF044B13B10448AFF33A
S3150FE1096000800123237010BDB210002000000000AB
S3150FE109704439E10F08B5054B1BB105490548AFF3FE
S3150FE109800080BDE80840FFF7CFBF00BF00000000C1
S3150FE10990681000204439E10F064B0748DA1C121A9A
S3150FE109A0C11E22F00302994288BF0022034902F0D9
S3150FE109B0FABD00BF68100020081000205039E10F82
S3150FE109C0064B0748DA1C121AC11E22F0030299429E
S3150FE109D088BF0022002102F004BE00BF38130020B9
S3150FE109E068100020044B054A9A60D3F8882042F438
S3150FE109F07002C3F88820704700ED00E00008E10FB0
S3150FE10A00024A00231370024A13707047B410002094
S3150FE10A10B310002038B50378042B04460D463FD0BA
S3150FE10A2009D8012B0BD0032B4FF018033CD040F61E
S3150FE10A3003102B7038BD182B36D0432BF4E7224B1E
S3150FE10A404278197801BB012A03D0152340F6041029
S3150FE10A50EFE71A70A3781344FF2BF6D1002280211A
S3150FE10A60E01C02F004FB94F88320C0F30F239A42B3
S3150FE10A7021D194F88430C0B2834220D1134B6278EE
S3150FE10A801A7000200623D4E7104B1B7893420ED041
S3150FE10A900133DBB29342DDD0152340F60510C8E7EB
S3150FE10AA0062340F60710C4E740F60810C1E7062310
S3150FE10AB040F60610BDE7152340F60210B9E71523F8
S3150FE10AC040F60110B5E700BFB3100020B4100020C7
S3150FE10AD00149024800F03AB84036E10F8010002094
S3150FE10AE010B592B018494722684602F05CFD00F056
S3150FE10AF0BDFAC0F30363092B8CBF373330330A22B8
S3150FE10B008DF81430C0F30343B3FBF2F102FB11335B
S3150FE10B10303300F00F008DF81730B0FBF2F302FB24
S3150FE10B20130001F13004303003F130018DF8191063
S3150FE10B308DF81A000122472168468DF8164000F01C
S3150FE10B40A3FC002012B010BD5036E10F2DE9F04F96
S3150FE10B500024F9B094220646884653A821468DF81B
S3150FE10B600F4002F03EFD2146482205A802F039FD6D
S3150FE10B702146682217A802F034FD00F075FBDFF875
S3150FE10B801093DFF810A3DFF810B33C2701254FF0E0
S3150FE10B90FF346B1E052B09D8DFE813F00C001E009E
S3150FE10BA041005B005401C0000425F2E7FFF798FF0F
S3150FE10BB00125EEE74FF47A7104A802F071F938B91D
S3150FE10BC09DF81030312B05D0322B0CBF05250025B2
S3150FE10BD03C27DEE70225FBE701221121A94800F0B8
S3150FE10BE053FC28220021304602F0FBFC202317AAF2
S3150FE10BF005A953A802F000FA0025FF23737001211E
S3150FE10C000520758000F05EFB00F08AFC18B101212A
S3150FE10C10284600F0FBFCFFF7F3FE0325B9E7432077
S3150FE10C2002F01FF800214FF47A7000F04BFB00F051
S3150FE10C3077FC18B900F06AFB0028F8D000F070FCD9
S3150FE10C400028B1D1013FA4D1182002F00AF80025FE
S3150FE10C509FE7002185220DF1C50002F0C2FC0021BC
S3150FE10C6040F6B83000F02EFB00F05AFC88B34FF493
S3150FE10C707A7300930123194604AA0DF1C50000F01A
S3150FE10C8073FC9DF8C530012B0DD140F6B8320092B9
S3150FE10C90842104AA0DF1C60000F066FC049B842BA7
S3150FE10CA004461AD1D8B90DF10F010DF1C500FFF7C1
S3150FE10CB0B1FE40F60713984204461AD1B378A3B1B1
S3150FE10CC0F37893B106259DF80F00182808BF06257E
S3150FE10CD008E000F01BFB0028C6D040F20474152093
S3150FE10CE08DF80F0001F0BDFF53E718238DF80F3094
S3150FE10CF0E8E70028E7D19DF8C530012BE3D1CDF820
S3150FE10D000080802332AA314653A800F0C5FD044680
S3150FE10D100028D8D018238DF80F30D4E70121002011
S3150FE10D2000F074FC01210A2000F0CCFA9DF80F3097
S3150FE10D30062B4FF0010208D140F607139C4204D16E
S3150FE10D4051481B2100F0A0FB81E71A21504600F024
S3150FE10D509BFBA4F51063B3F5E06F4FF0010213D2DD
S3150FE10D604A48112100F090FB40F606139C4213DC32
S3150FE10D70B4F5106F10D0A4F60213042B4ED8DFE8AA
S3150FE10D8003F04F474B5153001021584600F07CFBBF
S3150FE10D9040F606139C421ADC9DF80F309F2B4FEA63
S3150FE10DA013108CBF3730303000F0A6FB9DF80F00E3
S3150FE10DB000F00F0009288CBF3730303000F09CFB74
S3150FE10DC00D2000F099FB0A2000F096FB3FE7A4F512
S3150FE10DD08053013B092BDFD8A4F58053013B092B47
S3150FE10DE0DAD801A252F823F03D0EE10F990DE10F8A
S3150FE10DF0990DE10F410EE10F310EE10F390EE10FC2
S3150FE10E003D0EE10F350EE10F2D0EE10F3D0EE10F18
S3150FE10E1021238DF80F30BFE72223FAE72323F8E7E3
S3150FE10E202423F6E72523F4E72723F2E74123F0E727
S3150FE10E304323EEE74423ECE74523EAE74F23E8E7CD
S3150FE10E405023E6E7B378BBB1F378ABB133789B07C1
S3150FE10E500DD5756800F00AF9854204D9716A4FF428
S3150FE10E60004000F0F3F80122132148466AE740F209
S3150FE10E70012000F0C5F9F6E740F2032000F0C0F9D2
S3150FE10E80E5E600BF0037E10FE536E10FBA36E10FD0
S3150FE10E909736E10FCB36E10FAA36E10F70B4084D65
S3150FE10EA0D5F828582E698642034606D86C6913444D
S3150FE10EB09C4202D370BC01F0E5BE70BC704700BF27
S3150FE10EC00000E10F37B51446144A936A0D461968C7
S3150FE10ED0134B994220D100F5004310F5004F0193D2
S3150FE10EE01AD2019BB3F5801F16D2019BC3F580136E
S3150FE10EF0A34211D340B9D2F828385A69B2F5004F57
S3150FE10F0002D9186901F082FF01982246294603B0FA
S3150FE10F10BDE8304001F0B6BE03B030BD0000E10FD1
S3150FE10F20AD1007B0F0B5421ED11C85B0034618D8F7
S3150FE10F300D4C6E4604F1100720686168354603C50E
S3150FE10F400834BC422E46F7D104A90F3311F8014DEF
S3150FE10F5012F8010F844204D19A42F7D1012005B06C
S3150FE10F60F0BD0020FBE700BF1137E10FF0B50368D5
S3150FE10F7003F16043B3F5802F9FB004465DD8314A44
S3150FE10F804368D2F8282816699E4256D8B3F5801FD2
S3150FE10F9053D8456B06F14003AB4250D8B5F5801FE8
S3150FE10FA04DD82846FFF7BEFF002848D0284601F066
S3150FE10FB08BFE80B16F6977B1022F0ED1AB69C4F1A8
S3150FE10FC0040119444FF0FF32204600F037FF1E4B64
S3150FE10FD0C31A584258411FB0F0BD40F20463284688
S3150FE10FE00393FFF79FFF0028F5D0012F25D1AD69B8
S3150FE10FF0AE4222D8AC4220D8B5F5801F1DD804A841
S3150FE1100002F073F82A1B214604A802F078F804A827
S3150FE1101002F077F800F06CFF044600F06DFF23460F
S3150FE11020009005F12002294604A800F021FF039064
S3150FE110300398B0FA80F04009CDE70020CBE7012015
S3150FE11040C9E700BF0000E10FE320BBDE08B54FF0B3
S3150FE11050FF3200F0F3FE044B984203D140F2092030
S3150FE1106000F0CEF8002008BDE320BBDE024BD3F83B
S3150FE1107028389868704700BF0000E10F294B01221D
S3150FE1108010B55A6401F0B0FD274B90B94AF6E85214
S3150FE11090C3F89021D3F8982142F00402C3F89821BE
S3150FE110A0C3F89001D3F8642142F40052C3F86421E6
S3150FE110B001E00128F6D01D4A136A23F4441343F4E1
S3150FE110C088131362A2F58042136843F480731360A9
S3150FE110D0154B5B6801F002FE00F070F801F0BCFD04
S3150FE110E001F0BCFD18B14FF4017000F089F8FFF77C
S3150FE110F0EFFC044601F0B4FD1CB140F203739C42D0
S3150FE1110006D140F2012000F07BF84FF4017005E0C3
S3150FE11110A4F20574012CF8D840F2032000F070F820
S3150FE11120002010BD00000E4000300E4000400E4082
S3150FE1113013B501238DF806308DF807301D4B5B682B
S3150FE111405A050AD500F07AF8A0F2022080B20728F4
S3150FE1115003D8C923C340DB0702D400F0BBFA20B1A1
S3150FE1116000238DF806308DF80730002463680133CC
S3150FE1117007D14FF4027000F037F88DF806408DF87D
S3150FE1118007409DF807305BB10020FFF7EFFE8DF8C2
S3150FE1119006009DF806301BB94FF4027000F024F8F3
S3150FE111A09DF8063023B1044B0020986001F09AFDBB
S3150FE111B002B010BD00500E4000ED00E0024B4CF2C4
S3150FE111C03C325A80704700BF00000020054B5B8818
S3150FE111D023F00F034AF6C0309BB21B1A584258410F
S3150FE111E0704700BF00000020044A08B51080FFF7E2
S3150FE111F0EDFF10B94FF20F03538008BD0000002039
S3150FE1120008B5FFF7F1FF0A4A136823F4E06343F4E5
S3150FE1121000731360BFF34F8F0649074BCA6802F499
S3150FE11220E0621343CB60BFF34F8F00BFFDE700BF13
S3150FE1123000500E4000ED00E00400FA05094B5A8814
S3150FE112404FF20F018A4201D1188870473AB91B88CC
S3150FE11250012B40F2022018BF4FF4007070474FF494
S3150FE1126000707047000000201FB5134B1A6842F457
S3150FE1127080121A60D3F8C02042F00102C3F8C020F1
S3150FE1128000F0E4F94FF47A23B0FBF3F00B4B0D22A8
S3150FE11290186000210DF1010002F0A3F901238DF889
S3150FE112A0003007480A2369468DF8023002F070F8DC
S3150FE112B005B05DF804FB00BF00400E40A81000200A
S3150FE112C00080014030B50D4D0D4A2D68536A15FB6F
S3150FE112D000F59CB215FA83F00A4B80B21880A04252
S3150FE112E0094B2CBF002401241C7011B1536A8342B0
S3150FE112F0FCD101235361936130BD00BFA8100020DB
S3150FE1130000800140B0100020B5100020094B0A4AB9
S3150FE11310D868127800F001000AB108B9704738B9F8
S3150FE11320586A064B1B88984234BF0020012070474C
S3150FE113300120704700800140B5100020B010002059
S3150FE11340F8B53D4E3D4A33683D4D3E4803F1340114
S3150FE1135091601C3301216B606B6201F001FB3A482E
S3150FE11360012101F0FDFA01214FF4AA4001F0F8FA4B
S3150FE113707068012101F0F4FA3368344940F6AA6244
S3150FE113800024DA6041F205021C605C665A609C60DB
S3150FE113905C61DC6499645C679C67DC675A601A6818
S3150FE113A01A6000F053F900F5E1434FF4E1125B01E6
S3150FE113B0B3FBF2F3264A203B02EAC3033268214626
S3150FE113C0536120460123042201F010FB01231A4643
S3150FE113D01946204601F00AFB336803279C6704226E
S3150FE113E05F6705210123204601F000FB33680522E3
S3150FE113F0DA60184B4FF0E0621A604FF440221C623C
S3150FE11400DC625C63DC66C3F880200132C3F8884096
S3150FE11410C3F88440C3F89850C3F8B0200E4AC3F816
S3150FE11420B840C3F8B44097620122DA6303F1C063AF
S3150FE1143002229A60F8BD00BF581000204810002024
S3150FE11440081000204041050000350A00F9FF0100B0
S3150FE11450F8FF7F0000200E4000200E44084B986AEB
S3150FE1146010F0020006D003F1806302221A629A623B
S3150FE11470012070471B6A9B07FBD4024B0222F6E75A
S3150FE1148000200E4000200E447F2938B5044615464C
S3150FE1149024D8FFF7E3FF20B3134B2046621890429F
S3150FE114A00DD1124B1A88013961F30E121A80104AC7
S3150FE114B0C2F8C8300223D36335B9002038BD10F81E
S3150FE114C0014B03F8014BEAE7FFF7C8FF0028FBD012
S3150FE114D0084B1A6813699B06FCD5EEE741F2031038
S3150FE114E0ECE741F20620E9E7B610002048100020AC
S3150FE114F000200E405810002008B50146FFF7AEFF59
S3150FE115000028FBD0054B1B681A695006FCD55963B9
S3150FE115101A699206FCD5002008BD00BF58100020BD
S3150FE115200E4B0F4AD3F89430106840F201129342F2
S3150FE1153005D190B10023C0F500701844704740F211
S3150FE115400222934216BF074A4FF480739B1A9842C1
S3150FE1155002D0F0D2181A70470020704700200E40D3
S3150FE11560AC100020361100202DE9F047089D044606
S3150FE115700E461746E3B9FFF7D3FFB04228BF304611
S3150FE115801F4ADFF884C01F490546234620184FF04E
S3150FE11590010E4FF000084FF0020983421AD107B14D
S3150FE115A03D6041F20420AE4298BF0020BDE8F087CE
S3150FE115B02DB1FFF759FE00212846FFF783FEFFF70E
S3150FE115C0AFFFB042D7D2002DF9D0FFF79FFE00282B
S3150FE115D0F5D0D0E714681CF804A003F801AB013489
S3150FE115E0B4F5007F146004D1C2F80080C1F8089009
S3150FE115F0D3E7B4F5807F08BFC1F808E0CDE700BFB8
S3150FE11600AC10002000200E463611002010B10B4B16
S3150FE1161002221A6279B1094A0949012313629362D7
S3150FE1162002F17C420020C2F8981006490860D363A4
S3150FE11630054B02229A600020704700BF00200E443E
S3150FE1164008100020AC10002000200E4630B51B4BD1
S3150FE1165087B001AA03F1100518685968144603C447
S3150FE116600833AB422246F7D11B78154A2370D2F8DD
S3150FE11670943003F00703022B1BD01369C3F3044322
S3150FE11680102B18D818336B440E4913F8143C4B43FF
S3150FE116900D498B4203D11269C2F34162D340084A25
S3150FE116A0D2F80001C0F304200130B3FBF0F007B02C
S3150FE116B030BD064BF3E7064BF1E700BFBC37E10F51
S3150FE116C000400E4040420F0000093D0000F0490284
S3150FE116D0C0EA21011C4AD2F8B03043F0080313B532
S3150FE116E0C2F8B030062101230422052001F07EF96C
S3150FE116F000230093009B632B20DD012302220621A9
S3150FE11700052001F073F900230193019BB3F5FA7FED
S3150FE1171017DB0E4B0022D3F8984106210123052052
S3150FE1172001F064F9084AD2F8B030601E23F00803DD
S3150FE1173018BF0120C2F8B03002B010BD009B0133D3
S3150FE11740D7E7019B0133DFE700400E40002014424B
S3150FE11750074930B5024600230C2505FB03F4601853
S3150FE117600C59944203D001330A2BF6D1002030BD38
S3150FE11770D037E10FF0B587B000230827CDE9013364
S3150FE1178015463B46009704AA044601F0B4FB41F225
S3150FE1179003039842064623D194F8433053B1E06CE4
S3150FE117A03A4604A901F0ABFC04AAA06C3B461146EC
S3150FE117B001F08AFC059A6A6094F84320049B2B603A
S3150FE117C052B9094A934207D0084A934204D0E06CD2
S3150FE117D0082204A901F093FC6B6823650023636576
S3150FE117E0304607B0F0BD00BFF70A0AF7FC0404FC68
S3150FE117F02DE9F04799465B6804460F469046002B64
S3150FE1180041D08B0742D1234B006ED3F828381B69A1
S3150FE1181081181D1DA9421BD31C33984218D2A84229
S3150FE11820024638BF2A46101A3E18C5F1680099429A
S3150FE1183094BFC2EB010AC2EB030A1044314652468A
S3150FE11840204401F0B0FE5246FF21304601F0C9FEB9
S3150FE11850226E48F204039A420CD802EB080048F2D2
S3150FE118600701884206D99B1AFA58C4F880204FF02F
S3150FE11870FF32FA50D9E90035206E42463946A8477C
S3150FE11880236E434423660020BDE8F08741F2020050
S3150FE11890FAE700BF0000E10F2DE9F04FA7B0CDE960
S3150FE118A013239846309F002304460E4615934FF0B7
S3150FE118B00109159A424501D30020C6E094F8463056
S3150FE118C0102BF7D8DFE813F05C00A900A300420064
S3150FE118D0290011018A0129008201290082013E02B4
S3150FE118E0B302110007010802B1020025636D0F2B48
S3150FE118F000F291801023009316AA4023CDE90195BA
S3150FE1190013A9204601F0F7FA0B900B9A41F2030364
S3150FE119109A4200F0D2800B9B3EE04FF0010AD4E9E8
S3150FE1192014539D4277D9ED1ADDE914329B1A94F8D7
S3150FE119304020032D134440F25D81032B00F27181A8
S3150FE1194013A9204601F0B6FA002325E0A54DDFF8ED
S3150FE11950A0A2636D072B00F2D5800823009316AA88
S3150FE119604023CDE9019913A9204601F0C4FA0D9060
S3150FE119700D9A41F203039A4200F0EE800D9B0BE0C4
S3150FE1198016AA13A92046FFF7F5FE0890089B41F228
S3150FE119900302934207D0089B0793079A41F2030389
S3150FE119A09A4286D050E0179A22650022169962650F
S3150FE119B08D4A914240F0E180022284F84620EBE71E
S3150FE119C00823009316AA4023CDE9019513A92046D2
S3150FE119D001F091FA0990099A41F203039A4201D073
S3150FE119E0099BD9E7169B03F07F43B3F1407F05D0FF
S3150FE119F0102384F8463041F20903CDE7179BD90747
S3150FE11A0006D594F8423043F0010384F842300025BD
S3150FE11A10636D072BD4D90123DDE016AA13A920465E
S3150FE11A20FFF7A8FE0A900A9D41F203039D420FD0EC
S3150FE11A300A9D0795079A41F203039A423FF439AF9C
S3150FE11A40079B0BB10023F370079827B0BDE8F08F22
S3150FE11A501698FFF77DFE28B9102384F8463041F238
S3150FE11A600805E6E7437994F890209A4205D91023C1
S3150FE11A7084F8463041F20E05DBE702685B498A429C
S3150FE11A8005D00289D20748BF013384F8903094F824
S3150FE11A904230D9070DD5028994F84330920706D51E
S3150FE11AA03BB1102384F8463041F20105C1E7002B23
S3150FE11AB0F7D0037984F84630BBE7D4F848A000F0B5
S3150FE11AC01FFA8023CDE9000317AA0123022150460D
S3150FE11AD001F0DAFA0AE7226DA2650123002284F802
S3150FE11AE04330E26584F84630E3E600213C2217A84D
S3150FE11AF0169101F076FD0125D4E91432934204D80B
S3150FE11B0084F8465041F2030346E7009316AA4023B1
S3150FE11B10CDE9015513A9204601F0EDF90C900C9A88
S3150FE11B2041F203039A4201D00C9B35E70DF1580CB4
S3150FE11B3006F108030DF1700E624603CA724518608D
S3150FE11B405960944603F10803F6D1106818603378AB
S3150FE11B5043F001033370CFE73378179A43F002036B
S3150FE11B603370169B7360236D083B7362AB6A19681A
S3150FE11B70514505D1DB68934205D0102384F84630F1
S3150FE11B8041F2010308E7042384F8463094F845301F
S3150FE11B9043F0010384F8453000236366D9E6042355
S3150FE11BA0009316AA4023CDE9015513A9204601F06A
S3150FE11BB0A2F90E900E9A41F203039A4201D00E9BBF
S3150FE11BC0EAE6226D169B042A01D923660125636D88
S3150FE11BD0032BE4D9092384F8463093E700236366A0
S3150FE11BE007237FE70000E10FEB17A603F90707F9D4
S3150FE11BF0AD1007B09D423FF6A3AE9D4228BF1D46ED
S3150FE11C00402316AACDE901AA009513A9204601F0B2
S3150FE11C1072F90F900F9A41F203039A420AD00F9B82
S3150FE11C20BAE6402D28BF40259D4228BF1D4625F027
S3150FE11C300305E5E794F84630072B1CD0042DC5F1D3
S3150FE11C40040B059388BF4FF0000B16AB5A46581994
S3150FE11C50FF2101F0C6FC059B092BAB4419D13B468D
S3150FE11C605A4616A92046FFF7C3FD0F900F9B002B8F
S3150FE11C703FF455AED3E7D7F808B0BBF1000FDDD08F
S3150FE11C803B68606E2A4616A9D847636E2B44636696
S3150FE11C9045E6042B7FF443AE737899077FF53FAEA4
S3150FE11CA0FB68002B3FF43BAE626E042A0BD80BEBBD
S3150FE11CB00203062B07D917AB9B1A1A68C4F88420BF
S3150FE11CC04FF0FF321A603B68FD68606E5A4616A9FF
S3150FE11CD0A847636E5B44DAE794F84450002D7FF42E
S3150FE11CE09AAE4023009316AACDE9015513A92046D2
S3150FE11CF001F001F91090109A41F203039A4201D0D3
S3150FE11D00109B49E6E06C01F0FCF9D4F84CA000F029
S3150FE11D10EFF8834600F0F0F85B4600901EAA16A98D
S3150FE11D20504600F0A5F81090109B33B11023F570D3
S3150FE11D3084F8463041F206032EE60123F37084F868
S3150FE11D40443068E600234FF00408CDE9013316AAC3
S3150FE11D504023CDF8008013A9204601F0CCF811906D
S3150FE11D60119A41F203039A4202D0119B07936BE654
S3150FE11D70D4F888202F4B9A4205D0102384F84630A9
S3150FE11D8041F20503F2E70123F37094F84530DA07E0
S3150FE11D9007D5FD682DB13B68424604F18401404603
S3150FE11DA0A84794F845309B0707D5FD682DB1042266
S3150FE11DB03B6804F184011046A847236E73B37D682F
S3150FE11DC065B304F180084FF0FF330422414612A8B0
S3150FE11DD0129301F0F6FB28B13B680422414648F223
S3150FE11DE00400A84704F168090422494612A801F044
S3150FE11DF0E8FB98B1104BD3F82838D3F810801422AA
S3150FE11E00D7E9003504F16C0108F10800A84704226F
S3150FE11E10D7E90035494608EB0200A8470123B3701D
S3150FE11E200C2384F846300023A0E70023F37041F238
S3150FE11E3007000AE6E320BBDE0000E10F10B50A4C0E
S3150FE11E40D4F8B03043F04003C4F8B030074B012467
S3150FE11E501C6001449A605C60884201D1D86910BD6B
S3150FE11E6010F8012B9A61F7E700400E4000C00140E0
S3150FE11E702DE9F041A2B00E46DDF8A08015461F46CA
S3150FE11E80044670B369B362B35BB3B8F1000F28D000
S3150FE11E901548012100F064FD4022002102A801F05E
S3150FE11EA0A0FB394602A801F03EF912AF41460AA856
S3150FE11EB001F039F940220021384601F092FB314613
S3150FE11EC0384601F030F929461AA801F02CF90748EE
S3150FE11ED0009702AB2022214600F0BAFA22B0BDE804
S3150FE11EE0F08140F20160F9E700050A0000000F40BA
S3150FE11EF0004870474A43E00F004870476A43E00FD6
S3150FE11F00004870478642E00F2DE9F04104461D4631
S3150FE11F100F46904600211C22181D01F062FB01239A
S3150FE11F202B6001F02EF94146064604F5807001F06B
S3150FE11F3095F9394604F5827004F5847701F08EF947
S3150FE11F402946384601F08AF9304601F01EF90D4E61
S3150FE11F500D4B0E4A0E490F4823656369DB010BD51D
S3150FE11F6001F00FF929460446384601F07FF920467C
S3150FE11F70BDE8F04101F009B922656165A065E66545
S3150FE11F80EBE700BF3938010039398401D02484FCED
S3150FE11F901C82FED88B1C81A02DE9F04F8DB0044633
S3150FE11FA017460D461E4601F0ECF804F5827805F169
S3150FE11FB0400B81465946404601F050F904F58673C8
S3150FE11FC0184604F5887A3946039301F047F907F184
S3150FE11FD02001504601F042F9484601F0D6F8414A50
S3150FE11FE02265414A62650127404AA265E76501F02C
S3150FE11FF0C8F829460190404601F030F904F5847995
S3150FE1200005F1200211464846029201F027F9594699
S3150FE12010504601F023F9019801F0B7F834492165EB
S3150FE1202034496165A76501F0ACF804F5807B82461A
S3150FE1203006F14001584601F019F904A9484601F0A5
S3150FE1204015F9504601F0A1F801F09BF8039B2946DB
S3150FE120508246184601F002F9504601F096F8264BF2
S3150FE120602365264B63656FF42672A3F5FE231344AE
S3150FE12070A365E76501F085F8029A054611464046E4
S3150FE1208001F0ECF8284601F080F81D4B23651D4B56
S3150FE120906365A76501F075F831460546484601F0D7
S3150FE120A0E5F8284601F071F801F06BF804A9054649
S3150FE120B0404601F0D3F8284601F067F8124B236545
S3150FE120C0124B6365A76501F05CF806F12001044642
S3150FE120D0584601F0CBF8204601F057F80DB0BDE8B0
S3150FE120E0F08F00BF8AD11C81D91C83D11C81E11CE1
S3150FE120F0D01482CB1481E11C8CE11C811C84D91C88
S3150FE12100E014D8141482E11C84D31482D11CE01498
S3150FE121102DE9F041044690B00F46244E0521904635
S3150FE1212001F011F900232360236363630FCE08AD3A
S3150FE121300FC596E80F0085E80F0008AA6B4607F171
S3150FE1214040012046FFF7E0FE01F01BF804F5867625
S3150FE121500546694604F5827001F080F83946304646
S3150FE1216001F07CF807F1200104F5887001F076F8AB
S3150FE12170284601F00AF80E4B23650E4B63650E4BAD
S3150FE12180A3650123E36500F0FCFF08F12001054695
S3150FE1219004F5807001F06AF84146304601F066F8C1
S3150FE121A0284600F0F2FF10B0BDE8F0815438E10F98
S3150FE121B08AD11C81D91C83D11C81E11C2DE9F04FF9
S3150FE121C0A5B01D460446CDE9021205A81C22002141
S3150FE121D001F007FA4FF0010820220021284605F108
S3150FE121E02007CDF8108001F0FCF9202200213846B6
S3150FE121F001F0F7F905F1400318462022002100937B
S3150FE1220001F0EFF90521204601F09DF80023236047
S3150FE1221023636363039BDB69002B4FF0FF060BDB45
S3150FE12220013E09D00399721106F01F0351F82220DE
S3150FE1223008FA03F31342F3D000F0A3FF04F5827318
S3150FE12240394680461846019301F008F8404600F0FA
S3150FE122509CFF734B2365734B6365734BA36500F06B
S3150FE1226090FF04F5807914A98046484600F0FEFFF9
S3150FE12270404600F08AFF00F084FF29468046484633
S3150FE1228000F0ECFF404600F080FF684B2365684B9A
S3150FE1229063654FF48673A36500F073FF04F58678E3
S3150FE122A082460CA9404600F0E1FF1CA9484600F022
S3150FE122B0DDFF504600F069FF00F063FF8246DDE97E
S3150FE122C0001000F0CBFF504600F05FFF594B23653E
S3150FE122D00123636500F055FF04F5847A29468346A9
S3150FE122E0504600F0BBFF584600F04FFF524A2265B9
S3150FE122F002F1D94202F5DE1202F595626265A2F5A7
S3150FE1230086120123A2F2BA42A265E36500F039FF14
S3150FE123101CA98346504600F0A1FF0CA9404600F0E8
S3150FE123209DFF584600F031FF444A2265444A6265F3
S3150FE12330444AA26500F025FF2946834604F58870D5
S3150FE1234000F094FF584600F020FF00F01AFF3946DF
S3150FE123508346019800F082FF5046009900F07EFF18
S3150FE1236014A9404600F07AFF584600F00EFF364AB0
S3150FE123702265364A626500F004FF009982464846B7
S3150FE1238000F074FF3946404600F070FF504600F00A
S3150FE12390FCFE06F01F0101238B407211039951F8E0
S3150FE123A02220134211D0284600F0AEFE38B138464E
S3150FE123B000F0AAFE18B1009800F0A6FE58B9029AED
S3150FE123C02B4629462046FFF7E7FD013EBFF434AF22
S3150FE123D025B0BDE8F08F029BAC4603F1200E1868DD
S3150FE123E05968624603C2083373459446F7D1BC4632
S3150FE123F003F1200E18685968624603C20833734524
S3150FE124009446F7D10DF1100EBEE80F0005F1400C21
S3150FE12410ACE80F009EE80F008CE80F00D5E700BF90
S3150FE124208AD11C81821CC00C0C0C0100C00C0C83E0
S3150FE12430D91C83D88AD11C83DA0C81148CE11CD088
S3150FE124401484E31482D11C01D81483D11CC00C016E
S3150FE124502DE9F04FBBB00F460446002115460AA8F9
S3150FE124606022449E9A4601F0BCF86022002122A820
S3150FE1247001F0B7F8002F00F01981BAF1000F00F063
S3150FE124801581002E00F01281002D40F30F810023FC
S3150FE12490236023636363636843F0100363600C2176
S3150FE124A0204600F050FF6368DFF820E223F4406333
S3150FE124B043F400636360636823F4407343F400738A
S3150FE124C06360BEE80F000DF1A80CACE80F009EE8C3
S3150FE124D00F008CE80F0000F054FE04F58479834673
S3150FE124E03146484604F5867800F0B8FE2AA94046FB
S3150FE124F000F0B4FE584600F048FE6E4A226501230D
S3150FE1250063656369DA0104D440F202603BB0BDE86A
S3150FE12510F08F311F082351F8040F002800F0BE8019
S3150FE1252000F02FFE06F1200B01905946484600F0C8
S3150FE1253095FE2AA9404600F091FE019800F025FE8E
S3150FE1254001235C4A226563656369DB01DCD506F12C
S3150FE125501C02082352F8041F002900F0A380202251
S3150FE12560002132A801F03DF8202DA8BF2025013D1D
S3150FE12570013F25F0030303F594736B4405F0030163
S3150FE1258017F8012FC9008A4053F8601C013D42EA52
S3150FE12590010243F8602CECD200F0F3FD32A90546B7
S3150FE125A0484600F05BFE284600F0EFFD424B2365FF
S3150FE125B000F0E7FD04F58077054632A9384600F0CD
S3150FE125C055FE284600F0E1FD2AAA02AB5946204600
S3150FE125D0FFF79AFC00F0D5FD04F5887B054602A9C5
S3150FE125E004F5827000F03AFE32A9584600F036FE45
S3150FE125F03146404600F032FE284600F0C6FD2F4B2D
S3150FE12600236503F1FA43A3F50063636500F0B9FDB2
S3150FE1261032A90546584600F029FE02A9384600F0D0
S3150FE1262025FE284600F0B1FD25490AAB32AA204620
S3150FE12630FFF7C4FD22AB02AA51462046FFF7BEFDC6
S3150FE126400AAA11462046FFF763FD22AB19460AAAED
S3150FE126502046FFF7A1FC22AA11462046FFF758FDB7
S3150FE1266000F08FFD0C210546204600F06CFE22A9F5
S3150FE12670484600F0F3FD3146404600F0EFFD2846AF
S3150FE1268000F083FD0F4B23650F4B6365636913F011
S3150FE12690807F40F2046018BF002037E7013B7FF4EB
S3150FE126A03AAF31E7013B7FF455AF2DE740F20160D9
S3150FE126B02CE700BF3035DA1030D00C0130E11C8445
S3150FE126C09438E10F3035DA14393801007438E10FF7
S3150FE126D02DE9F34714460D46DDE90A921F46002818
S3150FE126E04DD14CB313683F2B2AD8516851B32549C5
S3150FE126F0002F14BFB846884603F03F061B19136037
S3150FE1270022BF536801335360FEB93F2C0ED9A3099B
S3150FE1271000932A463B464146002000F083F824F019
S3150FE127203F031D4404F03F0434B1002622462946F7
S3150FE1273009EB060000F037FF002002B0BDE8F08795
S3150FE12740B846D9E7DFF83C80D6E7C6F1400A5445EB
S3150FE12750ECD32946524609EB060000F024FF264446
S3150FE12760012300934A463B4641460020A6F1400429
S3150FE1277000F058F83F2C5544D6D9B846C7E702487A
S3150FE12780DBE700BF1439E10F80AFFFFF2DE9F04121
S3150FE12790146886B01E46E3008DF80F3063098DF895
S3150FE127A00E30630B8DF80D30630D8DF80C305368D9
S3150FE127B01746DA0002EB54728DF80B2004F03F0452
S3150FE127C05A09372C8DF80A204FEA53324FEA535301
S3150FE127D005468DF80920CDE9001794BFC4F13802FB
S3150FE127E0C4F1780288468DF808300D49034600207A
S3150FE127F0FFF76EFF08222B46CDE900870DEB0201AD
S3150FE128000020FFF765FF284605F1200350F8042B5A
S3150FE1281046F8042B9842F9D1002006B0BDE8F081C5
S3150FE12820D438E10F2DE9F04F99B005468846924627
S3150FE128301E4600F0E1F90446002D7ED10423036024
S3150FE128404560C5644368694623F440634360A8F174
S3150FE128500402056308F11C034563884652F8040F29
S3150FE1286000BA9A4241F8040BF8D100F08AFC4146CE
S3150FE12870054604F5827000F0F1FC284600F085FC70
S3150FE128802F4B23654FF000090AF00307229B994569
S3150FE1289027D1B30704F5807744D000F072FC4146A7
S3150FE128A00546384600F0E2FC284600F06EFC08AD1E
S3150FE128B03246434603CBAB4210605160984602F174
S3150FE128C00802F6D1204600F0A1F9331F1C3653F862
S3150FE128D0042F12BAB3421A60F9D1002019B0BDE83C
S3150FE128E0F08F0AEB89156FB10DF1200E05F1400B53
S3150FE128F028686968F446ACE8030008355D45E646A5
S3150FE12900F6D108AD00F03DFC2946834604F5D270B9
S3150FE1291000F0B4FC584600F038FC0A4A226509F18A
S3150FE129200109B3E700F02DFC31460546384600F0C4
S3150FE129309DFC284600F029FCC4E76FF07100CDE756
S3150FE12940888AC801070D8101044BD3F84421D207C8
S3150FE1295003D4D3F840211042FBD1704700400E401B
S3150FE1296038B5C0F30323013B092B11D8DFE803F098
S3150FE12970052710102B221D101511154DC0F3043428
S3150FE1298005F1424505F5801504EBC50080000160B0
S3150FE1299038BD104DC0F30434F2E70F4DC0F30434E4
S3150FE129A04FF48030FFF7D0FFEAE7C0F304340B4D65
S3150FE129B01020F7E7C0F30434094D0120F2E7094D82
S3150FE129C0C0F30434DCE7084DC0F30434D8E700BFA5
S3150FE129D000400E4050410E40F0400E40E8400E40A0
S3150FE129E0E0400E40C0400E40B0400E4000EB4000CC
S3150FE129F0F8B50D461F46040116463AB115480123AF
S3150FE12A008B402044C7B100F1C0600360072D4FF042
S3150FE12A100F0114D8AB00104806FA03F2994020448F
S3150FE12A2000F0A7FC3EB90B4A0123AB40224477B134
S3150FE12A3002F1C0621360F8BD00F18060E5E7A5F130
S3150FE12A4008039B00054806FA03F29940E7E702F10E
S3150FE12A508062EFE70CA0004004A0004008A0004010
S3150FE12A60234B41F671311A6C10B5196421494C6843
S3150FE12A704968996841F00101996001211861D960AE
S3150FE12A80D9694C0792B209D5996821F0010199608C
S3150FE12A900AB100221A644FF0FF3010BD0221D9604E
S3150FE12AA01549D869C00700D569B9D86910F0020090
S3150FE12AB00BD0996821F0010199600AB100221A64DD
S3150FE12AC06FF00100E9E70139EBE741B9986820F0CA
S3150FE12AD00100986002B119646FF00200DDE79968B1
S3150FE12AE021F0010199600AB90020D6E71864FBE7E6
S3150FE12AF000000E4000300E40809698002DE9F04F11
S3150FE12B0002F16044B4F5802F03D94FF0FF30BDE8F1
S3150FE12B10F08FDFF8C8C0DFF8C890DFF8C88030263D
S3150FE12B2006FB00C64FF44014C6F880400024C6F8F1
S3150FE12B308440C6F88840C6F89840264C41F6713570
S3150FE12B40D4F840A02564A5684FF0010E45F00105C4
S3150FE12B50A5600EFA00F053B90422E260A26822F0F2
S3150FE12B600102A2601FFA8AF28ABB0020CFE701F5C4
S3150FE12B700065216105EA0905C4F80CE06D1AD4F880
S3150FE12B801CB09D4228BF1D461BF0040F4FEA950767
S3150FE12B90BBD1013F3F0147F06057C6F88C700E4F2E
S3150FE12BA0C6F89020C6F89470DCF820700743CCF88D
S3150FE12BB020701027E760DCF828703842FBD0C8F8A0
S3150FE12BC028002944C8F820002A445B1BC3E7236485
S3150FE12BD0CBE700BF00000E4018000E4000200E406C
S3150FE12BE000F8FFFF00200E44024BD3F8FC00000E65
S3150FE12BF0704700BF0081E00F024B03480122C3F883
S3150FE12C00002670470010C84300000F40094B984259
S3150FE12C100ED003F58063984209D10122064B03EBEF
S3150FE12C20C2035A68054B13449B0000221A60704792
S3150FE12C300022F3E700000F403439E10F8005F2106F
S3150FE12C40FEE708B5FDF7CEFEFEF772FAFDF7A4FE35
S3150FE12C50FDF7B6FEFEF712FA00F012B8FDF740BF28
S3150FE12C60704710B50446FEF747FC182C07D12046EE
S3150FE12C70FEF742FC2046BDE81040FEF73DBC10BD15
S3150FE12C80FEF75EBBC0F30A032DE9F04105460F4699
S3150FE12C9016460BB900F0BAF805F5006424F4FF64A3
S3150FE12CA024F0070405EB0608A04507D83246394656
S3150FE12CB028460223BDE8F04100F0AFB8204600F008
S3150FE12CC0A5F804F50064EFE7036913F0FE0F0CBFF7
S3150FE12CD00120002070474FF40040704700207047F5
S3150FE12CE00020704703461846016881F3088881F38F
S3150FE12CF0098840688746FEE74FF40170FEF780BA10
S3150FE12D00B1F5BE7F10B504460FD34FF4BE72002165
S3150FE12D1000F067FC04F5827204F1BC0104F12800AE
S3150FE12D200023BDE8104000F067B940F2052010BD61
S3150FE12D3013B50446009101462830FEF7ADFDC4F800
S3150FE12D40780118B141F20703984204D1A37823B170
S3150FE12D50E07800F2022002B010BD40F20120FAE75E
S3150FE12D602DE9F04387B00DF108090446DDF8388007
S3150FE12D700E4617460021102248461D4600F031FC4B
S3150FE12D800021C8F800101C22284600F02AFC324622
S3150FE12D903B46CDF80090214604F12800FEF77CFD75
S3150FE12DA023789A0744BF6268C8F80020DB0709D584
S3150FE12DB004F1080304F1240253F8041B45F8041B3C
S3150FE12DC09342F9D12378002B40F2064018BF002039
S3150FE12DD007B0BDE8F0834FF4BE70704713B50446F4
S3150FE12DE00B461046A20753BF6FEA03434FF6FF7236
S3150FE12DF042EA03436FEA13430193042324F00301E9
S3150FE12E000DEB0302FFF77AFE02B010BD08B5FFF72F
S3150FE12E1027FEB0FA80F0400908BD072B2DE9F041F6
S3150FE12E2005460E4614461F4602D90020BDE8F0813D
S3150FE12E3001214FF4AA40FFF793FD0CB90120F5E705
S3150FE12E4044EA0503DA07F0D4AB0726D531883A46CB
S3150FE12E502846FFF7C3FF0028E7D1023C032C05F113
S3150FE12E60020506F102060DD924F003084346324660
S3150FE12E7029463846FFF742FE0028D6D14644454457
S3150FE12E80A4EB0804002CD9D031883A462846FFF73F
S3150FE12E90A5FFB0FA80F04009C8E7032CE4D8F3E7C1
S3150FE12EA007B50123009100221946FEF75DFB03B03A
S3150FE12EB05DF804FB70B5D1E90152AA4205D290F84B
S3150FE12EC040302B449B1A402B10D9002012E00A68A0
S3150FE12ED090F84040D65C90F84120224402F03F0240
S3150FE12EE00133013486548B6080F840408B689D42F4
S3150FE12EF0EDD8012070BD2DE9F84317469E46D1E97D
S3150FE12F00012390F840C0089D9DF824909DF82880F4
S3150FE12F10D21A6244954204460E460AD9FFF7CAFF12
S3150FE12F20002867D1102384F8463041F20200BDE84C
S3150FE12F30F883754555D8002394F840200AB19D4290
S3150FE12F4035D1D6E90121914201D29D4241D89D4227
S3150FE12F504DD1D4F8882029463846FEF76FFFC4F8DD
S3150FE12F608800B9F1000F04D0E06C2A46394600F02B
S3150FE12F70C6F894F84330B8F1000F06D08BB1A06CC8
S3150FE12F802B463A46394600F09FF894F8433043B161
S3150FE12F90E36DA26D2B449342E36524BF002384F8CE
S3150FE12FA04330636D2B44636541F20300BFE794F849
S3150FE12FB04120A25CFA5494F84120013202F03F021B
S3150FE12FC084F8412094F84020013A84F840200133F7
S3150FE12FD0B2E73268525CFA54B2680132B260013339
S3150FE12FE0AFE741F20100102384F846309FE741F243
S3150FE12FF00200F8E700209AE72DE9F04103F02003FC
S3150FE13000002504464FF0FF38C0E918550F4616461E
S3150FE13010A0F8405080F84350A0F8445080F846504D
S3150FE1302080F84230C0F888801822FF21683000F01E
S3150FE13030D8FAC4E91276C4F88080C4F8848084F89B
S3150FE13040905016B1304600F050F80020BDE8F081FF
S3150FE1305049BA89B24840C0F30312424013B283EA38
S3150FE130600233580100F4FF509BB25840704738B510
S3150FE13070044645181046AC4200D138BD014614F856
S3150FE13080010BFFF7E5FFF6E7F8B5044616461D46D1
S3150FE130900F4600F0AEF9DDE90612204600F0ADF974
S3150FE130A00023636284F838703368C4F83930736883
S3150FE130B0C4F83D30B368C4F841302B0C6DBA84F8CF
S3150FE130C04530A4F84650F8BD30B585B00D461946E2
S3150FE130D000F12803CDE90152009300F1240200F13A
S3150FE130E0380300F0A8F905B030BD10B5044600F07D
S3150FE130F02BF820460021BDE8104000F029B800F07A
S3150FE131002CB8014600F036B8036853B91C2350F8C2
S3150FE13110042F0AB9043BFAD1002BCCBF00200120C2
S3150FE1312070470020704738B5202204460D4600212E
S3150FE1313000F057FA05F12003601E13F8012D00F890
S3150FE13140012FAB42F9D138BD6822002100F049BA0F
S3150FE1315003460020C3E90000704707B500F12803D5
S3150FE131600190009300F108030020FFF7B1FA03B0D5
S3150FE131705DF804FB02460B4600F128010830FFF724
S3150FE1318005BBEFF3108072B6704700B962B67047B0
S3150FE1319084B00B6800934B6801938B680293CB68FD
S3150FE131A00393009B0360019B0360029B0360039BF8
S3150FE131B003600023009301930293039304B07047D6
S3150FE131C030B5D1E90223D1E900540560046002600C
S3150FE131D0036030BD30B50568046802680368C1E96C
S3150FE131E00054C1E9022330BD7FB58A0704460B4679
S3150FE131F010D06D4601F11006186859682A4603C2C8
S3150FE132000833B3421546F7D169462046FFF7D8FF93
S3150FE1321004B070BD0091009904B0BDE87040FFF7AE
S3150FE13220CFBF30B58B0785B00C4610D06946FFF797
S3150FE13230D1FF0D46234604AC2A4603CAA2421860C3
S3150FE132405960154603F10803F6D105B030BD00917B
S3150FE13250009905B0BDE83040FFF7BCBF10B5FFF7E9
S3150FE13260AFFFBDE810401031FFF7AABF10B5FFF76A
S3150FE13270B1FFBDE810401031FFF7ACBF10B5FFF756
S3150FE132809FFF0C461031FFF79BFF04F12001FFF77B
S3150FE1329097FF04F13001BDE81040FFF791BF00F150
S3150FE132A0424303F58013102A10B54FEA43130AD1AF
S3150FE132B001221A6000F58870FFF76AFF1031BDE849
S3150FE132C01040FFF765BF00221A602430F7E7F0B52B
S3150FE132D00B46990789B0044615462DD0082A19D110
S3150FE132E06D4603F11006186859682A4603C208337A
S3150FE132F0B3421546F7D1082269462046FFF7CFFFBD
S3150FE1330003226B460020013A186003F10403FAD257
S3150FE1331009B0F0BD6E4603F12007186859683246C9
S3150FE1332003C20833BB421646F7D12A466946204601
S3150FE13330FFF7B5FF0722E4E70093009909B0BDE86F
S3150FE13340F040FFF7ACBF436823F01F030E290BD8FC
S3150FE13350DFE801F008080808080B0B0B0808080856
S3150FE133600B0B0B00194341607047194341F01001F4
S3150FE13370F9E770B505460E461446FFF702FF2B68CF
S3150FE133805C4034405C402C60BDE87040FFF7FDBE09
S3150FE133900A7810B50AB90223436000234362CB785A
S3150FE133A08C781B0443EA04634C7A2343CC7943EAD2
S3150FE133B084230C7A43EA04234C7843EA84138C7A08
S3150FE133C043EAC413CC7A43EA44130C7B43EA04136E
S3150FE133D04C7B43EAC4030C7943EA44334C7989794C
S3150FE133E043EA047343EA417303600AB1012343607D
S3150FE133F010BD2422002100F0F4B870B515460E4633
S3150FE1340024220021044600F0ECF8C02D0DD0B5F5CD
S3150FE13410807F01D0802D0BD12046EA0840F8045B6E
S3150FE13420314600F0C0F8002070BD6FF07100FBE788
S3150FE134306FF01F00F8E72DE9F04F87B08B4602904A
S3150FE13440039390467AB11568029B1B68802B0CD1CA
S3150FE1345000265E450FD3B8F1000F40F0A1800020A2
S3150FE1346007B0BDE8F08F1546EEE7B3F5807FEFD0F5
S3150FE134706FF02000F4E75DB1119B109A9B5D525DF1
S3150FE134805340129A0135935505F00F050136E0E7E2
S3150FE13490FFF7B2FB4FF44043456003600446FFF785
S3150FE134A070FE029951F8043B802B074614BF102298
S3150FE134B008222046FFF70BFF04F184031846039910
S3150FE134C00193FFF791FE3846FFF75FFE119BABEBDA
S3150FE134D0060703EB0609129B27F00F0703EB060A14
S3150FE134E009EB07030593059989454FF005034FF05E
S3150FE134F0030219D1119B3744DE19129B1F44119B0D
S3150FE1350003EB0B0A032356452AD1FFF73AFE03993C
S3150FE1351006460198FFF785FE3046FFF736FE204651
S3150FE13520FFF774FB5E4694E74821A160A36021692A
S3150FE135308907FCD4A260FFF724FE4946049004F103
S3150FE13540A000FFF751FE514604F18000FFF769FE37
S3150FE135500498FFF71AFE09F110090AF1100AC2E7FA
S3150FE135609DB94822A2600522A26022699207FCD486
S3150FE13570A360FFF706FE1099814604F18000FFF77D
S3150FE1358050FE4846FFF701FE0323109916F8012B6B
S3150FE13590495D01354A4007F8012B05F00F05B2E702
S3150FE135A0C8F800505BE70A44914200F1FF3300D1BE
S3150FE135B0704710B511F8014B03F8014F9142F9D15C
S3150FE135C010BD10B501390244904201D1002005E04A
S3150FE135D0037811F8014FA34201D0181B10BD01303A
S3150FE135E0F2E702440346934200D1704703F8011B09
S3150FE135F0F9E70000000000000000000000000000F5
S3150FE13600F8B500BFF8BC08BC9E467047F8B500BFD9
S3150FE13610F8BC08BC9E4670470000000000000000A1
S3150FE1362000000000000000000000000000000000A4
S3150FE136300000000000000000000000000000000094
S3150FE13640000000009D0EE10F00000000C50EE10F26
S3150FE136500D0A4765636B6F20426F6F746C6F616420
S3150FE1366065722076582E59592E5A5A0D0A312E2047
S3150FE1367075706C6F61642067626C0D0A322E207271
S3150FE13680756E0D0A332E2065626C20696E666F0DBD
S3150FE136900A424C203E20000D0A4661696C656420A2
S3150FE136A0746F20626F6F740D0A000D0A66696C659F
S3150FE136B0206572726F72203078000D0A626C6F634B
S3150FE136C06B206572726F72203078000D0A53657246
S3150FE136D069616C2075706C6F61642061626F7274E1
S3150FE136E065640D0A000D0A53657269616C20757088
S3150FE136F06C6F616420636F6D706C6574650D0A00A4
S3150FE137000D0A626567696E2075706C6F61640D0AEB
S3150FE1371000B814B6F1E0CFF3ADB7DD25C9FA79B745
S3150FE137201300000013B779FAC925DDB7ADF3CFE082
S3150FE13730F1B614B80102000002000000B039E10F42
S3150FE13740400000000200040200000000000000003B
S3150FE137500000000000000000000000000000000073
S3150FE137600000000000000000000000000000000063
S3150FE137700000000007B0CD5E020000000200040267
S3150FE13780B43100000000000000001000F00010004E
S3150FE13790DD2CE10FE12CE10F6D0FE10F012DE10FB3
S3150FE137A0312DE10F00000000612DE10FD72DE10F63
S3150FE137B00000000000000000D72CE10F0400000715
S3150FE137C000000D1013001A20263038404800000083
S3150FE137D0EB17A6030201000003000000FA0606FA42
S3150FE137E00D04000003000000F40A0AF405050000C9
S3150FE137F001000000F50909F50307000001000000CB
S3150FE13800F60808F60608000000000000FE0101FEBA
S3150FE138100808000000000000FD0303FD0A08000090
S3150FE1382000000000F90707F90E0900000200000089
S3150FE13830F70A0AF70F0B000003000000FC0404FC73
S3150FE138400B0C000003000000200000000001000047
S3150FE13850050C0000FFFFFFFFFFFFFFFFFFFFFFFF6D
S3150FE138600000000000000000000000000100000061
S3150FE13870FFFFFFFF512563FCC2CAB9F3849E17A769
S3150FE13880ADFAE6BCFFFFFFFFFFFFFFFF0000000001
S3150FE13890FFFFFFFF96C298D84539A1F4A033EB2D70
S3150FE138A0817D0377F240A463E5E6BCF847422CE15C
S3150FE138B0F2D1176BF551BF376840B6CBCE5E316BA0
S3150FE138C05733CE2B169E0F7C4AEBE78E9B7F1AFE64
S3150FE138D0E242E34F8000000000000000000000001C
S3150FE138E000000000000000000000000000000000E2
S3150FE138F000000000000000000000000000000000D2
S3150FE1390000000000000000000000000000000000C1
S3150FE13910000000006A09E667BB67AE853C6EF3728D
S3150FE13920A54FF53A510E527F9B05688C1F83D9AB94
S3150FE139305BE0CD1900000F400000000000040F40CE
S3150FE13940010000005039E10F0810002018000000B7
S3150FE13950F00F1003000000003611002013000000E5
S3150FE139600900000000010000020200001300000040
S3150FE13970F00F1003000000003612002013000000C4
S3150FE13980090000000002000001010000D3FFFFFF64
S3150FE13990F07F1030B610002000000000000000009C
S3150FE139A000000140004204007509E10F4D09E10FE6
S3090FE139B0B6A349E09B
S503037E7B
S70500000000FA
