S00E00005A334C696768742E73333761
S214000000001000209D19000001610000056100003D
S2140000106F5F030009610000116100006F5F03005D
S2140000206F5F03006F5F03006F5F03006F5F030087
S21400003015610000C47E04006F5F03006F5F03005D
S2140000406F5F03006DBA01006F5F03006F5F030010
S214000050ADB201000FC403000BC403008DBA01004B
S21400006003C4030029210000892200006F5F0300FB
S214000070891100003D5503006F5F03006F5F0300AA
S2140000806F5F03006F5F0300A52200006F5F030031
S2140000906F5F03006F5F03006F5F03006F5F030017
S2140000A06F5F03006F5F03006F5F03006F5F030007
S2140000B0C1BA010007C403004D730000FDBA010079
S2140000C06F5F030025DE01006F5F03006F5F0300B4
S2140000D06F5F03006F5F03006F5F03006F5F0300D7
S2140000E06F5F03006F5F03006F5F03006F5F0300C7
S2140000F06F5F03006F5F03006F5F03006F5F0300B7
S2140001006F5F03006F5F03006F5F03000000000077
S214000110013800D0FCE770472DE9F04FC9B00DF16B
S2140001201B094FF0FD0B08AFCDF80C90CDF808B0CA
S21400013001979A469DF85031059303890093837979
S21400014004460E46904641888288407814F044FA69
S214000150054650B10090A38862883B49002014F001
S214000160A1FD284649B0BDE8F08F99F8000039F0A7
S214000170BFFA38B12846A3886288344914F092FD45
S2140001808D25EEE75A4699F80000394639F07FFA91
S2140001908346002851D0529B1BB1BDF84C31984283
S2140001A04BD899F80090A9F141020023012A079341
S2140001B05FFA8BF123D80139254ADFF89CC05FFA35
S2140001C081FE3846734513DB059B07920421C3B9AD
S2140001D007AF2048182202FB06049FED197B204635
S2140001E00A460830394684ED027B3FF05BFF11E09B
S2140001F010F8011F51400CFB01F20133E2E7059BAA
S21400020033B1009623464A4638460FF069FBA8E706
S2140002100829DED9B8F1000F01D088F80090BAF1AD
S214000220000F01D0AAF800B0529B002B99D05A4676
S21400023008A918463FF036FF93E7012591E700BF6F
S2140002400000000000000000CFBE040000BF040055
S214000250C59D1C815017002093010001000000007E
S2140002602DE9F04F93B0CDE90A329DED1C7BDDE918
S2140002701E530E9353EC172BCDE908011046194672
S2140002808DED067B209E34F0E7FC80B1DDE90601AB
S214000290C94B4FF0FF3234F007FD40B9DDE90601E7
S2140002A04FF0FF326FF4801334F0E0FC80B10E9B09
S2140002B02096CDE91E539DED067BDDE90A32DDE989
S2140002C008018DED1C7B13B0BDE8F04F00F08CB933
S2140002D0DDE906010022002334F0C8FC002800F007
S2140002E03681DDE906A303F1004BCBF30A5016F482
S2140002F08063A0F2FF3008BF06250F9334F0DAF9CA
S2140003009DA3D3E9002334F03FFA9DA3D3E900234D
S21400031034F084F8CBF31304894644F07F518046CA
S214000320A64B0022504641F4401134F075F896A3CF
S214000330D3E9002334F028FA02460B4640464946E5
S21400034034F06CF834F0BAFC044634F0B3F990A3F9
S214000350D3E900238046894634F016FA984B0022EB
S21400036034F05CF834F0AAFC8BA3D3E900230746EC
S2140003704946404634F008FA80463846894634F006
S21400038099F987A3D3E9002334F0FEF902460B4619
S2140003904046494634F040F802460B46CDE90C2369
S2140003A034F0F2F9DDE90C238046894610461946FA
S2140003B034F034F8834BCDE910010022404649461C
S2140003C034F00CFB804B002234F028F802460B4633
S2140003D04046494634F002FB7C4B002234F01EF8BF
S2140003E002460B464046494634F0F8FADDE90C234F
S2140003F08046894600204FF0804134F00DF80246D2
S2140004000B464046494634F009F802460B46DDE9FD
S214000410100134F0E3FA07F2FF376D4B002233F099
S214000420FDFF00223B0534F0AFF952465B4680469E
S214000430894634F039FC002840F08C80CDE90C89E0
S21400044004F16303C72B34BF0427052731051ED5E7
S21400045055A3D3E900235046594634F01BFC002828
S21400046000F0828052A3D3E900235046594634F068
S214000470FDFB002878D0A542C8BF2C1B4FF0000714
S214000480CCBF04F1FF35002546F480663C460E9B43
S2140004909F4234BFA3EB07084FF0000816F002098E
S2140004A003D0002F18BF4FF000083CB15046594605
S2140004B0DDE90C2334F092FA82468B46DDE906012C
S2140004C00022002334F0D2FB10B10BF100439B4610
S2140004D026F40063CDE90383CDE900ABDDE90A32FB
S2140004E0DDE90801029500F07FF802465FB316F0DA
S2140004F0200F00F10105DDE909130CBF652045203A
S214000500089EB0470523059300220A23002CCDE958
S214000510023207F1FF374FEAD473B8BF6442019343
S2140005202A46DDE908010A9B049700943BF06DF823
S2140005300246B9F1000F06D00B9BC41A0B9B1A1982
S2140005400E9BA34246D8104613B0BDE8F08FDDE9F7
S21400055006ABCAE61C4B00224046494634F03EFA3B
S214000560013CCDE90C016BE7002D90D00F9B002BD2
S2140005708DD0013D8BE700BFFB799F501344D33FDE
S214000580B3C8608B288AC63F61436F63A787D23F94
S21400059071A379094F930A401655B5BBB16B02405B
S2140005A0EF39FAFE422EE63F2D431CEBE2361A3FA9
S2140005B00000000080842E41FFFFEF7F0000F83F20
S2140005C00000E03F00002C400000244000001840DF
S2140005D00000F03FDDE90913089D2020A8470134FC
S2140005E0ACE700BF000000002DE9F04F97B0DDE952
S2140005F020ABCDE90501CDE90723504652465B46C0
S2140006005946DDE92257249E34F026FB70B90323B1
S214000610CDE922762193B44B2093DDE90501DDE98F
S214000620072317B0BDE8F04F3AF00FBF4FF0FF3288
S2140006306FF480135046594634F018FB28B1042353
S2140006402193CDE92276A94BE6E7A94B4FF0FF327E
S2140006505046594634F028FB68B1A64A06F0040313
S214000660002B08BF0322A44B1CBF13460422CDE96F
S21400067022762192D0E798A3D3E900235046594624
S21400068034F012FB38B996A3D3E9002350465946F6
S21400069034F0ECFA68B1DDE90723DDE90501CDE9C0
S2140006A02376CDE920AB229517B0BDE8F04FFFF7D3
S2140006B0D7BD002200235046594634F0D7FA00280A
S2140006C000F09A805B4652460020002133F0A4FEDC
S2140006D0012382468B46099316F4806400F08E80D0
S2140006E0092D40F28E800EABA5F1090200243021C0
S2140006F00134202C03F8011BA5EB040901D0944219
S214000700F6D15946504634F0D9FA7C4B03EBC90370
S21400071093ED007B05468DED0A7B33F0CBFF02465A
S2140007200B465046594633F077FEDDE90A2334F08F
S2140007302BF802460B46CDE90C2334F0E7FA804648
S21400074033F0A8FF02460B46DDE90C0133F064FEE9
S21400075002460B46CDE90C23694B002234F0A4FA7E
S214000760002851D008F10108404633F093FF0246B6
S2140007700B46DDE90A0134F083FA10B101354FF07B
S2140007800008B9F1000F50D1284633F093FF024617
S2140007900B465046594633F03FFE594B00228046E2
S2140007A0894634F063FA30B1554B0022404649463C
S2140007B034F07AFA10B1E80700D501350EAB1A19F5
S2140007C00A21202C0AD095FBF1F001FB105530359C
S2140007D002F8015B013405460028F2D106F0030258
S2140007E0012A5FD1002F5DD0099A12B916F00C0FBE
S2140007F000D0013F302244E009906DE74FF0060933
S2140008007FE7A94600247CE7DDE90C013C4B00228B
S21400081034F02CFA0028B4D1B8F1000F02D018F04A
S214000820010FAED008F10108ABE70EAB23440A2156
S214000830202C0DD0B8FBF1F001FB10823032B8F15D
S214000840090F03F8012B09F1FF3904F1010411D84F
S214000850A1440EAA3021202CB0D0A14504F10103FA
S2140008600AD11C4609F158030DEB03092E2309F89B
S214000870203CA3E78046DBE7A1541C46EBE71A556D
S2140008800134A7420ED9202CF9D1CDE90034CDE9A8
S2140008900276DDE90723DDE905013AF0D6FD17B05B
S2140008A0BDE8F08F202CF0D0099A3AB104F1580236
S2140008B06A442D2102F8201C0134E6E7710704D5AE
S2140008C004F158026A442B21F4E73207DDD504F11F
S2140008D058026A442021EDE70000000065CDCD41B6
S2140008E00000000065CDCDC195EC040099EC040035
S2140008F0FFFFEF7F8CEC040091EC0400A0EC0400FA
S2140009000000E03F0000000070B58EB02C220021F1
S21400091003A83FF019FC64234FF00232CDE905230B
S21400092008930B238DF83430514B1B880121D807D0
S2140009308DF8101000F1968008461EF093FE4D4B81
S2140009404D494E484E4C0A221A704FF42873ADF8A3
S21400095012301CF035FD206020B94A4840F25B2179
S21400096005F0CCFA206805213BF09BFF20B14548F6
S21400097040F26B2105F0C2FA206800F011FC424BF1
S214000980206819683BF0C6FB1FF04EFD0C25684337
S21400099009901FF049FD684307900DEB050120689C
S2140009A018F05CF820B137484FF4207105F0A6FA2D
S2140009B03649206800223BF038FC20B1314840F22E
S2140009C0822105F09BFA324E324D96F9000040F235
S2140009D003532B807F284FF00503AB7001D11EF028
S2140009E09FFF3378EB701FF01FFD00EB8000800048
S2140009F0A8801FF019FD0023C000E880AB604FF010
S214000A00FF3019A3D3E900234FF0FF311EF0E6FFB5
S214000A10214920683CF01AF8206802A93BF0DFFB69
S214000A2020B1184840F2BB2105F068FA042220687D
S214000A300DEB02013BF05CFB042804D0114840F2A9
S214000A40BE2105F05BFA01A901203CF038FB05F059
S214000A509BFB01201FF086FF35F0D6FD1FF0ACFF94
S214000A601EF084FE0EB070BD0A0020FF4203000098
S214000A70B2490020A25400208DF601000813002081
S214000A800C400020200B050008110020B054002068
S214000A90B0160020004000202DF801000348044B4B
S214000AA0834202D0034B03B118477047001700205B
S214000AB000170020000000000548064B1B1AD90F3F
S214000AC001EBA301491002D0034B03B1184770474E
S214000AD000170020001700200000000010B5064C8C
S214000AE0237843B9FFF7DAFF044B13B10448AFF39A
S214000AF000800123237010BD3A4A00200000000049
S214000B002C0F050008B5054B1BB105490548AFF38A
S214000B100080BDE80840FFF7CFBF00BF0000000020
S214000B20401B00202C0F0500A3F5803A704700BF3D
S214000B30174B002B08BF134B9D46FFF7F5FF002110
S214000B408B460F461348144A121A3FF0FDFA0E4B16
S214000B50002B00D098470D4B002B00D09847002064
S214000B60002104000D000D48002802D00C48AFF309
S214000B70008034F017FC2000290034F0A0FC34F08C
S214000B805DFA00BF00000800000000000000000042
S214000B9000100020001700202C5500200000000048
S214000BA000000000094A904208B506D135F026FA42
S214000BB0012801D1064B187008BD064A9042FBD1A9
S214000BC035F01CFA0128F7D1034BF4E7BC640400A7
S214000BD03C4A0020A46404003B4A002008B50B4BA6
S214000BE01A7832B100200A49187014F05BF800F049
S214000BF0C5F8084B1A7842B100200749187014F05F
S214000C0051F8BDE8084000F0EDB808BD3C4A0020A9
S214000C10C00104003B4A0020DD01040013B538F093
S214000C20C9FC02281BD10F4C01200AF05BFB23787D
S214000C3005210246009101330B49002014F032F8DA
S214000C4023780133DBB2042B237008D8074843F619
S214000C509822FF2102B0BDE8104036F066BE02B012
S214000C6010BD00BF3D4A002004020400581B0020AF
S214000C7010B538F09FFC022803D10B4B00221A70E7
S214000C8010BD0DF09FFF094904460246002014F0EF
S214000C9009F8002CF4D0BDE81040054842F2107266
S214000CA0FF2136F042BE00BF3F4A00203A02040051
S214000CB0781B002008B5074B1B7853B1064835F063
S214000CC030FABDE8084005484FF4FA72FF2136F0C6
S214000CD02CBE08BD3F4A0020EC640400981B002090
S214000CE013B5FF241C4A1D4800942346002108F033
S214000CF0FFFE1B4A1B4800942346002108F0F8FE1E
S214000D00194A1A4800942346002108F0F1FE38F0EC
S214000D1051FC022816480DD135F0FDF9154B134845
S214000D2000221A70214640F6B83202B0BDE81040E4
S214000D3036F0FBBD35F0F2F90F4B0A4801221A7067
S214000D40214640F6B83236F0F0FD0448214602B09F
S214000D50BDE8104036F0F2BDB50C0000981B002030
S214000D60710C0000781B00201D0C0000581B002092
S214000D70EC6404003D4A00203F4A002008B538F0E5
S214000D8019FC02280BD1114B01221A703DF076F99E
S214000D90BDE8084002460E49002013F083BF38F035
S214000DA009FC0128EFD00B4B0B4801221A7035F0D6
S214000DB0B5F90A48FF2140F6B83236F0B6FDBDE870
S214000DC008400748FF2136F0B9BD00BF3E4A002064
S214000DD0580204003F4A0020EC640400781B002000
S214000DE0981B0020034B04480022FF211A7036F09F
S214000DF0A5BD00BF3D4A0020581B002010B5024686
S214000E0004461C49002013F04DFF902C17D11A4BB6
S214000E101A480024FF211C7036F098FDFF21184860
S214000E2036F094FD174835F076F9174B17481C70C6
S214000E30BDE8104040F6B832FF2136F076BD912C62
S214000E4016D1104835F06AF9114B1A7882B1002293
S214000E501A70094B0A4801221A70FF2140F6B83270
S214000E6036F063FDBDE810400448FF2136F066BD4D
S214000E7010BD00BF770204003F4A0020981B0020E8
S214000E80781B0020EC6404003D4A0020581B00201C
S214000E903E4A002010B5024604460749002013F0DB
S214000EA001FF3CB1BDE81040044842F21072FF2139
S214000EB036F03BBD10BD00BF90020400781B00203A
S214000EC030B5062985B014D19AB9402B11D101232B
S214000ED000930DF10F0338F0FCFF044648B99DF867
S214000EE00F5007483DB135F016F90649204613F075
S214000EF0D9FE05B030BD35F011F903492846F6E7AE
S214000F00D4640400B1020400BB0204001FB5012330
S214000F100022009306210DF10F038DF80F2038F004
S214000F20D8FF28B99DF80F30044823B135F0F3F800
S214000F3005B05DF804FB35F0F1F8F9E7D464040079
S214000F4008B5FFF7CDFE34F0B5FA38F033FBBDE850
S214000F50084002460149002013F0A4BEC602040061
S214000F6030B50A4C0A4B22680A4D1A6085B00A4B07
S214000F702B600A4B019304F013FA2B68029001A928
S214000F802068039335F035FD05B030BDA410002071
S214000F90942900209029002098100020A9630400BE
S214000FA0014B186835F039BDA410002038B5084D3F
S214000FB004F0F6F92B680446D3F8B00204F0E4F91E
S214000FC0286835F03DFD2046BDE8384004F0DCB921
S214000FD0A410002038B501F0CDFD0E480E4C0121BE
S214000FE001F052FA01221146002001F027FD0225E9
S214000FF001221146C4F88050002001F01FFD012296
S214001000C4F884501146002001F018FDC4F888503A
S214001010002038BD30253E0000400E4008B5224B6B
S21400102001225A6402F084FDA0B9204B4AF6E85229
S214001030C3F89021D3F8982142F00402C3F898210F
S214001040C3F89001194AD2F8643143F40053C2F849
S214001050643101E00128F5D0154A136A23F44413DD
S21400106043F488131362A2F58042136843F4807336
S214001070136004F06BF900F0EDFB04F005F904F0E2
S21400108051F904F017F9FFF7A5FF36F03DF800F028
S214001090D3FB00F01DFD04F067FC01F011F9BDE87C
S2140010A0084005F0BFBA00BF00000E4000300E40FA
S2140010B000400E4030B5204D0FCD97B00FAC0FC49A
S2140010C095E807001D4B84E807001D4ACDE9032379
S2140010D04FF08073059303F1022306934FF0F0510F
S2140010E01E23CDE907130E2200210DF12E003FF03E
S2140010F02BF8144B4FF44020CDE909030C238DF850
S2140011002C300D238DF82D300F4B0C9320230D9390
S21400111001238DF839300D4B00930FAA03AB09A9B4
S2140011200B4804F04DFB002104464FF4E13034F048
S21400113010FF204617B030BD88640400004204004B
S214001140000001401C000140404A0020741E0020A0
S214001150C81E0020012905D8034B1B68186808B173
S214001160436A1847704700BFA810002008B5044916
S214001170044805F005FBBDE80840FFF79BBF00BF2D
S214001180AC100020EC1E0020014836F053B900BF1A
S214001190C81E0020014B1A6A18681047C81E002097
S2140011A008B517F089FC024B00221A7008BD00BF74
S2140011B0604A002008B5044834F01BFFBDE808402C
S2140011C0024834F016BF00BFBC640400A4640400E8
S2140011D008B5044834F09CFFBDE80840024834F0E7
S2140011E097BF00BFEC640400D46404001FB5084930
S2140011F0034602AA0868097902908DF80C1000923E
S21400120005210022012007F00FFE05B05DF804FB63
S214001210046504001FB50A4A03461068029002A936
S21400122090889279ADF80C008DF80E20009144223B
S2140012304FF44071012007F0F7FD05B05DF804FBA0
S2140012400A6504001FB50849034602AA086809791A
S21400125002908DF80C10009205214222012007F022
S214001260E3FD05B05DF804FB126504001FB50849F0
S214001270034602AA0868097902908DF80C100092BD
S21400128005214022012007F0CFFD05B05DF804FBE4
S214001290046504001FB5074A039203AA034600929A
S2140012A04FF440714122012007F0BEFD05B05DF805
S2140012B004FB00BF010221211FB50949034602AA0B
S2140012C00868097902908DF80C1000924FF440716E
S2140012D04022012007F0A8FD05B05DF804FB00BF22
S2140012E0186504001FB50949034602AA086809796B
S2140012F002908DF80C1000924FF4407143220120AA
S21400130007F092FD05B05DF804FB00BF1865040009
S2140013101FB50949034602AA0868097902908DF8A4
S2140013200C1000924FF440714222012007F07CFD21
S21400133005B05DF804FB00BF0C6504001FB5064A47
S214001340039203AA0092012203460821104607F0E2
S2140013506BFD05B05DF804FB010121211FB5074AAE
S214001360039203AA034600924FF44071082201201C
S21400137007F05AFD05B05DF804FB00BF12122121EC
S2140013801FB5094A034610689288ADF80C2002AAD9
S214001390029000924FF440714B22012007F044FD6A
S2140013A005B05DF804FB00BF1E6504001FB5074AC4
S2140013B0039203AA0092012203464FF4407110469E
S2140013C007F032FD05B05DF804FB00BF01012121E6
S2140013D01FB5074A039203AA034600924FF44071D2
S2140013E00422012007F020FD05B05DF804FB00BFD5
S2140013F0010121211FB50949034602AA0868097997
S21400140002908DF80C1000924FF4407107220120D4
S21400141007F00AFD05B05DF804FB00BF1F65040079
S2140014201FB5074A039203AA034600924FF4407181
S2140014300A22012007F0F8FC05B05DF804FB00BFA7
S214001440020221211FB50949034602AA0868097944
S21400145002908DF80C1000924FF44071002201208B
S21400146007F0E2FC05B05DF804FB00BF256504004C
S2140014701FB50949034602AA0868097902908DF843
S2140014800C1000924FF440710622012007F0CCFCAD
S21400149005B05DF804FB00BF256504001FB5064ACD
S2140014A0039203AA0346009208210022012007F0B7
S2140014B0BBFC05B05DF804FB010221211FB5074AFD
S2140014C0039203AA034600924FF4407103220120C0
S2140014D007F0AAFC05B05DF804FB00BF010221215D
S2140014E01FB50949034603AA08888978ADF80C0099
S2140014F08DF80E10009206214222012007F094FC7F
S21400150005B05DF804FB00BF2B6504001FB5094954
S21400151003AA0346009208888978ADF80C000522D5
S2140015208DF80E100120114607F07EFC05B05DF820
S21400153004FB00BF2F6504001FB50849034602AA36
S2140015400868097902908DF80C1000920821022292
S214001550012007F069FC05B05DF804FB2565040072
S2140015601FB50949034602AA0868097902908DF852
S2140015700C1000924FF440710922012007F054FC31
S21400158005B05DF804FB00BF336504001FB50A4ACA
S21400159003461068029002A990889279ADF80C0074
S2140015A08DF80E2000914C224FF44071012007F078
S2140015B03BFC05B05DF804FB396504001FB509491E
S2140015C0034602AA0868097902908DF80C1000926A
S2140015D04FF440710222012007F026FC05B05DF8AA
S2140015E004FB00BF416504001FB50949034602AA73
S2140015F00868097902908DF80C1000924FF440713B
S2140016000522012007F010FC05B05DF804FB00BFC2
S214001610416504001FB50949034603AA088889786E
S214001620ADF80C008DF80E1000920821062201205D
S21400163007F0FAFB05B05DF804FB00BF4765040041
S2140016400A46014934F052B9A07E04000A46014910
S21400165034F04CB9957E04000A46014934F046B988
S214001660907E04000A46014934F040B98B7E04009F
S2140016700A46014934F03AB9867E04000A46014912
S21400168034F034B9817E04000A46014934F02EB99C
S214001690747E04000A46014934F028B9657E0400C9
S2140016A00A46014934F022B9607E04000A46014920
S2140016B034F01CB9577E04000A46014934F016B9C6
S2140016C04E7E04000A46014934F010B9457E0400F7
S2140016D00A46014934F00AB93E7E04000A4601492A
S2140016E034F004B9337E04000A46014934F0FEB8EB
S2140016F0287E04000A46014934F0F8B81D7E04002E
S2140017000A46014934F0F2B8147E04000A4601493C
S21400171034F0ECB8097E04000A46014934F0E6B815
S214001720067E04000A46014934F0E0B8037E040051
S2140017300A46014934F0DAB8007E04000A46014938
S21400174034F0D4B8FD7D04000A46014934F0CEB822
S214001750FA7D04000A46014934F0C8B8F57D040055
S2140017600A46014934F0C2B8F07D04000A46014931
S21400177034F0BCB8E77D04000A46014934F0B6B838
S214001780DC7D04000A46014934F0B0B8D77D040079
S2140017900A46014934F0AAB8D27D04000A46014937
S2140017A034F0A4B8CD7D04000A46014934F09EB852
S2140017B0C87D04000A46014934F098B8BD7D04008F
S2140017C00A46014934F092B8B27D04000A4601493F
S2140017D034F08CB8AB7D04000A46014934F086B874
S2140017E0A87D04000A46014934F080B8A57D0400AF
S2140017F00A46014934F07AB89A7D04000A4601493F
S21400180034F074B8957D04000A46014934F06EB889
S2140018108C7D04000A46014934F068B8837D0400D4
S2140018200A46014934F062B87E7D04000A46014942
S21400183034F05CB8737D040008B50548012100F05B
S21400184023FE33F044FEBDE8084000F01DB800BF9C
S21400185000350A000148012100F016BE00350A00D6
S21400186007B5082034F03DFC064B02226846CDE959
S214001870002334F032FB082003B05DF804EB34F0AC
S2140018803BBC00BF006A18102DE9F0433B4D3C4FAF
S214001890DFF80091DFF800810FCD89B001AC0FC4EE
S2140018A095E8070084E80700364C3748012100F029
S2140018B0EBFD3846012100F0E7FD0125334B03938D
S2140018C001A920468DF8125034F04EFE2B46042215
S2140018D00621022001F0B4FE2A460023072102203A
S2140018E001F0AEFE2B4604220821022001F0A8FEDD
S2140018F0042211462B46002001F0A2FE244BA367CB
S2140019000B23636710264FF4487005F0E1FFC9F813
S2140019100C60142005F0DCFFC8F80C60232005F0EE
S214001920D7FFC9F80C60B921204634F05CFE0023CE
S2140019301A46C8F80C600621022001F081FE00233A
S2140019401A460721022001F07BFE2B4600220821C2
S214001950022001F075FE002210462B46042101F0FD
S2140019606FFE204602F03CF90021A1673846616709
S21400197000F08AFD09B0BDE8F08300BFA87E040031
S214001980005204000004014000350A0000127A00EC
S2140019900B0B000B00A0004400A0004608B500F0AA
S2140019A083F8124B12498B4212D3124B1249002075
S2140019B08B4218D3FFF7BCF8186850F822405868D6
S2140019C040F82240013298688242F5D30C33EAE7A9
S2140019D00022F8E71C6844F8220001325C68A24244
S2140019E0F8D30833E4E70022F8E700BF340F050019
S2140019F0400F0500400F0500400F050000487047E7
S214001A0000F04902104AD2F8943003F00703023B74
S214001A10032B13D8DFE803F00C14020E0B4B1B68E5
S214001A20D2F80001C0F304200130B3FBF0F0704799
S214001A30074BF4E7074B1B685B08F1E7054BEEE73F
S214001A404FF40043ECE700BF00400E40D8100020E3
S214001A50DC100020D010002008B5FFF7D3FF054BA0
S214001A60D3F80831C3F308230133B0FBF3F0024B7D
S214001A70186008BD00400E40D4100020014B1868C6
S214001A80704700BFDC100020054B1860054BD3F8EC
S214001A90943003F00703022B01D1FFF7DDBF704738
S214001AA0DC10002000400E40044B054A9A60D3F834
S214001AB0882042F47002C3F88820704700ED00E0EA
S214001AC000000000014B1868704700BFD8100020C7
S214001AD00F4BD3F82838A3F17E62A2F58432B2F514
S214001AE0104F10B511D219680A4A91420DD10A4C0E
S214001AF0227812F0FD0F01D0002010BDDB69984758
S214001B000028FAD101232370F6E74FF48170F4E73A
S214001B100000E10F07B0CD5E614A002070B5D0B17D
S214001B20C9B10E4E431E013913F8014F325D02F063
S214001B300302012A11F8012FB55C05F003052046C3
S214001B4008BF04F12000012D08BF2032801A01D101
S214001B50002CE9D170BD0120FCE700BF290E05006E
S214001B6037B5046801210546124800F08DFC0023B5
S214001B7061792079012201F063FD6179207934F0E2
S214001B8042FAB0FA80F35B092370A379022B0ED1D8
S214001B9000F01EFB084960792A4600F043FB01234B
S214001BA0617902462079CDE9003301F005FD002079
S214001BB003B030BD00350A002160030008B529488F
S214001BC0012100F061FC012304220221052001F01E
S214001BD037FD002001F0E4FC234B0122C3F8102857
S214001BE01146042000F02AFF204800F09FFD204BFD
S214001BF0D3F8F02042F00102C3F8F020D3F8FC201E
S214001C0042F08072C3F8FC20A3F55D43194A1A60BF
S214001C1000F5D520184B00F2FC40B0FBF3F0174B54
S214001C20013802221861C3F8F0204FF48072C3F81E
S214001C3004234FF06043124AC3F8B02F114AC3F88A
S214001C40802ED3F8002E42F48072C3F8002EFF22B6
S214001C5083F82020D3F8002E22F48072C3F8002EDA
S214001C60002008BD00350A000080144206000E0061
S214001C7000ED00E0FF030040F8590D00000004E00E
S214001C8055CEACC5090001004FF0604330B5D3F81F
S214001C90802ED20715D501240B4D8440D5F8FC20A4
S214001CA042F08072C5F8FC20D3F8002E2243C3F819
S214001CB0002E53F82020002AF0D003F82010002031
S214001CC030BD1120FCE700BF00ED00E010B501219B
S214001CD00446094800F0D8FB0848012100F0D4FB70
S214001CE0A37820786178B3FA83F35B09042201F0C5
S214001CF0A7FC002010BD00BF4041050000350A00CB
S214001D002DE9F04F9A46554B85B01B78DDF83C9090
S214001D109DF844B0DDF8508006460F461546002B69
S214001D2000F09680072A00F295800E9B002B00F0AC
S214001D309180B9F1000F00F08D80129BB3F5006F13
S214001D4000F38880012803D1109B002B00F08280CE
S214001D50434B03EB05131B7B002B7DD0414C10221D
S214001D60002168463EF0F0F904EB451410229FBBB4
S214001D70394620463EF0E8F943F210036380BBF193
S214001D80000F03D1E37843F00303E370354A0E9B5C
S214001D90CDF800A002EB451CCCE90193129B581E1F
S214001DA09DF84C30690103F00303C0F30A009B065C
S214001DB043EA001E53582C4818404EEA0003012EF2
S214001DC0535017D0B8F1000F2ED19CF8023068F3AC
S214001DD004138CF8023027E0002120463EF0B4F9C8
S214001DE04FF444736380BBF1000FCFD1E37843F028
S214001DF03003CAE71323CCF80C309CE80F000CF134
S214001E00100E8EE80F00DCF81C20109BCCF8143067
S214001E106FF0030161F39F02012FCCF81C2003D161
S214001E20CCF81890CCF804300D4A290102EB0513C3
S214001E3042F80180159A5A600027284622466946CD
S214001E409F605E7301F080FC384605B0BDE8F08FF9
S214001E500648FAE70648F8E70648F6E7624A00202A
S214001E60F41F0020F41E00200F80FFF3028000F015
S214001E70018000F0078000F038B5124B1B7805464D
S214001E80DBB1E0B134F0F9F90F4A00231146147BB8
S214001E9054B92B601A0101EB031301258C501D73F6
S214001EA034F0F1F9204638BD0133082B02F1100258
S214001EB0EDD134F0E8F90548F5E70548F3E70548BD
S214001EC0F1E700BF624A0020F41F0020048000F003
S214001ED0028000F0018000F038B534F0CEF90C4AEC
S214001EE005460023147B6CB90133082B02F110025F
S214001EF0F8D101F0DFFB074B28461C7034F0C3F91D
S214001F00204603E0284634F0BEF9034838BD00BF3B
S214001F10F41F0020624A0020058000F00D4B1B785D
S214001F2010B5044693B1072812D834F0A6F90A4B28
S214001F3003EB04131A7B2AB100241C7334F0A3F9B4
S214001F40204610BD34F09FF90448FAE70448F8E745
S214001F500448F6E7624A0020F41F0020068000F0DE
S214001F60028000F0018000F013B5164B186801904F
S214001F7000238DF8043034F080F9134B1C7824B11C
S214001F8034F081F9114802B010BD01221A7034F005
S214001F907AF90F4B1C731C7783F82C4083F83C406F
S214001FA083F84C4083F85C4083F86C4083F87C40B0
S214001FB004230DEB03008DF8073001F09BFB204651
S214001FC0E1E700BF147F0400624A0020038000F0AF
S214001FD0F41F00200A4A127808B55AB107280BD811
S214001FE0084A02EB00131B7B43B1002101F078FB8B
S214001FF0002008BD0448FCE70448FAE70448F8E770
S214002000624A0020F41F0020028000F0018000F0E9
S214002010078000F00A4A127808B55AB107280BD88C
S214002020084A02EB00131B7B43B1012101F058FB69
S214002030002008BD0448FCE70448FAE70448F8E72F
S214002040624A0020F41F0020028000F0018000F0A9
S214002050078000F00A4A127808B552B107280AD855
S214002060084A02EB00131B7B3BB101F0BDFB0020CE
S21400207008BD0548FCE70548FAE70548F8E700BF4D
S214002080624A0020F41F0020028000F0018000F069
S214002090078000F00D4B1B7893B1072812D889B142
S2140020A00B4B03EB00131B7B73B10A4B1A6E012319
S2140020B08340134214BF012300230B700020704797
S2140020C0054870470548704705487047624A002033
S2140020D0F41F002000200E40028000F0018000F077
S2140020E0078000F00B4A127810B50C4662B107283C
S2140020F00CD859B1084A02EB00131B7B43B101F020
S21400210089FB2070002010BD0448FCE70448FAE76D
S2140021100448F8E7624A0020F41F0020028000F01E
S214002120018000F0078000F02DE9F041DFF86480C0
S214002130D8F86070D8F86C301F4000D5FEE7134C16
S21400214001260025374218D02368C8F86860A3B176
S214002150A16862680131A16028469847637B012B1D
S2140021600BD150B90A4B03EB45131A7B60F34102BF
S2140021701A731A7F60F341021A770135082D4FEA69
S214002180460604F11004DDD1BDE8F081F41F0020FE
S214002190F41E002000200E4070B50C4E04460125AB
S2140021A004B970BD94FAA4F0B0FA80F006EB001201
S2140021B005FA00F324EA03045368002BF0D0117BE1
S2140021C011B191689847EBE79847E9E7742000203B
S2140021D008B5122000F086FD28B1084B4FF4802287
S2140021E0C3F880211A600A2000F07CFD28B1034B5A
S2140021F04FF48062C3F880211A6008BD00E100E059
S21400220038B505460C4634F038F8054B03EB051395
S21400221000225C601A73BDE8384034F034B800BF62
S21400222074200020F8B505460E46174634F025F80B
S214002230134BD3F8282422FA05F3DB0705F0FC013C
S2140022402C4612D500230133DBB2042B04D1FF2425
S21400225034F019F82046F8BDEC1804F003040C44DA
S21400226022FA04FC1CF0010FEDD1FF2CF0D0054B38
S21400227003EB04130122C3E901671A73E8E700BF02
S21400228000A0004074200020054BD3F82804D3F8A3
S2140022901C24104000F05530C3F82404FFF77CBF20
S2140022A000A00040054BD3F82804D3F81C241040A7
S2140022B000F0AA30C3F82404FFF76EBF00A0004069
S2140022C0024B1968024B186815F064BFE010002036
S2140022D00011002070B59400224605460E4634F0E4
S2140022E0FCF8431C0AD058B92246314628463DF031
S2140022F001FF0028034808BF002070BD0248FCE725
S2140023000248FAE710E000F021E000F024E000F0D8
S21400231010B5044601F02EFB431C10D088B901F01E
S2140023200FFC20F0030023462044984201D10020F1
S21400233010BD53F8042B0132F7D00348F8E70348E2
S214002340F6E70348F4E700BF0EE000F021E000F0F7
S21400235024E000F008B533F085FF014B186008BD97
S21400236064290020014B186833F080BF64290020E0
S2140023700C4B984205D90C4B984210D801220123E9
S21400238001E00022134609490B640949D1F80031DF
S21400239023F0807343EA0263C1F8003170470222DB
S2140023A0EDE700BF0048E8010090D0030000C843F6
S2140023B000400E400F4B5B680F4B30B500221C46AA
S2140023C0C9B21D798D4202D11D6885420DD20132F7
S2140023D0052A03F10803F4D10321064A536823F0C3
S2140023E0407343EA0163536030BD04EBC204617975
S2140023F0F3E700BF00000E40587F040038B5074CD6
S21400240041F67133256C2364FFF7F8FAADB200216C
S214002410FFF7D0FF0DB10023236438BD00000E4047
S214002420044BDB6B5B0604D4034AD2F8C830002B9F
S214002430FBD1704700300E400000C64308B5FFF7DA
S214002440EFFF024B5868C0F3014008BD00300E4055
S214002450044BD3F84421D20703D4D3F840211042CA
S214002460FBD1704700400E4038B5064C256C41F64F
S21400247071332364ADB2FFF79DFF0DB100232364D3
S21400248038BD00BF00000E4038B5C0F30323013B43
S214002490092B11D8DFE803F0052710102B221D109A
S2140024A01511154DC0F3043405F1424505F58015A8
S2140024B004EBC5008000016038BD104DC0F3043445
S2140024C0F2E70F4DC0F304344FF48030FFF7C0FF3F
S2140024D0EAE7C0F304340B4D1020F7E7C0F30434EA
S2140024E0094D0120F2E7094DC0F30434DCE7084D3E
S2140024F0C0F30434D8E700BF00400E4050410E4001
S214002500F0400E40E8400E40E0400E40C0400E4016
S214002510B0400E40C0F30313013B092B2AD8DFE876
S21400252003F0050B0F1929291F23374B274BD3F828
S2140025300001C0F304207047244BD3F81401F8E7D9
S214002540224BD3F80031C3F30063013301209840D7
S214002550013870471D4BD3F80C01C0F308207047B4
S2140025601A4BD3F80801F8E7194B984204D0194BD8
S214002570984207D000207047144BD3F8203103F060
S2140025800F03E3E7114BD3F82031C3F30113DDE764
S214002590114B98420CD003F5B01303F580539842C4
S2140025A0E8D10A4BD3F82831C3F301230433CDE72F
S2140025B0064BD3F82831E8E7084B9842DAD1034BAC
S2140025C0D3F8300100F00300704700BF00400E4013
S2140025D08006160080162E0090171A00A009140018
S2140025E000F00F000138072850D8DFE800F0041587
S2140025F0244F34384F402B4BD3F8943003F0070366
S214002600023B052B06D8DFE803F049243F030543C9
S2140026100B20704705207047224BD3F8800000F04F
S214002620070002283DD0042836D0012808BF032022
S21400263018BF012070471B4BD3F8843003F0070304
S214002640013B032B03D8DFE803F0041F25270120F6
S214002650704703207047134BD3F88800DFE7114B11
S2140026601B6F13F0010F0CBF0720092070470D4B9E
S214002670D3F85C3103F03003202B0FD0302B0FD073
S214002680102B08BF0720D3E70220704700207047B2
S2140026900C207047062070470A20704704207047B9
S2140026A00820704700400E4008B50146FFF798FF27
S2140026B01A4B994211D01A4B994212D0194B994293
S2140026C004D1194BD3F8800000F007000138032826
S2140026D021D8DFE800F00A0E1612134BD3F8840058
S2140026E0F2E7114BD3F88800EEE7BDE8084033F078
S2140026F03FBCBDE80840FFF7E5B9BDE8084033F049
S2140027003ABCFFF77FF9084BD3F80031C3F30063F8
S2140027100133D84008BD0020FCE700BF03002000BE
S2140027200500240002001E0000400E4000F478134E
S214002730B3F5B01F10B5044674D025D8B3F5402FB6
S2140027405ED010D8B3F5802F49D005D83BB1B3F58D
S214002750003F4FD0002010BDB3F5202FFAD1BDE8C2
S2140027601040FFF74FB9B3F5801F00F08480B3F533
S214002770A01F4DD0B3F5602FECD14A48FFF730FFCD
S214002780072878D00928E9E7B3F5381F53D013D8BF
S214002790B3F5001F58D00AD8B3F5D01F56D0B3F5FE
S2140027A0F01FD7D14048BDE81040FFF77DBFB3F516
S2140027B0101FCFD13D48F6E7B3F5481F4DD0B3F50F
S2140027C0781F65D0B3F5401FC4D13948FFF76CFFBA
S2140027D0384BD3F82831C3F30123043320E0FFF746
S2140027E011F9344BD3F80C31C3F308230133B0FB93
S2140027F0F3F0B0E7FFF706F92E4BD3F80831F3E70E
S214002800FFF700F92B4BD3F81431C3F30423EDE79D
S2140028102648FFF749FF274BD3F8303103F0030370
S214002820D84098E72048FFF73FFF224BD3F82031E7
S21400283003F00F03F4E71C48FFF736FF1D4BD3F8F1
S2140028402031C3F30113EBE71948ACE71848FFF74C
S2140028502BFF184BD3F82831F3E71748FFF7C0FED5
S214002860072808D0082809D004287FF473AFBDE8ED
S2140028701040FFF703B9114B18686CE7FFF7C2F872
S2140028800C4BD3F80031C3F3042303FB000062E7CC
S214002890FFF7B8F80146204633F0DFFCB1FBF0F056
S2140028A059E700BF06000E0002001E0005002400C7
S2140028B00300200000400E40B80032000411002043
S2140028C010B5FFF79BFD094B07225A67FFF79AF8EA
S2140028D0FFF74EFDFFF7C0F80446FFF7AFFD0146D1
S2140028E02046BDE81040FFF7BFBD00BF00400E40C9
S2140028F0014B1880704700BF06160020014B188059
S214002900704700BF0416002010B5042813D8DFE86F
S21400291000F047032F132100294AC1F30801D2F81B
S2140029206838002BFBD1274A136A23F4FF7323F081
S21400293001030B43136210BD214A01F07F01D2F858
S2140029406038002BFBD11F4A136923F07F030B432B
S2140029501361F0E71A4A01F07F01D2F86438002BC1
S214002960FBD1184A936923F07F030B439361E2E798
S214002970144AD2F89030536A23F0300343F0100321
S2140029805362146B104BC1F3C31003300F2803EAD5
S214002990040328BF0F200B4343EA00731363CAE700
S2140029A04F29074A28BF4F21D2F87438002BFBD195
S2140029B0044A936B23F07F030B439363BBE700BF8C
S2140029C00020C84300400E4000F8FF0F104A536A2C
S2140029D013F0300F18D0202913D0302914D0002936
S2140029E00C4B08BF4FF44003D2F8901033EA0101B5
S2140029F0FAD15B0246BFD2F8A000C0F380200120C7
S214002A0070474FF40003EFE74FF44003ECE700BFD6
S214002A1000400E40FF33E10702280AD129B1064BD9
S214002A204FF48060C3F8A800596612B10220FFF781
S214002A30CDBF0120704700BF00400E400428F8B507
S214002A4048D8304B13F800C02F4B1D5C2F4B33F883
S214002A5010702F4B33F810402E4B002940D0022820
S214002A6039D15C6A14F0300F35D12B4CE46B5C6ABC
S214002A70E40705D55E6A26F0300646F010065E626C
S214002A80264C244B25441F66AD002B68002BFCD03B
S214002A9002B36444A4002368002BFCD0022819D19A
S214002AA0C1B11C4D696A11F0010116D00122202126
S214002AB0FFF7B2FFD5F89C60012200210220FFF745
S214002AC0BDFFC6F30A010220FFF71EFF2F6623682C
S214002AD0002BFCD0F8BD0021D2E7FFF777FFE9E72F
S214002AE001211C66A940D3F890000842FBD1002AB9
S214002AF0F0D00123074903FA0CF3D1F890201A42CC
S214002B00FBD1E7E7537F04004E7F0400447F0400B8
S214002B103A7F040000400E4000300E408004F21061
S214002B2010B50246B8B901221146FFF787FFFFF736
S214002B3065FC0F4B04225A67FEF764FFFFF718FC8C
S214002B40FEF78AFF0446FFF779FC01462046BDE8FB
S214002B501040FFF789BC012807D10146FFF76EFF3A
S214002B60FFF74CFC024B0322E5E7FFF747FCE3E7E1
S214002B7000400E4038B5FEF781FF0021044600F005
S214002B80B7FA1248FFF7F4FB012211460220FFF7BE
S214002B9055FFFFF733FC0CB1FFF742FC0C4B02224B
S214002BA05A67FEF72FFFFFF7E3FBFEF755FF0546D4
S214002BB0FFF744FC01462846FFF756FC2CB9204692
S214002BC00121BDE8384000F093BA38BD0148E8015D
S214002BD000400E40012210B511460320FFF72EFFDD
S214002BE0FFF70CFC084B05225A67FEF70BFFFFF7B2
S214002BF0BFFBFEF731FF0446FFF720FC01462046E8
S214002C00BDE81040FFF730BC00400E4010B504464B
S214002C101120FFF7E5FC002101220220FFF70EFF3E
S214002C20184A217C536A23F00103022908BF43F0A7
S214002C3001035362144B2178C3F8A014637AA18869
S214002C4043EAC123D362136BA07A217A03F07F6331
S214002C500343E08843EAC02343EAC11303310F2944
S214002C6028BF0F2143EA01731363A37B617B1B011B
S214002C7043EA0133E17B0B43217B43EA0143536381
S214002C8010BD00BF00400E400000C84338B50E4DD2
S214002C900E4C01461120FFF7A3FCAA6B4B7814409C
S214002CA00A78144344EAC3248B7844EA0364CB7856
S214002CB044EA0324AB6BA34205D000210122084658
S214002CC0FFF7BCFEAC6338BD00400E4080E4FFF862
S214002CD0034B5868C0F30800003818BF012070473F
S214002CE000ED00E04209054B53F8223000F01F00CB
S214002CF023FA00F0C04300F00100704700E100E056
S214002D00034BD86B80F04000C0F38010704700BFC4
S214002D1000300E4042EA0322B2F5007F10B5194C8F
S214002D2029D00AD8B2F5807F22D040F201139A4209
S214002D3015D062B9D4F81C320BE0B2F5407F1DD036
S214002D4040F201339A4210D0D4F8283201E0D4F889
S214002D502432C3F30722DBB203600A6010BDD4F846
S214002D6024321A0EC3F30743F6E7D4F82832F8E7FE
S214002D70D4F81C32F5E7D4F82032EAE7D4F820324B
S214002D80EFE700BF0081E00F08B5FFF7B9FF20B1FD
S214002D90024AD2F8C830002BFBD108BD0000C6435B
S214002DA008B5FFF7ADFF80B1FFF7EEFF074B1968D8
S214002DB05A68C1F30121C2F3014291421A688CBFDE
S214002DC042F0100222F010021A6008BD00300E40D9
S214002DD0064B1B68DB0608D5054B1B69C3F304438B
S214002DE0082B02BF034B044A1A60704700300E409F
S214002DF000400E40D0100020C0EA210170B5FFF759
S214002E007FFF38B12D4B1A781023C2F1020293408F
S214002E102B4A13612B492C4DD1F8804145F60E0301
S214002E20C1F880312B6823F0AA03DB05DB0D0B66A7
S214002E30FFF7AAFF224B1B68D80604F0010415D53D
S214002E40D1F84031DA01FBD4204B1B680B61204BD4
S214002E501B78052B0AD11F4B1E68FFF795FF184BF2
S214002E6059683046C1F30141FFF7FEFA184B1B784C
S214002E70023B0A2B0AD8DFE803F0061517090909F2
S214002E800909091A1D000020FFF74AFE2B68DB0718
S214002E905EBF0C4B02221A661CB10A4B0022C3F816
S214002EA0802170BD0120EFE7FFF764FEEEE7FFF735
S214002EB091FEEBE7FFF704FDE8E700BF634A00205A
S214002EC000300E4000400E406C290020682900208B
S214002ED0644A0020D010002010B50B4C0B4BD4F8E1
S214002EE090201A601120FFF77BFB094B1870FFF744
S214002EF04BFF084B084A5B68C3F301431370074B4C
S214002F0022691A6010BD00BF00400E406C290020E8
S214002F10644A002000300E40634A002068290020E2
S214002F20064942780B6823F4407343EA0223022AD8
S214002F300B6004BF024B5B6A704700BF00300E4058
S214002F4000400E4010B5044608B1FFF7C5FFFFF776
S214002F5027FF144A136943F00403136133F0A7FAFA
S214002F6033F0A6FA104B114AC3F8242403F559236C
S214002F701B68DB060ED533F075F93DF00DF933F01E
S214002F8075F933F096FA03F0C7FD2CB1BDE8104092
S214002F90FFF734BF30BFF4E7FFF71AFFBDE8104075
S214002FA0FEF75ABD00ED00E000A000400000FFFF65
S214002FB010B5044608B1FFF78FFFFFF7F1FE1A4B76
S214002FC0D3F8802145F60E01D207C3F8801148BF1A
S214002FD000224FF42071196648BFC3F88021134AB7
S214002FE0136943F004031361114B124AC3F82424F7
S214002FF033F05DFA104B1B68DB060CD533F032F964
S2140030003DF0CAF833F032F903F086FD2CB1BDE886
S2140030101040FFF7F3BE30BFF6E7FFF7D9FEBDE876
S2140030201040FEF719BD00BF00400E4000ED00E066
S21400303000A000400000FFFF00300E400E4A03795B
S214003040916921F03F010B43017843EA81034178FF
S21400305043EA4103817843EAC103C178012908BFE6
S21400306043F0010393611368417923F4403343EA44
S21400307001431360704700BF00300E402DE9F04159
S21400308004460D46FFF73CFE60B3DFF86080FFF7AE
S2140030907BFED8F80430C3F301439C4222D0124B87
S2140030A0D3F80031FEF7AEFC022C07464FF01006B0
S2140030B009D12146FFF7D8F9C8F8106095B1BDE8E8
S2140030C0F041FFF761BEC4F102039E40C8F81060ED
S2140030D00DB1FFF759FE2CB921463846BDE8F04140
S2140030E0FFF7C2B9BDE8F08100400E4000300E4048
S2140030F038B505460C46FFF703FEB8B145B90C4B8C
S214003100D3F80051FEF77EFCC5F3042505FB000549
S214003110084B1B7821463BB1074B9D4204D8022042
S214003120BDE83840FFF7AABF0020F9E738BD00BF6A
S21400313000400E40654A0020002D3101034B027806
S2140031401A7001210020FFF7D3BF00BF654A002098
S214003150234B4AF6E85210B5596B5A639A6FD2075A
S214003160FCD41B6C13F0030306D01E4A01249842BD
S214003170C2F8B44A1AD110BDA0B1431E012B17D80D
S214003180174A4FF40023D362936FDB07FCD4136C0B
S21400319023F0030343F001031364114A536A1C032C
S2140031A0FCD505E00F4BC3F8B40AE4E7032BE4D0E4
S2140031B00B4B9A6FD207FCD41A6C22F00302024320
S2140031C01A649A6F12F00102FBD10038054C18BF42
S2140031D001200129C4F8B40A08BF5A63CBE700BF30
S2140031E000300E400000C6432DE9F04F00238BB0A0
S2140031F0CDE90433CDE90633CDE90833A0F5E16324
S214003200B3F5966F05460191934603D900200BB09F
S214003210BDE8F08F624BDFF88C81D3F81842B0F52A
S214003220E16F15BF4FEA146AC4F3072AC4F30744D4
S214003230E4B20694CDF824A0D8F84C60C6F3017624
S2140032408CBF01220022334607A904A815BF4FF4FD
S214003250E1674FF496674FF496694FF41679039238
S214003260FFF758FDD8F8EC30039AC3F3012308A9FA
S21400327005A80293FFF74EFDA5EB070CAAEB040288
S2140032800CFB02F2B2FBF9F214445445079F049873
S214003290089A0599BAD8A2EB010E0CFB0EFEBEFBEF
S2140032A0F9FE11EB0E012CBF4FF0010E4FF0000E91
S2140032B08A42ABD3BEF1000FA8D13A1A0CFB02F239
S2140032C0B2FBF9F280182CBF0122002287429DD360
S2140032D0002A9BD1029BBBF1000F0FD0D8F85C20D0
S2140032E0B5F5E16722F4FE4218BF012722F002027C
S2140032F042EA470242EA0422C8F85C20019A0AB968
S214003300012084E7264A022ED2F830223ED0032E31
S2140033103FD0012E14BFD2B2C2F30722120312F41A
S214003320702F7FF473AF1F4EF46E24F47044224364
S214003330F2661B4A022BD2F830222CD0032B2DD05B
S214003340012B14BFD2B2C2F30722120312F4702F5D
S2140033507FF45CAF134CD4F8EC3023F47043134383
S214003360C4F8EC30636E884238BF084623F4FF7317
S214003370E72823F0010328BFE720B5F5E16F18BF63
S21400338043F0010343EA40036366B9E7C2F307422A
S214003390C4E7120EC2E7C2F30742D6E7120ED4E71E
S2140033A00081E00F00300E402F4B1A6FD96C11F0E1
S2140033B0010F02F0060242D0002A40D013284FD94F
S2140033C0143813288CBF102308232749013BCA6CE6
S2140033D0180322F47F4240EA03231343CB64234BB3
S2140033E0CA6C1B88C2F303222833013202EB820028
S2140033F003EB5303B3FBF0F3C86C013B072B28BF6A
S214003400072320F0EE6040EA036343F48013CB64A6
S214003410174BB3F90030002B10DB2833500800EBB5
S214003420420203EB5303B3FBF2F30A6D072B28BFEC
S214003430072322F0700242EA03130B657047D96C2B
S21400344001F00101114304D1092809D90A380928D5
S214003450B8E7DB6C13F00103B7D01AB92728B1E739
S2140034600423B2E70023B0E700300E406843002094
S21400347064430020064A074BD3F88039136F23F0C5
S214003480070303431367044B1888FFF78DBF00BF7D
S21400349000300E400000C64366430020394B02222F
S2140034A02DE9F0419A639B6B03F00F0393420446A9
S2140034B003D000252846BDE8F081C288B0F8088011
S2140034C08588B0F90C6047784A2A4ED9B2F5FA7F5B
S2140034D04DD340F6C3139A428CBF4FF040524FF084
S2140034E000522849CB6C23F0405323F00103002EF2
S2140034F0A8BF43F001031343CB64D1F8EC3043F488
S2140035004073C1F8EC30204B1D80CB6E43F08073C7
S214003510CB661E4BD3F8800900B10420FFF7AAFF44
S2140035201B4BA3F800801B4B28461E80FFF73CFF72
S214003530A37BFBB1012B21D0012260881146FFF747
S21400354053FE05460028B4D00E4AD36B43F480637E
S214003550D3633846FFF7FCFDA37AA3F1200253425B
S21400356053410A4AC2F89437A4E70022B9E74FF05D
S2140035708052B6E7034B084A9A65DDE7014B074AD7
S214003580FAE700BF00300E40664300200000C64346
S214003590684300206443002077402057372110B747
S2140035A0044AD2F8443423F003030343C2F84434F5
S2140035B0704700BF00A00040072AF8B501F00306D8
S2140035C014461F464FF00F011FD8950000FA05F26B
S2140035D0A940154832F072FF0321144806FA05F296
S2140035E0A94032F06BFF12499DF81830114A214469
S2140035F089000F60C1F880300123A340C2F824344C
S2140036009DF81C30C1F80033F8BDA2F10805AD00E6
S21400361000FA05F2A940084832F050FF0321074897
S21400362006FA05F2A940DCE700A4004008A4004022
S2140036308020851000A0004004A400400CA4004098
S21400364000EB4000F8B50D461F46040116463AB199
S214003650154801238B402044C7B100F1C0600360C9
S214003660072D4FF00F0114D8AB00104806FA03F2EE
S2140036709940204432F022FF3EB90B4A0123AB406A
S214003680224477B102F1C0621360F8BD00F1806099
S214003690E5E7A5F108039B00054806FA03F2994002
S2140036A0E7E702F18062EFE70CA0004004A00040CC
S2140036B008A00040084B4FF40072C3F88020BFF308
S2140036C04F8FBFF36F8F054B0021D9664FF4AA408A
S2140036D01962FEF7D9BE00BF00E100E000200E40F0
S2140036E0034B03449B0081F001011960704700BF43
S2140036F0A001F11010B5044601214FF4AA40FEF7D0
S214003700C3FEB4F8013022785BBA9BB243EA026388
S2140037100B4A136000231362D36253634FF00043D7
S214003720D3664FF0FF339366064A4FF40071C2F833
S2140037308011E3785B01DBB282F80933116010BDBB
S21400374000200E4000E100E0F8B5254D8F7AD1F854
S21400375000C0C3B201269E404FF0300ECB7A0EFB5F
S21400376000500C461B05097BAE6643EA0743C0F8CB
S21400377080C094F80DC0C0F888C043EA415322F0D8
S2140037800302C0F88430C0F8982032F076FDEB6E65
S2140037903343EB66237A13B16B6B33436B63637A05
S2140037A013B1EB6A3343EB6223792A6823B1DB4318
S2140037B01B0263F47F431A4063790BB142EA03228B
S2140037C0A3790BB122EA0302E3791343044A136098
S2140037D0044B9E62D663BDE8F84032F054BD00BF8D
S2140037E000200E4000200E4410B5C0B201248440D4
S2140037F032F043FD054AD36E23EA0403D366044B36
S2140038001C62BDE8104032F03EBD00BF00200E40F6
S21400381000200E4410B5C0B20124844032F02DFDC5
S214003820074B1A6A224208D19B6A9C430CBF0124AC
S214003830002432F028FD204610BD0024F9E700BF22
S21400384000200E40054B5A685B68054B41F6713206
S2140038501A649A6822F001029A60704700300E409F
S21400386000000E40034B9A6822F001029A60002284
S2140038701A64704700000E40094A0A4BD969C90706
S21400388005D512B96FF002007047013AF6E7002A34
S214003890F8D001221861DA60D86940F380007047DA
S2140038A08096980000000E4070B509B9002070BDE3
S2140038B00E4A0023082550F8234094610C4CD5602E
S2140038C00133D669F60705D514B96FF00200EEE7A6
S2140038D0013CF6E7002CF8D0D469A40702D499423C
S2140038E0E9D1E3E76FF00100E1E700BF00000E401A
S2140038F0809698002DE9F8431C4B0D4641F6713131
S2140039001E6C19641A49804648684968996841F0EF
S2140039100101B6B2996097084FF00009B94501D386
S214003920002005E008EB89042046FFF7A5FF48B114
S2140039300E4B9A6822F001029A600EB100221A64B9
S214003940BDE8F883C4F30A01C1F500618908A7EB56
S2140039500903994228BF19462846FFF7A5FF002805
S214003960E6D1894405EB8105D8E700BF00000E408C
S21400397000300E40234B41F671311A6C10B51964B5
S21400398021494C684968996841F001019960012114
S2140039901861D960D9694C0792B209D5996821F0A7
S2140039A0010199600AB100221A644FF0FF3010BD81
S2140039B00221D9601549D869C00700D569B9D86908
S2140039C010F002000BD0996821F0010199600AB14D
S2140039D000221A646FF00100E9E70139EBE741B90C
S2140039E0986820F00100986002B119646FF0020038
S2140039F0DDE7996821F0010199600AB90020D6E751
S214003A001864FBE700000E4000300E4080969800D9
S214003A10014B01229A60704700500E40134B144928
S214003A20F0B500225D68134E1046D6F8E8714C6873
S214003A300B687F070BD4B3F5006F06D012D8B3F52A
S214003A40007F02D0B3F5806F01D144F480742B421E
S214003A5002D02C4208BF18430132092A01F108019E
S214003A60E3D1F0BDB3F5803FEEE700BF00500E4057
S214003A70807F04000040E00F8B784A789B0143EA81
S214003A8082030A781343CA7843EA02130A7943EAA0
S214003A90C2234A7943EA02338A79043043EA42432E
S214003AA00001014A1350704700200440014B186083
S214003AB0704700BF00008442437882789B0043EA48
S214003AC0021302781343C27843EA4213027943EAA8
S214003AD00223427943EA0233827943EAC233C27947
S214003AE043EA0243027A43EA4243014A13607047BC
S214003AF0002004400D4AD2F8E430D2F8E0109B00D3
S214003B0003F03C03C1F381110B438370D2F8E0301D
S214003B1003F03F034370D2F8E830D2F8EC2003F00D
S214003B20F003C2F3031213430370704700FF0FE065
S214003B30024BD3F8FC00000E704700BF0081E00F78
S214003B40044BD3F8E4301B0E0A3303F01F030120A6
S214003B50984070470081E00F70B5054616461C4633
S214003B6019B91448FEF7E2FD0146402C1BD003D8D5
S214003B70DCB1202C1BD070BD602CFCD1042303FBD1
S214003B8006F2530803EB4113B3FBF2F30A4A203B59
S214003B9002EAC3032A6822F060022A602A681443F5
S214003BA02C606B61E7E70623E9E71023E7E70823C5
S214003BB0E5E700BF40410500F8FF7F0038B5054641
S214003BC0144619B90548FEF7B1FD014601396400EF
S214003BD0B1FBF4F10902696138BD00BF4041050040
S214003BE040F6AA63C36041F2050200230360426008
S214003BF0104A83604361C36482640F4A036690423E
S214003C0043678367C3670DD002F5806290420BD08E
S214003C1002F58062904205D002F58062904203D0A1
S214003C20836570470365FBE7036583650023C3650B
S214003C30704700BFF9FF01000000014038B5044698
S214003C4038F079FA0FCC044D0FC594E80F0085E8DC
S214003C500F00002038BD00BF7029002047F6FF7314
S214003C609A42F0B572D0062972D83A4B5B5C022BAA
S214003C706ED8394D05EBC304DF00A17815F8333054
S214003C80012938BF0121012B13D1E0780025401A05
S214003C90A84202D80844C0B2F0BD431BA0EB5303B1
S214003CA0666836F913609642CCBF03F1FF301D46B6
S214003CB0EEE760680028EFD0B0F90040944204DBDD
S214003CC0B0F902409442B8BF14468388FF2B04BF65
S214003CD0B0F90620B0F908C03D440FBF0126002603
S214003CE0C8224FF0280C131B93FBFCF333446E786A
S214003CF01BB29E4201DD002B01DA731E1BB201339C
S214003D009BB24FF47A7C071D5D1E2DB24FEAC50E9E
S214003D1000EBC5059E42EA88AD6814FB025222EA13
S214003D20E27202F15C02B2FBFCF205DD37F83350BA
S214003D30954203F10103E7D200EB0E039888904208
S214003D4028BF1046884238BF0846A4E7FF20A3E7EE
S214003D500020A1E7C87F0400702900200629F0B5DE
S214003D6061D8324B595C02295DD8314B13F83100CB
S214003D70012816D103EBC1039C78D8785B68012C28
S214003D80214638BF0121904294BFC1EB0001C1EB30
S214003D900201CAB2001B8242C8BF002233F91200D9
S214003DA0F0BD002A3DD003EBC103596800293AD084
S214003DB09878904202D3B1F90200F1E7DC78B1F9C5
S214003DC000009442ECD95C788B88A3F1FF06013C96
S214003DD0734201F10405E4B2734101F10C07DEB24F
S214003DE0B44216D805EBC3034FF47A75B3F9024014
S214003DF05B686A43D21A04EBD47302EB630292FB4D
S214003E00F4F29042CCDBB1F902009042C8DC10B26A
S214003E10C6E737F833C0944503F10106E2D33346CC
S214003E20DDE70448BCE70448BAE700BFC87F0400E3
S214003E30702900200CFEFFFF0080FFFF08B5044835
S214003E40FFF7FCFEBDE80840012038F099B900BF36
S214003E50D07F04007FB5094B09490222CDE9012332
S214003E604FF08373CDE903134FF0FF300D2301A904
S214003E70059338F0C1F907B05DF804FB006A180036
S214003E8006010C00024B03480122C3F800267047C7
S214003E900010C84300000F40094B98420ED003F5AF
S214003EA08063984209D10122064B03EBC2035A688D
S214003EB0054B13449B0000221A6070470022F3E76C
S214003EC000000F40408104008005F21010B5044643
S214003ED02369DB07FCD404F1800032F01BFA014BA7
S214003EE0236510BD510545012DE9F043064689B00E
S214003EF0174698460C4600294DD1FFF7C3FF0146EA
S214003F000446304632F08DFB4FF0010996F86C50AF
S214003F1006F15C01C5F10F06C5F10E03F6B22A469E
S214003F200DF1010001358DF800303CF0BBF832464B
S214003F3000210DEB05003CF007F9C6F11000012347
S214003F403246002168448DF80F303CF0FDF832F020
S214003F5089F904F1800605466946304632F0DAF9FA
S214003F600E4B23652369DB07FCD404A9304632F0E8
S214003F70EEF9284632F07AF9424604A938463CF073
S214003F8091F8B9F1000F02D02046FFF785FF002018
S214003F9009B0BDE8F0834FF00009B7E7055101000E
S214003FA02DE9F04F89B00546DDF8489016461F46C5
S214003FB00C4639BBFFF766FF01460446284632F03A
S214003FC030FB4FF0010B6B6C33446B6432F04AF9F4
S214003FD08246D6B9504632F049F9BBF1000F0ED0F2
S214003FE032F040F905F14C01064604F1840032F047
S214003FF0AEF9304632F03AF92046FFF74DFF09B0E9
S214004000BDE8F08F4FF0000BDDE72B79102EB046A1
S21400401028BF4FF01008012B0DD110220021684652
S2140040203CF092F83946424668463CF03BF8694612
S2140040302046FFF74BFF394604F18C0032F06AF950
S214004040124B2365012363652369DB07FCD404A9AF
S21400405004F1800032F07BF904A9424648463CF061
S21400406021F8297961B9102268463CF06DF8494676
S214004070424668463CF016F869462046FFF726FF9B
S214004080C1444744A6EB0806A3E700BF480559030A
S21400409070B5048804F4E043B3F5005F05461ED10E
S2140040A0C4F30223042B1AD181F0AA6383F480732D
S2140040B033F47E13204821F47E1618D081F0AA63CC
S2140040C083F4007333F47E1311D0864230D1B4F5F6
S2140040D0105F0CBF6FF086006FF0850070BDB4F502
S2140040E0105F25D1144B21F47E119942F1E78642E8
S2140040F04FEA1143C1F305411AD1B4F5105F17D149
S21400410004390C2911D813F001000ED1073A062AFB
S2140041100BD86B88C02B0BD0B3F5807FDED0802BFE
S2140041200CBF00206FF08600D8E76FF08600D5E75A
S2140041306FF08500D2E700BF000140052DE9F04F83
S214004140A7B0DDE93475DDF8D880DDF8EC9008928C
S21400415006461C468A4629B96FF08602104627B0E6
S214004160BDE8F08F0028F7D0309B002BF4D0329BB0
S21400417013B9339B002BEFD1002F7DD1002DEBD14F
S214004180389B002BE8D0B9F1000FE5D03A9B002B06
S214004190E2D0399B002BDFD0338803F4E042B2F53F
S2140041A0005F74D1C3F30222042A70D184F0AA639C
S2140041B083F4807333F47E1306D084F0AA6383F40A
S2140041C0007333F47E136BD1C4F30543319AC9F8F8
S2140041D00030214630460993FFF75AFF0246002872
S2140041E0BCD17288089BB3EBD20F4FEAD20BB3D385
S2140041F0379B9D425FD83A9A099B93425BD84745C6
S21400420008D27B19984505D239462A4640463BF0E7
S21400421081FF4746702200210AA83BF095FF5A46C8
S21400422051460DF12D00CDF850B03BF03BFF234B2F
S21400423024F47E149C423BD13388B3F5105F37D10B
S214004240D9F800300693399B0397CDE90483339B56
S2140042500293329B0193319B00932A46309B0121A7
S2140042600AA832F0F9FA0246E0B9389B1D607021C0
S2140042700AA832F0E9FA71E7002D81D0B8F1000FF4
S2140042803FF46AAF379B002B7FF47AAF64E742F2C5
S2140042900402934204D184F0052383F4801390E74C
S2140042A0002393E7389900230B60C9F80030DEE757
S2140042B06FF08502DBE76FF089024FE700014005EB
S2140042C02DE9F04FABB0DDE938A4DDE93B65894662
S2140042D0099298460746002800F0A280002900F0C0
S2140042E09F80349B002B00F09B80369B1BB9379B2E
S2140042F0002B40F09580BAF1000F02D1002C40F060
S2140043008F801DB93D9B002B40F08A803E9B002B82
S21400431000F086803A9B002B00F08280359A41465A
S2140043203846FFF7B5FE0246002866D17A88099B14
S214004330B3EBD20F4FEAD20B72D33D9B9C4272D89E
S214004340AA4509D20AEB0402954205D251462246F6
S21400435028463BF0DFFEAA46702200210EA83BF05E
S214004360F3FE5A4649460DF13D00CDF860B03BF0ED
S21400437099FE2E4A28F47E1800219045CDE90A11B0
S214004380CDE90C1149D13A88B2F5105F45D1379B7B
S2140043900293369B01930AAF359B00932246CDE9E4
S2140043A00457349B0696CDF80CA00EA832F054FAAB
S2140043B00246C8B93A9B384603EB060C90469C4525
S2140043C01FD11EB13146384632F03EFAB8F1000F22
S2140043D020D03E9A002313601CB12146284632F0B6
S2140043E033FA6FF0940204E01EB13146384632F0DC
S2140043F02BFA70210EA832F027FA10462BB0BDE833
S214004400F08F10F8011B13F801EB81EA0E0148EA61
S2140044100108D4E73E9B1C60EBE76FF08502E8E7F7
S2140044206FF08602E9E76FF08902E6E700014005D3
S2140044302DE9F04F8FB09846DDF86CA004909346B7
S2140044400023B8F1000F16D0D8F800401029CDE9A7
S2140044500633CDE908330CBF08231023029300254A
S2140044605D450AD3B8F1000F01D0C8F8004000201F
S2140044700FB0BDE8F08F4446E8E75CB1199B1A9A86
S2140044801B5D525D013453400AF8053004F00F04FA
S2140044900135E5E7FFF7F6FC4FF440434460036060
S2140044A0064631F0DFFE029A04990746304631F0A0
S2140044B083FF06F1840318461899019331F02AFF0A
S2140044C03846ABEB050731F0D1FE27F00F0706F1B3
S2140044D0A0032F440593AAF11009BD4234D11A9BBC
S2140044E03B440AAD03F1100C186859682A4603C20B
S2140044F0083363451546F7D10F2F0ED90AEB07038D
S21400450006AD103B0DF1280C2A4603CA624518601A
S2140045105960154603F10803F6D106F180035744A7
S2140045200AEB0B0903934F4536D131F09BFE1899E1
S2140045300546019831F00BFF284631F097FE3046CD
S214004540FFF7AAFC5D468BE731F08CFE224B03900A
S21400455033653369DA07FCD41A9B0598591931F08C
S214004560D9FE0F2D0ED90DF1180C09EB05020DF131
S214004570280E634603CB7345106051609C4602F1DB
S2140045800802F6D106A906F1800031F0E0FE039895
S21400459031F06CFE1035A0E774B931F063FE0E4BB7
S2140045A0336505463369DB07FCD40398199931F067
S2140045B0CEFE284631F05AFE04F138030DEB030216
S2140045C0199B12F8102C1B5D0134534007F8013B71
S2140045D004F00F04A7E700BF480503012DE9F74FD5
S2140045E0DDF848A0DDE90E74DDE9106883461D4657
S2140045F0894621B96FF0860003B0BDE8F08F002A27
S214004600F8D00FB9002CF5D116B9B8F1000FF1D1DA
S214004610BAF1000FEED02E4B9D4215D00BD82D4B85
S21400462025F4807199420FD003F580639D420BD02C
S2140046306FF08500E0E7284B9D4205D025F4007119
S214004640A3F580739942F2E7BBF80030B3F5105F2C
S214004650EED1BBF80230B2EBD30FE9D3802B02D0F9
S214004660B3F5807FE4D124B3B7420AD23B199E4209
S21400467007D24445BED83946224630463BF04AFD6E
S2140046803746164BBBF802B09D424FEADB0BCFD144
S2140046904445AFD814F00F05ACD17319009301222E
S2140046A07B195946484632F010F930B91035AC42FD
S2140046B0F3D8CAF8004000209EE742460021304664
S2140046C03BF042FD0023CAF800306FF0920093E7FB
S2140046D00010C004004040040012C004004440041F
S2140046E02DE9F04F91B0DDE91A4ADDE91C56DDF8F8
S2140046F0789007469B46884629B96FF0860840465C
S21400470011B0BDE8F08F002AF7D014B9BAF1000F47
S214004710F3D10DB9002EF0D1B9F1000FEDD0574B03
S2140047209B4515D00BD8564B2BF4807199420FD071
S21400473003F580639B450BD06FF08508DFE7514B90
S2140047409B4505D02BF40071A3F580739942F2E7E0
S2140047503B88B3F5105FEFD17B88B2EBD30FEBD37A
S214004760802B02D0B3F5807FE6D1BAF1000F04D1DA
S214004770C9F800A04FF00008C1E7AC420BD204EB2A
S2140047800A039D4207D2B245B7D82146524628466C
S2140047903BF0C0FC2C46394B7F889B454FEAD70739
S2140047A058D003F540739B4521D0374B9B45C3D16A
S2140047B0B245A2D81AF00F0B9FD140463B4608AA36
S2140047C0394632F0BCF88046002898D105EB0B033A
S2140047D00093002204EB0B03394608A832F075F864
S2140047E0804670BB0BF1100BDA45EFD8C0E7AAF194
S2140047F00D0AB2453FD801238DF810300DF1110295
S214004800234604F10C0153F8040B42F8040B8B42C8
S214004810F9D11B7813704FF48073ADF81E300D3449
S21400482004ABCDE900334046CDE9024500235246AD
S2140048303946FFF7FDFDC9F800A0804600283FF482
S2140048405EAF3246002128463BF07EFC0023C9F8C6
S214004850003054E7AAF1100AB2453FF64EAF04AA5C
S21400486004F1100C20686168134603C308346445DD
S2140048701A46F7D1D4E76FF0890840E70010C00465
S214004880004040040012C0040044400410B54FF439
S2140048902F72044600213BF057FC8023C4F88C306E
S2140048A0054BC4F88430012384F8883004F19C005A
S2140048B0BDE8104031F062BB5081040010B5D0F85E
S2140048C0A0400A4684B932F045FA044610B90024DE
S2140048D0204610BD2D2896BF064B074953F82010DA
S2140048E0064832F07EFBF3E7D0F8A4101046A04747
S2140048F0EDE700BFFC810400598104008CAA040087
S214004900F8B590F88060044616B100263046F8BD2B
S21400491032F051F80028F8D1012384F8803094F85A
S214004920883033B1D4F88410194884F8886032F09F
S21400493058FB4FF0FF37D4F8B402421C1CD0C4F822
S214004940B47210F0FF0520D0204632F031F8294628
S214004950204600F0AFFB0028EDD0204632F036F8B7
S21400496094F888306BB1D4F88410094832F039FBDB
S214004970002384F8883004E032F018FB431CE0D1B2
S2140049800126002384F88030C0E70126D3E700BF65
S21400499010A60400F8B50B78302B04460D461646D4
S2140049A004D14B7803F0DF03582B11D0284F6A1E32
S2140049B012F8011F002935D128460A2230F0E8FCFB
S2140049C0202C03460D4632D1B1FA81F040091BE097
S2140049D04A1C1F4912F8013F93B928463BF082FB58
S2140049E01C4B2340032BA0F1020012D10134A4106B
S2140049F084420AD1A87837288CBF0020012003E023
S214004A00CB5C13F04400E5D1F8BDCCBF01200020FC
S214004A10FAE7002CB8BF0334B0EBA40FD4BF0120D4
S214004A200020F1E77B5C13F00400C1D1ECE726B16F
S214004A30084302D0013B61F100050122A240013A81
S214004A401A40002D08BF9A420CBF01200020DBE769
S214004A50290E050003000080F0B503787B2B014685
S214004A6017D10D4F06460224002216F8015F7D2D51
S214004A7005D10B5D6BB9D24302F0010008E07B5D07
S214004A8013F0440002D001320134EEE7202DFBD0B3
S214004A90F0BD0020FCE700BF290E050070B50646F5
S214004AA00D463BF01FFB0446304632F09AFA044EA1
S214004AB0AC4200D370BD304632F093FA0134F7E7CB
S214004AC0489D04002DE9F84F044602216048FFF790
S214004AD0E5FF1E212068FFF7E1FF6368586832F0A3
S214004AE080FA5C4832F07DFA67683B7BFD2B12D873
S214004AF0D7F80880DFF85891DFF8B4A1DFF870B176
S214004B0040463BF0EFFA0C3706464FF0FF3417F8F6
S214004B10013BFF2B01D1BDE8F88F212B14D8212BA8
S214004B2014D8DFE803F0178C8884807C787413131D
S214004B30131313131313706C6864605C58541313C8
S214004B40131313131313504CFE2B34D006B1013439
S214004B50414D02E006B10134404D02214846FFF7C0
S214004B609DFF1E214846FFF799FF504632F039FA5E
S214004B70594628463BF08CFA3949002818BF294682
S214004B80384832F02EFA3B78202B02D12B2032F018
S214004B901CFA354832F025FA4EB118F804301F2BAF
S214004BA005D018F804001F2801D0B4424BDB294872
S214004BB032F017FAABE706B101342C4DCDE706B15B
S214004BC001342B4DC9E7002EA1D001349FE706B172
S214004BD00134284DC1E706B10134274DBDE706B1C3
S214004BE00134264DB9E706B10134254DB5E706B1C7
S214004BF00134244DB1E706B10134234DADE706B1CB
S214004C000134224DA9E706B10134214DA5E706B1CE
S214004C100134204DA1E706B101341F4D9DE706B1D2
S214004C2001341E4D99E706B101341D4D95E706B1D6
S214004C3001341C4D91E706B101341B4D8DE706B1DA
S214004C4001341A4D89E732F0C0F90134A9E700BFF4
S214004C50C1DB040033870400C1820400BB82040069
S214004C601283040010A60400DC97040041C0040070
S214004C70C9820400D2820400D9820400E4820400BF
S214004C80EE820400F8820400E3820400ED82040051
S214004C90F782040000830400048304000C830400ED
S214004CA0B5820400BC8204000B830400B4820400B6
S214004CB0A9AF04002DE9F04F9BB005468B46009245
S214004CC004933BF00FFA249F049B059000241C607D
S214004CD00AAA3C6009A9284632F0A4F9064658B943
S214004CE00A983BF0FFF9049B1860D5F89C300393B4
S214004CF03446B146039B1BB920461BB0BDE8F08F77
S214004D00039B9B680193002B69D02E4416F8013B49
S214004D10202B12D000260C23019A734302EB030AC1
S214004D20D3580293002B55D0DDF82480C84551DBBC
S214004D309AF808302BB1721C35E03B6801333B60B3
S214004D40E4E73B68D5F894200299D21A049B1A60CF
S214004D501AAB03EB890353F8403C069318463BF026
S214004D60AFF907900028E6D102983BF0BBF9DAF8D5
S214004D700410079AD7F800A00346087BFE2816D131
S214004D8008F1FF38C8452ED00B68069802920193AA
S214004D903BF0A8F90AF10103029A0344E95C21B149
S214004DA03B6009F101091646B5E70133F6E7D5F889
S214004DB09420A2EB0A029A42BDDC584606933BF0CA
S214004DC091F9069B03447B2B1DD91F4A0099584630
S214004DD031F0FBF8059A2B462A449A422AD1039BC7
S214004DE01B68039386E7D5F89420A2EB0A029A4242
S214004DF0E3DDD1F8008058F80C2B82B9059B3B60A8
S214004E00049B1A60E6E7029A0099584631F0DDF8EE
S214004E100E4A00995846013431F0D7F88BE70099CE
S214004E20584631F0D2F8094A0099584631F0CDF884
S214004E300134E0E713F8011B0029CED14FF0200122
S214004E4003F8011CC9E700BF14830400489D040052
S214004E502DE9F04786B0DDE90EA800241C60064662
S214004E6089468AF800401168154888F800401746B9
S214004E701D468DF81740FCF751FE18B92B68013314
S214004E802B600124D6F89C60002036B914B10123AB
S214004E9088F8003006B0BDE8F087B06868B14B46C9
S214004EA0CDE902A8CDE900750DF11702002131F019
S214004EB0F0FE9DF81730002BE8D13668E5E700BF16
S214004EC0198304002DE9F0430026ADF5457D044620
S214004ED07C22314605A802AF04963BF035F90097D0
S214004EE003AB802204A92046FFF7E4FE01283ED14A
S214004EF004A83BF0F7F803993B68A0EB01080B44C5
S214004F00234428EAE878054604A8014442461846A1
S214004F103BF0C8F800F80860D4F89060039B396846
S214004F20D4F890201944B14212DCD4F89410E81A50
S214004F300244C4F89020014404AAC4F89410D4187B
S214004F4025182B1B002B0DDC0DF5457DBDE8F083E9
S214004F50A05C32F03AF8D4F890300133C4F89030C0
S214004F600136DBE714F8010B32F02FF8E9E7EBDD4A
S214004F7024AD8022314628463BF0E6F844AB4FF499
S214004F800072314618463BF0DFF80DF11009034673
S214004F904A464FF00108314612F8016B002E49D1FF
S214004FA004A843F828103BF09DF82946334619F824
S214004FB0016B0DF5887C5CF8042B824243D10133EB
S214004FC0984501F8016BF2DAD4F89060039BB3427F
S214004FD042DC364A3648234604A932F002F8284610
S214004FE03BF080F8039B3F6806461F44F61AE0191C
S214004FF01D4426EAE67204F198031744984204EB2F
S21400500007014ED204F1900399424AD96A1E8119CB
S2140050100B1A002B39DD12F8013F00F8013BD4F8DB
S21400502090300133C4F89030D4F894300133C4F88B
S2140050309430EDE7202E01F1010104BF43F828105B
S21400504008F10108A8E70DF1100E7244D25CB242D6
S214005050B1D00022EA54B7E7D4F89030E05C31F0E3
S214005060B4FFD4F890300133C4F890300136ADE781
S214005070D4F890200132C4F89020D4F8942001325D
S214005080C4F89420013B002BF2DC0023E3552E44A9
S214005090731B002B7FF758AF15F8010B31F095FF07
S2140050A0F6E729463AF0FEFF3346ECE75081040067
S2140050B01E8304002DE9F843D0E9245604460F4623
S2140050C0002294F89830012B07D10A2F07D100232D
S2140050D084F898300020BDE8F88300F29F801B2FEC
S2140050E001D10223F4E70D2F0DD1012384F8983067
S2140050F00D2031F06AFF0A2031F067FF0023C4E973
S21400510024330120E7E74FF00008082F84F8988042
S21400511034D1454530DDB5420FD1384631F055FF24
S214005120013D202031F051FF384631F04EFF04F8A3
S2140051300580013EC4E92456CCE7FBDA05F1FF39C9
S214005140384631F042FF04EB0903A6EB0902611969
S21400515018463AF0DFFF04F806800146484831F06A
S21400516040FF013E35464D4501DC4D46E2E708204E
S21400517031F02BFF013DF6E7ACD0DBE77F2F1CD1EB
S214005180002EA7DDB542A5DA6319691C2144721BFF
S21400519018463AF0BFFF04F806800146394831F059
S2140051A020FF0820013E31F010FFB542F9D1D4F8B7
S2140051B09430013BC4F894308CE70A2F98D0092F1E
S2140051C003D12046FFF77EFE84E7D4F88C30013BFF
S2140051D0B3427FF77FAFB54204EB050805F101093E
S2140051E00CDB88F80070D4F89430C4F89090013343
S2140051F0C4F89430384631F0E8FE6BE7721B41463F
S21400520004EB09003AF086FF404631F0EAFE08203B
S214005210013E31F0DAFEB542F9DDE2E7022B06D1B7
S2140052205B2F01D1032353E784F8982049E7032B2B
S2140052307FF450AF413F84F89820032F3FF64AAFE3
S214005240DFE807F002070A160121204631F06EFE5D
S21400525040E74FF0FF31F8E7B542BFF63BAF605D81
S21400526031F0B3FED4F890300133C4F8903031E713
S214005270002D7FF72FAF013DC4F890500820BAE705
S21400528027830400C19804007FB5094B6A4603F1E2
S2140052901006154618685968144603C40833B34206
S2140052A02246F7D12846FEF7F9F8002004B070BD74
S2140052B02C83040070B5184B86B001AA03F11006C3
S2140052C0154618685968144603C40833B342224684
S2140052D0F7D11B882380114BD3F8B420120316D5C0
S2140052E0A3F500434FF6FF721B88934208BF4FF4A6
S2140052F0A5730B48ADF80A30FCF7C6FB2846FDF749
S21400530085FC3220FDF7FAFA002006B070BDD3F80F
S214005310B830C3F30803ECE73C8304000081E00FD9
S21400532000F0490207B5084B18680190202301A831
S2140053308DF80430FDF7AAFC3220FDF7D9FA0020DC
S21400534003B05DF804FB00BF4E83040010B50C48A4
S2140053500C4C6FF00403A02113F0800F03F1010240
S21400536007D12344332A83F800131346F4D10020D0
S21400537010BD03F00F03043B034419761346EBE716
S21400538000ED00E000E100E010B5044630F06AFFF2
S214005390024B1C6030F06AFF002010BD98290020E8
S2140053A010B530F05FFF034B1C6830F05FFF2046FF
S2140053B010BD00BF9829002038B50C46154601469A
S2140053C010B9FFF7EDFF01462B462246034811F0C1
S2140053D0AFFD0028D4BF3720002038BD8D710300F4
S2140053E030B5144687B00546104631F001FF6369B4
S2140053F083423CBFD4E903315B181B1A02467BB1DB
S2140054000F4903910021CDE9013101230494009353
S214005410D4E90013284630F0D5FE002007B030BD92
S2140054200122627694F82D20002AF6D084F83530D2
S2140054301321E36920469847636A20469847ECE7BD
S214005440E15300002DE9F04788B004460F461646A3
S214005450984630F012FF8146002E7BD0237E03F064
S214005460FF02002B00F0A380204631F0C1FE6569E4
S214005470A84205D1637ED4E9033213445D1B01E0E4
S214005480F9D9451BB54228BF354630F0F6FE94F8EC
S2140054902D308246002B6ED161692A4638463AF096
S2140054A001FE63692B4463612E4621E0037803F016
S2140054B0FD0111295CD1216B814205D1A3F11101B7
S2140054C04B424B4184F83430013E6369216B8B427A
S2140054D003F1010308BF23636361013295426069EB
S2140054E0E4D1D4E90323216B1344994200D122630B
S2140054F0D4E903236169207A134499424FF00005EA
S21400550008BF62616576FCF765FD204631F070FEE7
S2140055106369834232D194F82D302576E56865615B
S21400552003B12563636A20469847224B0393002302
S214005530049402932369019301230093636821680E
S214005540207A2A4630F03EFE207AFCF763FD50466D
S21400555030F099FE4846C8F8006030F094FED8F85F
S2140055600030002B0CBF1B20002008B0BDE8F087E1
S21400557007F8013BA9E72E460022AFE70123237672
S214005580207A0DF11E01FCF7ADFD9DF81E30002BB4
S214005590DAD00DF11F01207AFCF77CFD9DF81F1074
S2140055A00029D1D1207A2246FFF71AFFCCE716460B
S2140055B0D0E700BFE1530000002807DB044A41099A
S2140055C0012300F01F00834042F82130704700BFDF
S2140055D000E100E0002808DB4309044900F01F0052
S2140055E001226033824041F82320704700E100E04A
S2140055F070B504460568FFF7D3FE844202D100204A
S214005600FFF7C2FE95F936603046FFF7E3FF002E3F
S2140056100CDB7309194906F01F0620330122B2403D
S21400562041F82320BFF34F8FBFF36F8F95F9376094
S2140056303046FFF7CFFF002E0CDB73090F4906F04C
S2140056401F0620330122B24041F82320BFF34F8FBC
S214005650BFF36F8F287AFCF7FDFC287AFCF75EFC18
S214005660FCF73AFC0023C4E90033C4E90433A36022
S2140056702846AB6ABDE87040184700BF00E100E06E
S2140056802DE9F0430C461546064687B04022002119
S21400569020461F463AF058FD002395E803002A6985
S2140056A02376EB68E360C4E904232A7D84F82C2083
S2140056B0AA7D2363012384F8343084F835300E9BAA
S2140056C0236284E803000F9B6362109B84F82D20FE
S2140056D0E761A3622B7A84F836306B7A84F8373029
S2140056E02D4B73602D4BB3602D4B33612D4B3460C7
S2140056F073612D4BF360FCF737FC38B12B4B9842A7
S21400570004D01024204607B0BDE8F083002104F141
S2140057100800FCF7B1FB07460028F2D1244B3362A1
S2140057204FF00108234B84F83C80B361224BF361B1
S2140057309DF8483084F83B309DF8443084F83A3081
S214005740697D84F8390084F83880204631F061FDA0
S21400575095F909904846FFF73DFF4846FFF72CFFAE
S214005760164B0494CDE902732369CDE90083636880
S214005770E2682168207A30F025FD04460028C0D172
S21400578095F908502846FFF725FF2846FFF714FF2F
S2140057903046FFF7F9FDB5E7637203004554000095
S2140057A0DF710300E5710300F1550000038000F08F
S2140057B0B971030013720300EB710300E15300009C
S2140057C02DE9F04186B01C46524B0C9D0293524B7D
S2140057D001930126514B0093CDE90366504B90464A
S2140057E00A462946FFF74CFF0746002856D123688D
S2140057F02B6463686B64637A85F84930237A85F88E
S2140058004830E37A85F84B30A37A85F84A30637BD4
S21400581085F84D30237B85F84C30E37B85F84F3098
S214005820A37B85F84E303F483146FCF72DFE3E48B8
S2140058303146FCF729FE617A207A33460422FDF7CA
S214005840FFFE33460222E17AA07AFDF7F9FE606891
S2140058503146FCF719FE88F800704146206830F0A3
S21400586045FE2268536F43F003035367936F617CD2
S21400587023F4F85323F01F0343EA0123A17C0B43D0
S21400588093670323536785F8507098F81920202AE9
S21400589028D007D8E2B1102A38D02327384606B0D9
S2140058A0BDE8F081302AF8D185F850300222002376
S2140058B0617B207BFDF7C4FE2368E27CDA675A6EC4
S2140058C042F004025A665A6F42F010025A6766B9EE
