S00E00005A334C696768742E73333761
S21400000000100020A9300000017B0000057B0000E6
S214000010B3850300097B0000117B0000B385030055
S214000020B3850300B3850300B3850300B3850300DF
S214000030157B000084B80400B3850300B385030075
S214000040B385030095D40100B3850300B385030090
S214000050D5CC0100E1EE0300DDEE0300B5D40100CF
S214000060D5EE030055380000B5390000B38503000F
S214000070312600002F7B0300B3850300B385030001
S214000080B3850300B3850300D1390000B3850300B0
S214000090B3850300B3850300B3850300B38503006F
S2140000A0B3850300B3850300B3850300B38503005F
S2140000B0E9D40100D9EE03004D8D000025D50100DE
S2140000C0B38503004DF80100B3850300B385030034
S2140000D0B3850300B3850300B3850300B38503002F
S2140000E0B3850300B3850300B3850300B38503001F
S2140000F0B3850300B3850300B3850300B38503000F
S214000100B3850300B3850300B38503000000000039
S214000110013800D0FCE77047000000000000000037
S21400012001F0FF01102A2BDB10F0070F08D010F8A3
S214000130013B013A8B422DD010F0070F42B3F6D1A7
S214000140F0B441EA012141EA014122F007047FF0C0
S21400015000070023F0E80256083C85EA010586EA17
S214000160010685FA47F5A3FA87F586FA47F6A5FA53
S21400017087F68EB9EED1F0BC01F0FF0102F007025F
S21400018032B110F8013B013A83EA010313B1F8D10A
S2140001900020704701387047002D06BF35460338EB
S2140001A0073815F0010F07D1013015F4807F02BF24
S2140001B0013015F4C03F0130F0BC0138704700BF75
S2140001C02DE9F04FC9B00DF11B094FF0FD0B08AF3C
S2140001D0CDF80C90CDF808B001979A469DF85031AE
S2140001E0059303890093837904460E46904641881A
S2140001F08288407815F0F0FE054650B10090A3883E
S21400020062883B49002016F04DFA284649B0BDE802
S214000210F08F99F800003BF0D0FF38B12846A3884D
S2140002206288344916F03EFA8D25EEE75A4699F86C
S214000230000039463BF090FF8346002851D0529B81
S2140002401BB1BDF84C3198424BD899F80090A9F1F3
S21400025041020023012A07935FFA8BF123D8013964
S214000260254ADFF89CC05FFA81FE3846734513DBEB
S214000270059B07920421C3B907AF2048182202FB4A
S21400028006049FED197B20460A460830394684ED61
S214000290027B42F07DFC11E010F8011F51400CFB80
S2140002A001F20133E2E7059B33B1009623464A4646
S2140002B0384611F015F8A8E70829DED9B8F1000F7E
S2140002C001D088F80090BAF1000F01D0AAF800B06B
S2140002D0529B002B99D05A4608A9184642F058FC63
S2140002E093E7012591E700BF000000000000000032
S2140002F0E3FE040014FF0400C59D1C81781700204F
S21400030093010001000000002DE9F04F93B0CDE905
S2140003100A329DED1C7BDDE91E530E9353EC172B22
S214000320CDE90801104619468DED067B209E36F075
S214000330A7F980B1DDE90601C94B4FF0FF3236F070
S214000340C7F940B9DDE906014FF0FF326FF48013BC
S21400035036F0A0F980B10E9B2096CDE91E539DED98
S214000360067BDDE90A32DDE908018DED1C7B13B062
S214000370BDE8F04F00F08CB9DDE90601002200234D
S21400038036F088F9002800F03681DDE906A303F18F
S214000390004BCBF30A5016F48063A0F2FF3008BF80
S2140003A006250F9335F09AFE9DA3D3E9002335F07A
S2140003B0FFFE9DA3D3E9002335F044FDCBF31304E1
S2140003C0894644F07F518046A64B0022504641F4B1
S2140003D0401135F035FD96A3D3E9002335F0E8FE4D
S2140003E002460B464046494635F02CFD36F07AF973
S2140003F0044635F073FE90A3D3E900238046894671
S21400040035F0D6FE984B002235F01CFD36F06AF922
S2140004108BA3D3E9002307464946404635F0C8FE7D
S21400042080463846894635F059FE87A3D3E900232F
S21400043035F0BEFE02460B464046494635F000FD06
S21400044002460B46CDE90C2335F0B2FEDDE90C235F
S214000450804689461046194635F0F4FC834BCDE9B4
S214000460100100224046494635F0CCFF804B002262
S21400047035F0E8FC02460B464046494635F0C2FFDA
S2140004807C4B002235F0DEFC02460B4640464946D1
S21400049035F0B8FFDDE90C238046894600204FF092
S2140004A0804135F0CDFC02460B464046494635F0C5
S2140004B0C9FC02460B46DDE9100135F0A3FF07F242
S2140004C0FF376D4B002235F0BDFC00223B0535F0B2
S2140004D06FFE52465B468046894636F0F9F800289D
S2140004E040F08C80CDE90C8904F16303C72B34BF40
S2140004F00427052731051ED555A3D3E9002350460A
S214000500594636F0DBF8002800F0828052A3D3E983
S21400051000235046594636F0BDF8002878D0A5424C
S214000520C8BF2C1B4FF00007CCBF04F1FF350025D9
S21400053046F480663C460E9B9F4234BFA3EB0708FA
S2140005404FF0000816F0020903D0002F18BF4FF036
S21400055000083CB150465946DDE90C2335F052FF01
S21400056082468B46DDE906010022002336F092F82B
S21400057010B10BF100439B4626F40063CDE90383DC
S214000580CDE900ABDDE90A32DDE90801029500F0AD
S2140005907FF802465FB316F0200F00F10105DDE993
S2140005A009130CBF65204520089EB0470523059318
S2140005B000220A23002CCDE9023207F1FF374FEA6A
S2140005C0D473B8BF644201932A46DDE908010A9B4A
S2140005D0049700943DF082FD0246B9F1000F06D064
S2140005E00B9BC41A0B9B1A190E9BA34246D81046A7
S2140005F013B0BDE8F08FDDE906ABCAE61C4B00225F
S2140006004046494635F0FEFE013CCDE90C016BE75D
S214000610002D90D00F9B002B8DD0013D8BE700BFA7
S214000620FB799F501344D33FB3C8608B288AC63FDC
S21400063061436F63A787D23F71A379094F930A403E
S2140006401655B5BBB16B0240EF39FAFE422EE63FB7
S2140006502D431CEBE2361A3F0000000080842E413A
S214000660FFFFEF7F0000F83F0000E03F00002C4057
S21400067000002440000018400000F03FDDE90913A8
S214000680089D2020A8470134ACE700BF000000000A
S2140006902DE9F04F97B0DDE920ABCDE90501CDE9B6
S2140006A00723504652465B465946DDE92257249EAC
S2140006B035F0E6FF70B90323CDE922762193B44BDB
S2140006C02093DDE90501DDE9072317B0BDE8F04F0B
S2140006D03DF024BC4FF0FF326FF48013504659466D
S2140006E035F0D8FF28B104232193CDE92276A94B13
S2140006F0E6E7A94B4FF0FF325046594635F0E8FF83
S21400070068B1A64A06F00403002B08BF0322A44BD8
S2140007101CBF13460422CDE922762192D0E798A387
S214000720D3E900235046594635F0D2FF38B996A390
S214000730D3E900235046594635F0ACFF68B1DDE9F1
S2140007400723DDE90501CDE92376CDE920AB229527
S21400075017B0BDE8F04FFFF7D7BD00220023504684
S214000760594635F097FF002800F09A805B465246BF
S2140007700020002135F064FB012382468B46099356
S21400078016F4806400F08E80092D40F28E800EAB49
S214000790A5F10902002430210134202C03F8011BA6
S2140007A0A5EB040901D09442F6D15946504635F0DF
S2140007B099FF7C4B03EBC90393ED007B05468DED5B
S2140007C00A7B35F08BFC02460B465046594635F000
S2140007D037FBDDE90A2335F0EBFC02460B46CDE994
S2140007E00C2335F0A7FF804635F068FC02460B4622
S2140007F0DDE90C0135F024FB02460B46CDE90C235F
S214000800694B002235F064FF002851D008F101083A
S214000810404635F053FC02460B46DDE90A0135F04A
S21400082043FF10B101354FF00008B9F1000F50D169
S214000830284635F053FC02460B465046594635F0DE
S214000840FFFA594B00228046894635F023FF30B127
S214000850554B00224046494635F03AFF10B1E807AE
S21400086000D501350EAB1A190A21202C0AD095FBAB
S214000870F1F001FB1055303502F8015B01340546F6
S2140008800028F2D106F00302012A5FD1002F5DD0C6
S214000890099A12B916F00C0F00D0013F302244E03E
S2140008A009906DE74FF006097FE7A94600247CE72C
S2140008B0DDE90C013C4B002235F0ECFE0028B4D1FB
S2140008C0B8F1000F02D018F0010FAED008F1010801
S2140008D0ABE70EAB23440A21202C0DD0B8FBF1F079
S2140008E001FB10823032B8F1090F03F8012B09F131
S2140008F0FF3904F1010411D8A1440EAA3021202C9E
S214000900B0D0A14504F101030AD11C4609F15803F1
S2140009100DEB03092E2309F8203CA3E78046DBE70E
S214000920A1541C46EBE71A550134A7420ED9202CD9
S214000930F9D1CDE90034CDE90276DDE90723DDE91A
S21400094005013DF0EBFA17B0BDE8F08F202CF0D093
S214000950099A3AB104F158026A442D2102F8201C83
S2140009600134E6E7710704D504F158026A442B21E6
S214000970F4E73207DDD504F158026A442021EDE79A
S2140009800000000065CDCD410000000065CDCDC162
S214000990A92C0500AD2C0500FFFFEF7FA02C05005D
S2140009A0A52C0500B82C05000000E03F0000000064
S2140009B070B58EB02C22002103A842F0AFF9642354
S2140009C04FF00232CDE9052308930B238DF834301F
S2140009D0514B1B880121D8078DF8101000F1968026
S2140009E0084620F053FB4D4B4D494E484E4C0A22CC
S2140009F01A704FF42873ADF812301EF0F5F9206027
S214000A0020B94A4840F25B2106F078FF20680521AD
S214000A103EF0B0FC20B1454840F26B2106F06EFF78
S214000A20206801F011FE424B206819683EF0DBF8A2
S214000A3021F00EFA0C256843099021F009FA684364
S214000A4007900DEB0501206819F01CFD20B1374812
S214000A504FF4207106F052FF3649206800223EF01F
S214000A604DF920B1314840F2822106F047FF324E60
S214000A70324D96F9000040F203532B807F284FF04A
S214000A800503AB7001D120F05FFC3378EB7021F0EA
S214000A90DFF900EB80008000A88021F0D9F9002360
S214000AA0C000E880AB604FF0FF3019A3D3E9002305
S214000AB04FF0FF3120F0A6FC214920683EF02FFDC4
S214000AC0206802A93EF0F4F820B1184840F2BB2195
S214000AD006F014FF042220680DEB02013EF071F8C8
S214000AE0042804D0114840F2BE2106F007FF01A9F1
S214000AF001203FF04DF807F047F8012021F046FCB2
S214000B0038F0CBFA21F06CFC20F044FB0EB070BD40
S214000B100A0020FF42030000624A0020C85F00204F
S214000B20B510020020130020A8400020384B050016
S214000B3020110020D65F0020D41600209C40002004
S214000B40551202000348044B834202D0034B03B104
S214000B5018477047241700202417002000000000C4
S214000B600548064B1B1AD90F01EBA301491002D00A
S214000B70034B03B1184770472417002024170020A2
S214000B800000000010B5064C237843B9FFF7DAFFE3
S214000B90044B13B10448AFF300800123237010BD4B
S214000BA0EA4A002000000000B04F050008B5054BDB
S214000BB01BB105490548AFF30080BDE80840FFF7C4
S214000BC0CFBF00BF00000000681B0020B04F05002C
S214000BD0A3F5803A704700BF174B002B08BF134B96
S214000BE09D46FFF7F5FF00218B460F461348144A33
S214000BF0121A42F093F80E4B002B00D098470D4B7C
S214000C00002B00D098470020002104000D000D485E
S214000C10002802D00C48AFF3008036F0D7F820004A
S214000C20290036F045FF35F01DFF00BF0000080024
S214000C300000000000000000001000202417002024
S214000C40546000200000000000000000094A9042A6
S214000C5008B506D137F006FD012801D1064B1870FD
S214000C6008BD064A9042FBD137F0FCFC0128F7D1BC
S214000C70034BF4E74C9E0400EC4A0020349E04002C
S214000C80EB4A002008B50B4B1A7832B100200A490F
S214000C90187015F007FD00F0C9F9084B1A7842B134
S214000CA000200749187015F0FDFCBDE8084000F06C
S214000CB0F1B908BDEC4A0020C0310400EB4A002020
S214000CC0DD3104001FB5002401230246CDE90143AF
S214000CD00094024838F0B0F904B010BD801B002024
S214000CE02DE9F041DFF88C8098F80060074696BB47
S214000CF037F0ECFB304604F00FFC68BB184D284676
S214000D0004F072FC044638BB6FF07F43C5E901303F
S214000D101449284638F07DF9284637F0B7FF124BBD
S214000D2037B118461722394641F052FF0346C475BC
S214000D300E4A19780C4B002000290CBF11461946A4
S214000D40FFF7C0FF0A490220FFF7BCFF04F00CFCC7
S214000D50012388F8003001263046BDE8F08100BF48
S214000D60801B002088B90400494D0020043204008E
S214000D7010320400614D00202DE9F04F464B1C78E0
S214000D808DB00546002C61D0002800F082804348D4
S214000D9037F07CFF4249414838F03BF9414B424A24
S214000DA01978002000290CBF11461946FFF78AFF64
S214000DB0112107A836F02DFD68BB3C490120FFF73E
S214000DC081FF00264FF0FF33CDE902360823CDE938
S214000DD00033374A37493346284636F001FE044684
S214000DE008B33348DFF8B48000F01CFC32490346F1
S214000DF005460122304615F055FCB3462C4E142706
S214000E005D4527DC00F04CFA2C4B2D4900281CBF12
S214000E10044619460FE00A212A4A0AAB04A817F02E
S214000E2079FD04A9CAE724490346024615F03AFCB0
S214000E3000F036FA2449194800220123CDE901239F
S214000E4000920F2238F0F8F804F08EFB20460DB022
S214000E50BDE8F08F07F101094FF0000A5A465146E7
S214000E60304601F061F960B14FEA4A0101F10F0323
S214000E701031CDE90919404607A9CDE9073737F003
S214000E80B0FF0AF1010A5545E8D10BF1010B023714
S214000E90B6E70446DAE700BF614D0020801B00205D
S214000EA088B90400494D002018320400543204006A
S214000EB0ED4A00201B4C002066320400423204003B
S214000EC01F3204005E3204003132040013B53BF0DA
S214000ED0D6F802281BD10F4C01200BF003FF237815
S214000EE005210246009101330B49002015F0DAFB7C
S214000EF023780133DBB2042B237008D8074843F667
S214000F009822FF2102B0BDE8104039F073BA02B053
S214000F1010BD00BF624D002080320400AC1B0020D4
S214000F2010B53BF0ACF8022803D10B4B00221A7028
S214000F3010BD0FF047FB094904460246002015F095
S214000F40B1FB002CF4D0BDE81040054842F2107208
S214000F50FF2139F04FBA00BF644D0020B6320400BE
S214000F60CC1B002008B5074B1B7853B1064837F05A
S214000F700CFCBDE8084005484FF4FA72FF2139F032
S214000F8039BA08BD644D00207C9E0400EC1B00208E
S214000F9013B5FF241C4A1D480094234600210AF07E
S214000FA0A7FA1B4A1B480094234600210AF0A0FA21
S214000FB0194A1A480094234600210AF099FA3BF091
S214000FC05EF8022816480DD137F0D9FB154B1348AA
S214000FD000221A70214640F6B83202B0BDE8104032
S214000FE039F008BA37F0CEFB0F4B0A4801221A70C8
S214000FF0214640F6B83239F0FDF90448214602B0E1
S214001000BDE8104039F0FFB9650F0000EC1B00206A
S214001010210F0000CC1B0020CD0E0000AC1B0020D2
S2140010207C9E0400624D0020644D002008B53BF015
S21400103026F802280BD1114B01221A703FF087FDCB
S214001040BDE8084002460E49002015F02BBB3BF0D9
S21400105016F80128EFD00B4B0B4801221A7037F018
S21400106091FB0A48FF2140F6B83239F0C3F9BDE8D3
S21400107008400748FF2139F0C6B900BF634D00207D
S214001080D4320400644D00207C9E0400CC1B00205B
S214001090EC1B0020034B04480022FF211A7039F095
S2140010A0B2B900BF624D0020AC1B002010B502464E
S2140010B004461C49002015F0F5FA902C17D11A4B5F
S2140010C01A480024FF211C7039F0A5F9FF211848A2
S2140010D039F0A1F9174837F052FB174B17481C7028
S2140010E0BDE8104040F6B832FF2139F083B9912CA4
S2140010F016D1104837F046FB114B1A7882B1002201
S2140011001A70094B0A4801221A70FF2140F6B832BD
S21400111039F070F9BDE810400448FF2139F073B982
S21400112010BD00BFF3320400644D0020EC1B00200D
S214001130CC1B00207C9E0400624D0020AC1B0020CF
S214001140634D002010B5024604460749002015F0FE
S214001150A9FA3CB1BDE81040044842F21072FF21E3
S21400116039F048B910BD00BF0C330400CC1B00207A
S21400117030B5062985B014D19AB9402B11D1012378
S21400118000930DF10F033BF009FC044648B99DF8A7
S2140011900F5007483DB137F0F2FA0649204615F0E1
S2140011A081FA05B030BD37F0EDFA03492846F6E778
S2140011B0649E04002D330400373304001FB501235A
S2140011C00022009306210DF10F038DF80F203BF04F
S2140011D0E5FB28B99DF80F30044823B137F0CFFA65
S2140011E005B05DF804FB37F0CDFAF9E7649E04001D
S2140011F073B50446684614F097F90B4902A8002315
S214001200651C10F8012D160902F00F028E5D8A5C2F
S21400121004F8136005F813200133082BF1D10023DE
S2140012200120237402B070BDD933040070B519498B
S21400123086B01423098804467F2201A838F0CEFE23
S214001240BDF8043013F001030DD0134B03F12C024C
S21400125053F8041B44F8041B9342F9D11B782370FF
S214001260012006B070BD0D490DF10500651C10F893
S214001270012F160902F00F028E5D8A5C04F81360D7
S21400128005F813200133122BF1D1002384F8243003
S214001290E6E700BFB2D6040042330400D9330400A8
S2140012A07FB5074901A8098814237F2238F096FEE7
S2140012B0BDF8040000F0010007B05DF804FB00BFB5
S2140012C0B2D60400F0B50C469BB0054600B119B97D
S2140012D04FF0FF301BB0F0BD05AE3046FFF788FF7D
S2140012E00028F5D00AAF3846FFF7A0FF0028EFD059
S2140012F0084B0393084B094A0096CDE90173214633
S2140013000123284617F006FB0028E1DBA042E1D3C4
S214001310DEE700BFBF330400D33304006F3304009E
S214001320B1F5004F08B52BD201280CD10A2303FBD8
S21400133001F002300323B0FBF3F0B0F5004FA8BF76
S2140013404FF0FF3008BD0238062812D8DFE800F05C
S21400135004110A1111100C000B2303FB01F00130DD
S2140013604010EAE7C800E8E70D2303FB01F0E4E7D6
S21400137049B1064B064A074840F2633135F0ECFDAA
S2140013804FF0FF30DEE71820DCE700BFEA3304004A
S214001390EF3A0400F033040008B54B1E272B06D99D
S2140013A0124B134A40F2F631124835F0D5FD01389B
S2140013B007311123B1FBF3F107280FD8DFE800F05F
S2140013C004080E0A0E0E130C0B4B53F8210008BD32
S2140013D00A4BFAE70A4BF8E70A4BF6E70A4B044AC9
S2140013E040F2FE31E0E70020F1E700BF3F3704009F
S2140013F0B03A0400F0330400A43A0400983A04001B
S2140014008C3A0400803A0400EA330400102970B5D0
S21400141002D830FA01F405D00D4B0E4A0E48BD2115
S21400142035F09AFD01394C1C00D170BD1D6820FABC
S21400143001F4EE10ED4305F0070504F00104AC409E
S214001440955D2C4394551C68013401391C60EAE70D
S21400145003340400583A0400F033040008B5431E71
S214001460272B024606D9134B134A40F2571113484E
S21400147035F072FD00F1080343430433012A4FEAB6
S21400148003100CD00721192392FBF1F102314B43D4
S2140014900A3B4B43373BC01A062AC8BF2438A0F184
S2140014A0D003B3F5E64F04D9054B034A40F25F116B
S2140014B0DDE708BD47340400153A0400F0330400A5
S2140014C08434040038B50478A4F115059C2D03D89F
S2140014D08C4201D9944206D80C4B0D4A0D4840F276
S2140014E00F3135F039FD02FB0411CC10013401F048
S2140014F007010125025D05FA01F123B142EA010365
S214001500DBB2035538BD22EA0103FAE7A53404002E
S214001510E5390400F0330400426801EB41019142D2
S21400152010B506DA174B184A18484FF4347135F0E0
S21400153013FD002A22DD836893421FD1C16802EBA7
S214001540420399421AD10369934217D143699342E1
S21400155014D101688069B1EB820F4FEA82040BDB7D
S2140015608242CCBF00230123844208DC9142B4BFF0
S21400157000200120184410BD0023F5E700230020BA
S214001580F8E700BFF3340400A1390400F033040088
S214001590032938B505460C4606D90C4B0C4A0D48AF
S2140015A04FF4A67135F0D8FCFFF758FF29225443B4
S2140015B0094A2244031E5057084A2244B8BF07333C
S2140015C0525710FB02F0C0EBE30038BD03350400B1
S2140015D06B3A0400F0330400A83B0400043B04000C
S2140015E010B50378A3F115049C2C03D88B4201D9BF
S2140015F0934206D8084B094A094840F2063135F0AE
S214001600ABFC02FB031100EBE10001F007014078A0
S214001610084100F0010010BDA5340400F6390400AE
S214001620F033040008B530B9084B094A40F2F321FC
S214001630084835F091FC0078A0F115039C2B04D9DE
S214001640054B034A40F2F521F2E708BD13350400C6
S21400165065390400F0330400223504002DE9F74F05
S214001660D3B2072B01908846174606D9394B3A4A1B
S2140016703A4840F2632135F06FFC0846FFF7D2FF88
S214001680DFF8DCB081460025013F4D4502DB03B0A4
S214001690BDE8F08F0026B24601982A465146FFF76D
S2140016A09FFFF0B9062F05D8DFE807F00A222A2F99
S2140016B035424A000AEB0504E44304F0010403E063
S2140016C005F0010484F001042A4651464046FFF71F
S2140016D087FF84EA0003DBB22A4651464046FFF7FE
S2140016E0F1FE0AF1010AD1452E44D5D10135CCE7E9
S2140016F00BFB0AF4B4F1553F8CBF00240124E3E74A
S2140017000AEB05040BFB04F4F4E70324BAFBF4F439
S21400171004EB6504D0E70323B6FBF3F303EB4303C4
S21400172006F00102F31ADA420CBF01240024CBE7CC
S2140017300324B6FBF4F404EB4404C4EB4604BBE712
S2140017400322B6FBF2F202EB42020AEB0504B21ADF
S2140017501444B1E77B35040097390400F0330400E5
S214001760ABAAAAAACBB2072B2DE9F041154606D99B
S2140017703D4B3E4A40F209213D4835F0EDFB3D4BDE
S21400178053F8203041EAC3010C460A2340F2375092
S21400179062124243013B82EA4404F9D144EA8124BE
S2140017A084F4A846E41386F0120604D0324B2F4A7F
S2140017B04FF40471E0E746FA04F3224603F001030F
S2140017C0082128460134FFF77DFE062CF3D1C6F328
S2140017D08013072208212846FFF774FE08221146C8
S2140017E0C6F3C0132846FFF76DFEC6F30023082293
S2140017F007212846FFF766FE092446FA04F3C4F1DB
S2140018000E0103F00103082228460134FFF75AFEB2
S2140018100F2CF2D12846FFF705FF012704467B1E52
S21400182046FA03F3E11B03F00103082228460137BA
S214001830FFF748FE092FF2D10727C7F10F0346FA34
S21400184003F3E21B03F0010308212846FFF73AFEE4
S214001850013FF2D1A4F1080228460123BDE8F04179
S2140018600821FFF72FBE00BF7B350400883904002F
S214001870F0330400783904009C3504002DE9F04F5D
S21400188097B09A469DF9843002939DF88830DDF82B
S21400189090B001920E460593074630B929B1A54B84
S2140018A0A54AD121A54835F057FBBAF1000F04DD53
S2140018B0209B9A4501DC282B03DDA14B9E4AD221B2
S2140018C0F0E7019B032B04D8029B0133DBB2082B05
S2140018D03ED99C4B984AD321E4E7964B9A4A40F26D
S2140018E0DF31DFE7D8F804300393039AD8F80C30DA
S2140018F0B2F5004F04D3954B934A4FF47971D1E774
S214001900B3F5004F04D3924B8F4A40F2E531C9E756
S21400191098F8000006935146FFF73EFD1028069BF8
S21400192004D98C4B884A40F2E731BBE70399012281
S214001930824091421FDA043018440444B4F5004F44
S21400194008F1100817DA09F101090EE00AF1010A98
S21400195001995046FFF71CFE04900FB9002EBCD12B
S2140019604FF000093D46B8464C464E45BAD1049B5A
S214001970B4EBC30F08DD209B9A45E7D100208BF817
S214001980000017B0BDE8F08F0127059B5BB15FFA3A
S21400199087F841465046FFF7FBFDB4EBC00F019BAE
S2140019A0D8BF434601930137042FEED14FEA8A028F
S2140019B0113252430732D210013200215846002716
S2140019C041F0ACF90D97B74206D10D9BA3422DD03E
S2140019D0614B594AF52165E70DAB5A462878042134
S2140019E0FFF714FD28785146FFF7D6FC0DAB0146ED
S2140019F05A466868FFF70AFD4FF00008EB68434553
S214001A0002DC01371035DEE7AA684FEAE803012159
S214001A10D05C6FEA080303F0070318415A460DAB83
S214001A200840FFF7F3FC08F10108E7E70199504684
S214001A30FFF7AEFDB4EBC00F4FEAC00503DD474B22
S214001A403D4AF9212EE7291B0429A8BF04210DAB26
S214001A505A460020FFF7DAFC0D994B4203F00703C5
S214001A6001F0070158BF594249420DAB5A4601F0F2
S214001A7007010020FFF7CAFC0D9B5A0717D0384B0A
S214001A802D4AFF210EE720460DAB5A460821FFF7E8
S214001A90BDFC84F0FD040D9BAB42F4DB0AF1FF3382
S214001AA0272B06D92F4B304A40F22B11FAE6EC24AE
S214001AB0F1E7019A292353432C4A1A44504612F957
S214001AC00A702B4A134413F90A50FFF7C7FC019912
S214001AD004465046FFF75CFD6B1E1D2B06900393D5
S214001AE004D9244B244A4FF4B571DBE62A4600217C
S214001AF00EA841F013F9039B58336B44012603F8F4
S214001B00206C4FF000090DF13808002298F800000C
S214001B100492314635F084FE049A08F8010B01322F
S214001B20954240F3D88298F80030584008F8010CE7
S214001B30ECE700BFAC350400CE3A0400F0330400F6
S214001B40C53504002C360400C13A04007036040083
S214001B5097360400C0360400DC360400F336040072
S214001B600E3704001E370400443A0400043B040009
S214001B70A83B0400843704002A3A0400DDE9072362
S214001B800021B242D8BF013320462A46049341F0D2
S214001B90C5F84FF00008049B434532DC324600236C
S214001BA00499994251DC069B04EB050CF218234677
S214001BB013F8010B2399634588543A44F8D1049BE3
S214001BC001369944B742D9DC5946504635F079FE7D
S214001BD05046FFF743FC041E5846B8BF0734FFF7CD
S214001BE021FDE410E3000746451E04930026002D61
S214001BF037DCB6EBC40F71D0B54BB64A40F259216C
S214001C0050E619F8082023780A9953402046039A8C
S214001C10099341F069F8039B4FF00002E254631EFB
S214001C20059300220EAB0999985C0B9235F0F8FDEF
S214001C30059A12F8013F0592584010700B9A01322F
S214001C409542EFDC08F10108A5E708992398994228
S214001C5004BF0799521A19F80310815401333A4405
S214001C609EE7062D08BF05254FF0010905EB090381
S214001C7003F00203059309F1FF38474501DC023DF6
S214001C80B5E7059AA7EB0903002A08BF9846CDF8E2
S214001C900C804FF00008A5EB0801039A0691584601
S214001CA0FFF79EFC88B9049B0699B3420DDD239A84
S214001CB0F3105846D35CF24302F00702134103F0D8
S214001CC00103039AFFF7FEFB0136B8F1000F02D0BE
S214001CD009F10109CFE74FF00108DCE75846FFF7A6
S214001CE0A1FC07250446C61FB542C0F2AD806FF0C2
S214001CF0030504EB050985EAE57809EB05030826E4
S214001D00A8EBE5780393C6F10403002BB8BF5B424B
S214001D104345B8BF4346142222FA03F3DB0711D526
S214001D20C6F10707EA1C39465846049235F04AFEC3
S214001D30049AA11B584635F045FE039A3946584684
S214001D4035F040FE013EDED20135052DD3D10EA979
S214001D50504635F07DFD071E00F3B080BAF1060F41
S214001D6028DD55460C2341F62571EA124A43013B0D
S214001D7082EA4505F9D145EA0A35AF1440F0A3805A
S214001D80A4F10808A4F10B0605F0010931464B46FC
S214001D903A465846FFF796FB32464B463946584673
S214001DA00136FFF78FFBB0454FEA6505ECD10137EA
S214001DB0062FE7D12399504635F083FD029B013369
S214001DC040F07D816FF000434FF0000A04934FFA15
S214001DD08AF31A46239803935946FFF73FFC039964
S214001DE001985A46FFF7BEFC5846FFF71BFC4FF01B
S214001DF0000805464446454576DC4FF00008454554
S214001E0000F3BA80002705F1FF394F45C0F2FC8089
S214001E1000273E46BD4200F31C816D436FF0090368
S214001E206B43142202FB0633002BB8BF5B422B44E5
S214001E30013B93FBF5F3013B092B40F21981264B3E
S214001E40264A40F2C5212DE52A460023062158469B
S214001E50FFF738FB2946002306225846FFF732FBD9
S214001E60023541E7039BAB424FF000061AD04FF015
S214001E70FF394FF0FF3859EA08030EAB58469A5D13
S214001E80595D4A440CBF01230023414408F1010870
S214001E90FFF718FBB8F1020FEDD109F10109B9F10E
S214001EA0020FE6D10136B74204D0002DDFD1039BE6
S214001EB0B342DCD10135AF42D4DC4FE700257B1EB0
S214001EC02E460393EEE7064B064A40F2F511E9E488
S214001ED0BF370400073A0400E0370400BC390400AA
S214001EE0D0370400CC3904001C2200210EA840F094
S214001EF015FF00263746B146424639465846FFF794
S214001F006FFB484521D10136052E1BD1033401371E
S214001F10BD42F1D1B9F1000F05D030462A460EA9D0
S214001F2035F043FD00263A460EA9B81935F03DFDBA
S214001F3039460EA8FFF7F0FA282303FB004408F101
S214001F40010858E7E3DD0134E1E72A460EA93046EA
S214001F5035F02BFDB9F1000F06D129460EA8FFF784
S214001F60DBFA282303FB0044424639465846FFF76F
S214001F7037FB01268146CAE71C2200210EA840F046
S214001F80CDFE00263746B1463A4641465846FFF74C
S214001F9027FB484521D10136052E1BD103340137D6
S214001FA0BD42F1D1B9F1000F05D030462A460EA940
S214001FB035F0FBFC00263A460EA9B81935F0F5FCBC
S214001FC039460EA8FFF7A8FA282303FB004408F1B9
S214001FD0010814E7E3DD0134E1E72A460EA930469E
S214001FE035F0E3FCB9F1000F06D129460EA8FFF73D
S214001FF093FA282303FB00443A4641465846FFF727
S214002000EFFA01268146CAE77B1C00260593314677
S2140020103A465846FFF7E4FA0696013680463A46B0
S21400202031465846FFF7DCFA80450ED1DDE905213A
S2140020305846FFF7D5FA804507D1059A31465846E7
S214002040FFF7CEFA804508BF03344E45DFDB013785
S214002050DBE64FF000083A4641465846FFF7C0FA1E
S21400206000B1013608F101084545F4D10137D1E643
S2140020700A2202FB0344274B9C4204D9264B274ADC
S21400208040F2C7210EE4049B039A23989C42BCBFEF
S214002090039B049459460AF1010AB8BF0293FFF75E
S2140020A0DDFABAF1080F7FF492AE9DF80830072BE0
S2140020B005D91B4B1B4A40F21B11FFF7F3BB029AD4
S2140020C023985946FFF7CAFADDE901015A46FFF799
S2140020D049FB012055E43046022135F0A1FB09F109
S2140020E001094D4506463FF70EAD002CB8BF073434
S2140020F0E41094FBF7F307FB13445B1B0893069B63
S2140021003A1B0BEB0304631C07920026D9460A937E
S21400211058E500BFB8322700F1370400BC39040088
S2140021207B350400CE3A040038B530B9094B0A4A6C
S2140021300A4840F2FD2134F00FFF0378994206D298
S214002140934204D9FFF74CFA00F0010038BD002096
S214002150FAE700BF1335040051390400F0330400D9
S21400216008B528B1013810F8013F43B9012008BD71
S214002170054B064A064840F22D3134F0EDFE303B62
S214002180092BF0D90020F2E7133804003D3904008B
S214002190F033040038B530B1094D441E14F8011F61
S2140021A041B901200BE0074B074A08484FF44E712F
S2140021B034F0D2FE284640F0DEFC0028EED138BDD2
S2140021C0203804001338040024390400F0330400D7
S2140021D008B5FFF7A5F8431C0BD0B0F5004F06D3A3
S2140021E0044B054A054840F2463134F0B5FE073048
S2140021F0C00808BD4E38040004390400F03304005B
S2140022002DE9FF41054616460C4631B92D4B2E4AA0
S21400221040F27E312D4834F09FFE084640F0EBFC3D
S2140022208046414601208DF80000FFF779F8431CF0
S214002230074604D1264B244A40F28331EAE70028B9
S214002240CDF8048005DDC21DD2080021304640F0DE
S21400225065FD00210391013C08464FF00A0814F87A
S214002260013F7BB931B101EB410103AB324601318D
S214002270FFF7CCF8039BBB421AD0164B124A4FF41A
S2140022806671C7E7303BDAB2092A04D9124B0E4A08
S21400229040F28D31BEE70131032908FB0030DED164
S2140022A00A2103AB3246FFF7B1F800200146D6E715
S2140022B0029604AB13E90F0085E80F00284604B029
S2140022C0BDE8F0816D380400EE380400F0330400F9
S2140022D07C380400AB380400963804002DE9FF472C
S2140022E0064617460D4631B92F4B304A4FF46871F3
S2140022F02F4834F031FE084640F07DFC0446214667
S21400230002208DF80000FFF70BF8B0F1FF3F804683
S21400231004D1284B254A40F2A531E9E7002801946C
S21400232005DDC21DD2080021384640F0F7FC002427
S214002330DFF888A00394013DA14615F8011F71B986
S2140023402CB103AB3A4606214846FFF75FF8039BDD
S21400235043451FD0184B154A40F2BA31C8E7174814
S21400236040F009FC20B9164B104A40F2AF31BFE7E7
S214002370A0EB0A002D2303FB09094CB1484603AB2A
S2140023803A460B214FF00009FFF740F84C46D4E7D9
S2140023900124D2E7029704AB13E90F0086E80F008A
S2140023A0304604B0BDE8F08713380400D338040084
S2140023B0F03304007C380400AB38040020380400F6
S2140023C0C638040000B5B9B0FEF7E2FD35F020FAD5
S2140023D00B48FEF785FC40B1E0216846FEF772FF29
S2140023E0002802DD6846FEF7C7FC39F048FE0549BE
S2140023F00246002039B05DF804EB14F053B900BF74
S2140024004C3C0400563C040030B50A4C0A4B22688B
S2140024100A4D1A6085B00A4B2B600A4B019304F0F4
S214002420BFFC2B68029001A92068039337F02AF8B6
S21400243005B030BDA4100020302A00202C2A002031
S21400244098100020399D0400014B186837F02EB80C
S214002450A410002038B5084D04F0A2FC2B680446F2
S214002460D3F8B00204F090FC286837F032F8204623
S214002470BDE8384004F088BCA410002038B501F050
S2140024800FFF0E480E4C012101F094FB012211466D
S214002490002001F069FE022501221146C4F8805092
S2140024A0002001F061FE0122C4F88450114600208D
S2140024B001F05AFEC4F88850002038BD30253E0092
S2140024C000400E4008B5224B01225A6402F0C6FEB8
S2140024D0A0B9204B4AF6E852C3F89021D3F89821C9
S2140024E042F00402C3F89821C3F89001194AD2F8C2
S2140024F0643143F40053C2F8643101E00128F5D09A
S214002500154A136A23F4441343F488131362A2F59E
S2140025108042136843F48073136004F017FC00F0E5
S214002520EDFB04F0B1FB04F0FDFB04F0C3FBFFF78A
S214002530A5FF37F032FB00F0D3FB00F04FFE04F0AF
S21400254013FF01F053FABDE8084005F06BBD00BF6D
S21400255000000E4000300E4000400E4030B5204DCA
S2140025600FCD97B00FAC0FC495E807001D4B84E85D
S21400257007001D4ACDE903234FF08073059303F14E
S214002580022306934FF0F0511E23CDE907130E22C7
S21400259000210DF12E0040F0C1FB144B4FF44020FB
S2140025A0CDE909030C238DF82C300D238DF82D3042
S2140025B00F4B0C9320230D9301238DF839300D4BD0
S2140025C000930FAA03AB09A90B4804F0F9FD0021FC
S2140025D004464FF4E13035F0BEFF204617B030BD5C
S2140025E0189E040000420400000001401C00014048
S2140025F0654D0020C81E00201C1F0020012905D89C
S214002600034B1B68186808B1436A1847704700BF39
S214002610A810002008B50449044805F0B1FDBDE83F
S2140026200840FFF79BBF00BFAC100020401F0020F3
S214002630014837F048BC00BF1C1F0020014B1A6A37
S214002640186810471C1F002008B517F049FF024BFA
S21400265000221A7008BD00BF854D002008B504484A
S21400266035F0FBFFBDE80840024835F0F6BF00BF76
S2140026704C9E0400349E040008B5044836F07CF8EE
S214002680BDE80840024836F077B800BF7C9E0400DC
S214002690649E04001FB50849034602AA0868097923
S2140026A002908DF80C10009205210022012008F0FF
S2140026B0BBF805B05DF804FB949E04001FB50A4AFB
S2140026C003461068029002A990889279ADF80C0033
S2140026D08DF80E20009144224FF44071012008F03E
S2140026E0A3F805B05DF804FB9A9E04001FB50849E0
S2140026F0034602AA0868097902908DF80C10009229
S21400270005214222012008F08FF805B05DF804FB91
S214002710A29E04001FB50849034602AA0868097964
S21400272002908DF80C10009205214022012008F03E
S2140027307BF805B05DF804FB949E04001FB5074ABD
S214002740039203AA034600924FF4407141220120EF
S21400275008F06AF805B05DF804FB00BF010221210D
S2140027601FB50949034602AA0868097902908DF840
S2140027700C1000924FF440714022012008F054F8EB
S21400278005B05DF804FB00BFA89E04001FB509490C
S214002790034602AA0868097902908DF80C10009288
S2140027A04FF440714322012008F03EF805B05DF872
S2140027B004FB00BFA89E04001FB50949034602AAF1
S2140027C00868097902908DF80C1000924FF4407159
S2140027D04222012008F028F805B05DF804FB00BF8F
S2140027E09C9E04001FB5064A039203AA009201228B
S2140027F003460821104608F017F805B05DF804FBFC
S214002800010121211FB5074A039203AA034600923D
S2140028104FF440710822012008F006F805B05DF874
S21400282004FB00BF121221211FB5094A0346106897
S2140028309288ADF80C2002AA029000924FF44071E4
S2140028404B22012007F0F0FF05B05DF804FB00BF47
S214002850AE9E04001FB5074A039203AA0092012207
S21400286003464FF44071104607F0DEFF05B05DF8F2
S21400287004FB00BF010121211FB5074A039203AAEA
S214002880034600924FF440710422012007F0CCFF6B
S21400289005B05DF804FB00BF010121211FB5094901
S2140028A0034602AA0868097902908DF80C10009277
S2140028B04FF440710722012007F0B6FF05B05DF81F
S2140028C004FB00BFAF9E04001FB5074A039203AA8D
S2140028D0034600924FF440710A22012007F0A4FF3D
S2140028E005B05DF804FB00BF020221211FB50949AF
S2140028F0034602AA0868097902908DF80C10009227
S2140029004FF440710022012007F08EFF05B05DF8FD
S21400291004FB00BFB59E04001FB50949034602AA82
S2140029200868097902908DF80C1000924FF44071F7
S2140029300622012007F078FF05B05DF804FB00BF13
S214002940B59E04001FB5064A039203AA03460092EA
S21400295008210022012007F067FF05B05DF804FBA0
S214002960010221211FB5074A039203AA03460092DB
S2140029704FF440710322012007F056FF05B05DF8C2
S21400298004FB00BF010221211FB50949034603AA23
S21400299008888978ADF80C008DF80E100092062194
S2140029A04222012007F040FF05B05DF804FB00BF9F
S2140029B0BB9E04001FB5094903AA03460092088877
S2140029C08978ADF80C0005228DF80E10012011460E
S2140029D007F02AFF05B05DF804FB00BFBF9E0400A9
S2140029E01FB50849034602AA0868097902908DF8BF
S2140029F00C10009208210222012007F015FF05B0F6
S214002A005DF804FBB59E04001FB50949034602AAFB
S214002A100868097902908DF80C1000924FF4407106
S214002A200922012007F000FF05B05DF804FB00BF97
S214002A30C39E04001FB50A4A03461068029002A906
S214002A4090889279ADF80C008DF80E2000914C22FB
S214002A504FF44071012007F0E7FE05B05DF804FB77
S214002A60C99E04001FB50949034602AA08680979E9
S214002A7002908DF80C1000924FF440710222012053
S214002A8007F0D2FE05B05DF804FB00BFD19E04003F
S214002A901FB50949034602AA0868097902908DF80D
S214002AA00C1000924FF440710522012007F0BCFE86
S214002AB005B05DF804FB00BFD19E04001FB50949B0
S214002AC0034603AA08888978ADF80C008DF80E1026
S214002AD0009208210622012007F0A6FE05B05DF848
S214002AE004FB00BFD79E04000A46014935F0F7B93B
S214002AF030B804000A46014935F0F1B925B804009B
S214002B000A46014935F0EBB920B804000A460149E7
S214002B1035F0E5B91BB804000A46014935F0DFB9BF
S214002B2016B804000A46014935F0D9B911B80400B0
S214002B300A46014935F0D3B904B804000A460149EB
S214002B4035F0CDB9F5B704000A46014935F0C7B9E6
S214002B50F0B704000A46014935F0C1B9E7B70400EA
S214002B600A46014935F0BBB9DEB704000A460149FA
S214002B7035F0B5B9D5B704000A46014935F0AFB906
S214002B80CEB704000A46014935F0A9B9C3B7040018
S214002B900A46014935F0A3B9B8B704000A46014908
S214002BA035F09DB9ADB704000A46014935F097B92E
S214002BB0A4B704000A46014935F091B999B7040054
S214002BC00A46014935F08BB996B704000A46014912
S214002BD035F085B993B704000A46014935F07FB948
S214002BE090B704000A46014935F079B98DB704005C
S214002BF00A46014935F073B98AB704000A46014906
S214002C0035F06DB985B704000A46014935F067B955
S214002C1080B704000A46014935F061B977B7040069
S214002C200A46014935F05BB96CB704000A4601490B
S214002C3035F055B967B704000A46014935F04FB973
S214002C4062B704000A46014935F049B95DB7040089
S214002C500A46014935F043B958B704000A46014907
S214002C6035F03DB94DB704000A46014935F037B98D
S214002C7042B704000A46014935F031B93BB70400B3
S214002C800A46014935F02BB938B704000A4601490F
S214002C9035F025B935B704000A46014935F01FB9A5
S214002CA02AB704000A46014935F019B925B70400C9
S214002CB00A46014935F013B91CB704000A46014913
S214002CC035F00DB913B704000A46014935F007B9C7
S214002CD00EB704000A46014935F001B903B70400EF
S214002CE008B50548012100F065FF34F0E9FEBDE8AF
S214002CF0084000F04FB900BF00350A000148012126
S214002D0000F058BF00350A0007B5082035F01DFD55
S214002D10064B02226846CDE9002335F0E0FB08208A
S214002D2003B05DF804EB35F01BBD00BF006A181059
S214002D302DE9F0431F4E0446894690460FCE89B0D3
S214002D4001AD0FC596E8070085E8070025681A4814
S214002D506E6FAF6F012100F02DFF6068012100F05B
S214002D6029FF617B207B0023042201F0FFFF617AAC
S214002D70207A0422002301F0F9FF0123284601A946
S214002D808DF81230CDF80C90ADF8148035F020FF99
S214002D90237CA27B1B0643EA022307F01F0706F0EC
S214002DA001063B4346F00A060020AB676E6709B093
S214002DB0BDE8F08338B8040000350A00024B4FF433
S214002DC00052C3F8A820704700A0004013B5044680
S214002DD005F0E2FD217B00230122CDE90032490007
S214002DE0034AB0FBF1F1034837F051F902B010BDC9
S214002DF0BD2D00005C1F002073B50F4B0F4E4FF427
S214002E008045C3F89C500446407B06F061FA0423D4
S214002E1002220DF106013046ADF8063035F0A9FB6A
S214002E20304635F0B7FBA07B06F052FA044B002084
S214002E30C3F89C5002B070BD00A00046D010002021
S214002E4000A0004470B5064601211248124C00F05E
S214002E50B1FEB16811480022FFF76AFF0023042282
S214002E600E21032001F082FF3546002304220D21A7
S214002E70032001F07BFF0FCD0FC42B682360084BA7
S214002E80012230461A70FFF7A1FF3046FFF7B4FF65
S214002E90002070BD00350A00481F0020D01000201A
S214002EA0864D00202DE9F74F0688DFF8A890984653
S214002EB003795E43264B14464FF48042C3F89C20A9
S214002EC00134A4B20546407B0F4606F001FA230201
S214002ED043F001031F48ADF8063002220DF106014B
S214002EE0013435F046FB2402F610A4B24FF0000B76
S214002EF008F1FF3AC34511D1164835F04BFBA87BC5
S214002F0006F0E6F9144B13484FF48042C3F89C20B1
S214002F1035F045FB002003B0BDE8F08F3946324659
S214002F20484635F026FBDA4514BF44F0FF034FF65B
S214002F30FF7302220DF10601484604F58074ADF8D1
S214002F400630374435F015FB0BF1010BA4B2D1E780
S214002F5000A00046D010002000A00044034B044808
S214002F601B78002B08BF0020704700BF864D00204E
S214002F70481F002030B5064D0FCD87B001AC0FC4FA
S214002F802B68236001A8FFF75DFF07B030BD00BFC8
S214002F9054B804002DE9F0433B4D3C4FDFF8009158
S214002FA0DFF800810FCD89B001AC0FC495E80700AB
S214002FB084E80700364C3748012100F0FBFD384610
S214002FC0012100F0F7FD0125334B039301A92046AC
S214002FD08DF8125035F0FCFD2B4604220621022007
S214002FE001F0C4FE2A4600230721022001F0BEFE9F
S214002FF02B4604220821022001F0B8FE04221146C6
S2140030002B46002001F0B2FE244BA3670B23636718
S21400301010264FF4487006F05BF9C9F80C601420CF
S21400302006F056F9C8F80C60232006F051F9C9F8E6
S2140030300C60B921204635F010FE00231A46C8F869
S2140030400C600621022001F091FE00231A4607219B
S214003050022001F08BFE2B4600220821022001F000
S21400306085FE002210462B46042101F07FFE2046F6
S21400307002F04CF90021A1673846616700F09AFD1E
S21400308009B0BDE8F08300BF68B804000052040031
S2140030900004014000350A0000127A000B0B000BFA
S2140030A000A0004400A0004608B500F083F8124BCC
S2140030B012498B4212D3124B124900208B4218D36E
S2140030C0FDF78AFD186850F82240586840F82240FC
S2140030D0013298688242F5D30C33EAE70022F8E71B
S2140030E01C6844F8220001325C68A242F8D3083318
S2140030F0E4E70022F8E700BFB84F0500C44F05001C
S214003100C44F0500C44F05000048704700F0490250
S214003110104AD2F8943003F00703023B032B13D86F
S214003120DFE803F00C14020E0B4B1B68D2F800010C
S214003130C0F304200130B3FBF0F07047074BF4E710
S214003140074B1B685B08F1E7054BEEE74FF40043BF
S214003150ECE700BF00400E40EC100020F01000200E
S214003160E410002008B5FFF7D3FF054BD3F808316D
S214003170C3F308230133B0FBF3F0024B186008BD1D
S21400318000400E40E8100020014B1868704700BF52
S214003190F0100020054B1860054BD3F8943003F070
S2140031A00703022B01D1FFF7DDBF7047F0100020A8
S2140031B000400E40044B054A9A60D3F8882042F43B
S2140031C07002C3F88820704700ED00E000000000A1
S2140031D0014B1868704700BFEC1000200F4BD3F867
S2140031E02838A3F17E62A2F58432B2F5104F10B5EE
S2140031F011D219680A4A91420DD10A4C227812F06F
S214003200FD0F01D0002010BDDB6998470028FAD1D9
S21400321001232370F6E74FF48170F4E70000E10F16
S21400322007B0CD5E874D002070B5D0B1C9B10E4E47
S214003230431E013913F8014F325D02F00302012AE2
S21400324011F8012FB55C05F00305204608BF04F110
S2140032502000012D08BF2032801A01D1002CE9D1B0
S21400326070BD0120FCE700BF7D4E0500054A0649FB
S2140032700346106803448B4294BF13604FF0FF3040
S214003280704700BFF41000200000042037B5046823
S21400329001210546124800F08DFC00236179207953
S2140032A0012201F063FD6179207935F0E0F9B0FA8A
S2140032B080F35B092370A379022B0ED100F01EFB6E
S2140032C0084960792A4600F043FB012361790246EB
S2140032D02079CDE9003301F005FD002003B030BDB4
S2140032E000350A008986030008B52948012100F048
S2140032F061FC012304220221052001F037FD002095
S21400330001F0E4FC234B0122C3F8102811460420E8
S21400331000F02AFF204800F09FFD204BD3F8F02055
S21400332042F00102C3F8F020D3F8FC2042F080728D
S214003330C3F8FC20A3F55D43194A1A6000F5D520B2
S214003340184B00F2FC40B0FBF3F0174B013802229A
S2140033501861C3F8F0204FF48072C3F804234FF0CE
S2140033606043124AC3F8B02F114AC3F8802ED3F830
S214003370002E42F48072C3F8002EFF2283F820202D
S214003380D3F8002E22F48072C3F8002E002008BD69
S21400339000350A000080144206000E0000ED00E032
S2140033A0FF030040F8590D00000004E055CEACC500
S2140033B0090001004FF0604330B5D3F8802ED207E5
S2140033C015D501240B4D8440D5F8FC2042F08072C0
S2140033D0C5F8FC20D3F8002E2243C3F8002E53F87D
S2140033E02020002AF0D003F82010002030BD112045
S2140033F0FCE700BF00ED00E010B5012104460948D7
S21400340000F0D8FB0848012100F0D4FBA378207810
S2140034106178B3FA83F35B09042201F0A7FC00206D
S21400342010BD00BF4041050000350A002DE9F04FF1
S2140034309A46554B85B01B78DDF83C909DF844B015
S214003440DDF8508006460F461546002B00F09680A5
S214003450072A00F295800E9B002B00F09180B9F1B0
S214003460000F00F08D80129BB3F5006F00F388808C
S214003470012803D1109B002B00F08280434B03EB06
S21400348005131B7B002B7DD0414C10220021684683
S2140034903FF044FC04EB451410229FBB39462046FF
S2140034A03FF03CFC43F210036380BBF1000F03D1F6
S2140034B0E37843F00303E370354A0E9BCDF800A093
S2140034C002EB451CCCE90193129B581E9DF84C302C
S2140034D0690103F00303C0F30A009B0643EA001EDB
S2140034E053582C4818404EEA0003012E535017D06C
S2140034F0B8F1000F2ED19CF8023068F304138CF854
S214003500023027E0002120463FF008FC4FF44473C9
S2140035106380BBF1000FCFD1E37843F03003CAE7F6
S2140035201323CCF80C309CE80F000CF1100E8EE83C
S2140035300F00DCF81C20109BCCF814306FF0030151
S21400354061F39F02012FCCF81C2003D1CCF8189011
S214003550CCF804300D4A290102EB051342F801802D
S214003560159A5A6000272846224669469F605E7371
S21400357001F080FC384605B0BDE8F08F0648FAE753
S2140035800648F8E70648F6E7884D00207C2000202D
S2140035907C1F00200F80FFF3028000F0018000F007
S2140035A0078000F038B5124B1B780546DBB1E0B15A
S2140035B035F097F90F4A00231146147B54B92B6057
S2140035C01A0101EB031301258C501D7335F08FF99A
S2140035D0204638BD0133082B02F11002EDD135F03C
S2140035E086F90548F5E70548F3E70548F1E700BF23
S2140035F0884D00207C200020048000F0028000F02F
S214003600018000F038B535F06CF90C4A0546002309
S214003610147B6CB90133082B02F11002F8D101F0CB
S214003620DFFB074B28461C7035F061F9204603E0A7
S214003630284635F05CF9034838BD00BF7C200020E2
S214003640884D0020058000F00D4B1B7810B5044611
S21400365093B1072812D835F044F90A4B03EB04134C
S2140036601A7B2AB100241C7335F041F9204610BDA0
S21400367035F03DF90448FAE70448F8E70448F6E769
S214003680884D00207C200020068000F0028000F09C
S214003690018000F013B5164B1868019000238DF8D2
S2140036A0043035F01EF9134B1C7824B135F01FF9A1
S2140036B0114802B010BD01221A7035F018F90F4BF0
S2140036C01C731C7783F82C4083F83C4083F84C40EE
S2140036D083F85C4083F86C4083F87C4004230DEB51
S2140036E003008DF8073001F09BFB2046E1E700BFA2
S2140036F0D4B80400884D0020038000F07C20002011
S2140037000A4A127808B55AB107280BD8084A02EBBD
S21400371000131B7B43B1002101F078FB002008BD9D
S2140037200448FCE70448FAE70448F8E7884D002018
S2140037307C200020028000F0018000F0078000F06E
S2140037400A4A127808B55AB107280BD8084A02EB7D
S21400375000131B7B43B1012101F058FB002008BD7C
S2140037600448FCE70448FAE70448F8E7884D0020D8
S2140037707C200020028000F0018000F0078000F02E
S2140037800A4A127808B552B107280AD8084A02EB46
S21400379000131B7B3BB101F0BDFB002008BD0548B4
S2140037A0FCE70548FAE70548F8E700BF884D002023
S2140037B07C200020028000F0018000F0078000F0EE
S2140037C00D4B1B7893B1072812D889B10B4B03EB2E
S2140037D000131B7B73B10A4B1A6E012383401342FE
S2140037E014BF012300230B70002070470548704764
S2140037F00548704705487047884D00207C2000200B
S21400380000200E40028000F0018000F0078000F0EB
S2140038100B4A127810B50C4662B107280CD859B17D
S214003820084A02EB00131B7B43B101F089FB2070B2
S214003830002010BD0448FCE70448FAE70448F8E70F
S214003840884D00207C200020028000F0018000F0DF
S214003850078000F02DE9F041DFF86480D8F860704A
S214003860D8F86C301F4000D5FEE7134C0126002523
S214003870374218D02368C8F86860A3B1A1686268A8
S2140038800131A16028469847637B012B0BD150B9C4
S2140038900A4B03EB45131A7B60F341021A731A7F37
S2140038A060F341021A770135082D4FEA460604F107
S2140038B01004DDD1BDE8F0817C2000207C1F0020B4
S2140038C000200E4070B50C4E0446012504B970BDAC
S2140038D094FAA4F0B0FA80F006EB001205FA00F3B2
S2140038E024EA03045368002BF0D0117B11B19168D1
S2140038F09847EBE79847E9E7FC20002008B5122038
S21400390000F086FD28B1084B4FF48022C3F88021D2
S2140039101A600A2000F07CFD28B1034B4FF4806249
S214003920C3F880211A6008BD00E100E038B50546FE
S2140039300C4634F0D6FF054B03EB051300225C6003
S2140039401A73BDE8384034F0D2BF00BFFC20002018
S214003950F8B505460E46174634F0C3FF134BD3F8AA
S214003960282422FA05F3DB0705F0FC012C4612D5C5
S21400397000230133DBB2042B04D1FF2434F0B7FF5D
S2140039802046F8BDEC1804F003040C4422FA04FCAC
S2140039901CF0010FEDD1FF2CF0D0054B03EB041308
S2140039A00122C3E901671A73E8E700BF00A00040E0
S2140039B0FC200020054BD3F82804D3F81C24104024
S2140039C000F05530C3F82404FFF77CBF00A0004089
S2140039D0054BD3F82804D3F81C24104000F0AA3076
S2140039E0C3F82404FFF76EBF00A00040024B19681E
S2140039F0024B186816F0E2B8F810002018110020E4
S214003A0070B59400224605460E4635F09AF8431CDB
S214003A100AD058B92246314628463FF055F90028C4
S214003A20034808BF002070BD0248FCE70248FAE7DA
S214003A3010E000F021E000F024E000F010B50446AD
S214003A4001F02EFB431C10D088B901F00FFC20F0CB
S214003A50030023462044984201D1002010BD53F8AD
S214003A60042B0132F7D00348F8E70348F6E703488B
S214003A70F4E700BF0EE000F021E000F024E000F0E4
S214003A8008B534F023FF014B186008BDEC29002070
S214003A90014B186834F01EBFEC2900200C4B9842EE
S214003AA005D90C4B984210D80122012301E00022D0
S214003AB0134609490B640949D1F8003123F0807395
S214003AC043EA0263C1F8003170470222EDE700BF07
S214003AD00048E8010090D0030000C84300400E40B4
S214003AE00F4B5B680F4B30B500221C46C9B21D79E0
S214003AF08D4202D11D6885420DD20132052A03F19E
S214003B000803F4D10321064A536823F0407343EABE
S214003B100163536030BD04EBC2046179F3E700BF74
S214003B2000000E4018B9040038B5074C41F6713352
S214003B30256C2364FFF7E8FAADB20021FFF7D0FF4B
S214003B400DB10023236438BD00000E40044BDB6B30
S214003B505B0604D4034AD2F8C830002BFBD170476A
S214003B6000300E400000C64308B5FFF7EFFF024BDB
S214003B705868C0F3014008BD00300E40044BD3F82F
S214003B804421D20703D4D3F840211042FBD170471A
S214003B9000400E4038B5064C256C41F67133236460
S214003BA0ADB2FFF79DFF0DB10023236438BD00BF03
S214003BB000000E4038B5C0F30323013B092B11D893
S214003BC0DFE803F0052710102B221D101511154DE8
S214003BD0C0F3043405F1424505F5801504EBC50035
S214003BE08000016038BD104DC0F30434F2E70F4D7D
S214003BF0C0F304344FF48030FFF7C0FFEAE7C0F3A9
S214003C0004340B4D1020F7E7C0F30434094D0120AF
S214003C10F2E7094DC0F30434DCE7084DC0F3043482
S214003C20D8E700BF00400E4050410E40F0400E4026
S214003C30E8400E40E0400E40C0400E40B0400E400F
S214003C40C0F30313013B092B2AD8DFE803F0050B6A
S214003C500F1929291F23374B274BD3F80001C0F330
S214003C6004207047244BD3F81401F8E7224BD3F80E
S214003C700031C3F3006301330120984001387047D8
S214003C801D4BD3F80C01C0F3082070471A4BD3F82D
S214003C900801F8E7194B984204D0194B984207D010
S214003CA000207047144BD3F8203103F00F03E3E7EE
S214003CB0114BD3F82031C3F30113DDE7114B9842C3
S214003CC00CD003F5B01303F580539842E8D10A4BA5
S214003CD0D3F82831C3F301230433CDE7064BD3F8DA
S214003CE02831E8E7084B9842DAD1034BD3F8300185
S214003CF000F00300704700BF00400E40800616002C
S214003D0080162E0090171A00A009140000F00F006D
S214003D100138072850D8DFE800F00415244F34385F
S214003D204F402B4BD3F8943003F00703023B052B90
S214003D3006D8DFE803F049243F0305430B2070470D
S214003D4005207047224BD3F8800000F007000228B9
S214003D503DD0042836D0012808BF032018BF012014
S214003D6070471B4BD3F8843003F00703013B032B4B
S214003D7003D8DFE803F0041F25270120704703203F
S214003D807047134BD3F88800DFE7114B1B6F13F017
S214003D90010F0CBF0720092070470D4BD3F85C318C
S214003DA003F03003202B0FD0302B0FD0102B08BF82
S214003DB00720D3E702207047002070470C2070478A
S214003DC0062070470A207047042070470820704776
S214003DD000400E4008B50146FFF798FF1A4B99427F
S214003DE011D01A4B994212D0194B994204D1194B53
S214003DF0D3F8800000F007000138032821D8DFE858
S214003E0000F00A0E1612134BD3F88400F2E7114B9B
S214003E10D3F88800EEE7BDE8084034F0CBBBBDE839
S214003E200840FFF7D5B9BDE8084034F0C6BBFFF739
S214003E306FF9084BD3F80031C3F300630133D84061
S214003E4008BD0020FCE700BF03002000050024009A
S214003E5002001E0000400E4000F47813B3F5B01FB9
S214003E6010B5044674D025D8B3F5402F5ED010D8D0
S214003E70B3F5802F49D005D83BB1B3F5003F4FD0FE
S214003E80002010BDB3F5202FFAD1BDE81040FFF793
S214003E903FB9B3F5801F00F08480B3F5A01F4DD066
S214003EA0B3F5602FECD14A48FFF730FF072878D0EB
S214003EB00928E9E7B3F5381F53D013D8B3F5001F28
S214003EC058D00AD8B3F5D01F56D0B3F5F01FD7D1C7
S214003ED04048BDE81040FFF77DBFB3F5101FCFD1B7
S214003EE03D48F6E7B3F5481F4DD0B3F5781F65D0CB
S214003EF0B3F5401FC4D13948FFF76CFF384BD3F8F1
S214003F002831C3F30123043320E0FFF701F9344BD3
S214003F10D3F80C31C3F308230133B0FBF3F0B0E75A
S214003F20FFF7F6F82E4BD3F80831F3E7FFF7F0F873
S214003F302B4BD3F81431C3F30423EDE72648FFF7E1
S214003F4049FF274BD3F8303103F00303D84098E7F6
S214003F502048FFF73FFF224BD3F8203103F00F0332
S214003F60F4E71C48FFF736FF1D4BD3F82031C3F3A8
S214003F700113EBE71948ACE71848FFF72BFF184B7F
S214003F80D3F82831F3E71748FFF7C0FE072808D014
S214003F90082809D004287FF473AFBDE81040FFF767
S214003FA0F3B8114B18686CE7FFF7B2F80C4BD3F870
S214003FB00031C3F3042303FB000062E7FFF7A8F811
S214003FC00146204634F07DFCB1FBF0F059E700BF17
S214003FD006000E0002001E0005002400030020005C
S214003FE000400E40B80032001C11002010B5FFF74C
S214003FF09BFD094B07225A67FFF78AF8FFF74EFD2D
S214004000FFF7B0F80446FFF7AFFD01462046BDE8CF
S2140040101040FFF7BFBD00BF00400E40014B1880A8
S214004020704700BF2A160020014B1880704700BF5B
S2140040302816002010B5042813D8DFE800F0470340
S2140040402F132100294AC1F30801D2F86838002B43
S214004050FBD1274A136A23F4FF7323F001030B43B3
S214004060136210BD214A01F07F01D2F86038002BA0
S214004070FBD11F4A136923F07F030B431361F0E75C
S2140040801A4A01F07F01D2F86438002BFBD1184A97
S214004090936923F07F030B439361E2E7144AD2F857
S2140040A09030536A23F0300343F010035362146BCE
S2140040B0104BC1F3C31003300F2803EA040328BFD4
S2140040C00F200B4343EA00731363CAE74F29074ADE
S2140040D028BF4F21D2F87438002BFBD1044A936BCB
S2140040E023F07F030B439363BBE700BF0020C84366
S2140040F000400E4000F8FF0F104A536A13F0300FCE
S21400410018D0202913D0302914D000290C4B08BF12
S2140041104FF44003D2F8901033EA0101FAD15B0263
S21400412046BFD2F8A000C0F38020012070474FF4AD
S2140041300003EFE74FF44003ECE700BF00400E40FB
S214004140FF33E10702280AD129B1064B4FF48060FD
S214004150C3F8A800596612B10220FFF7CDBF0120B0
S214004160704700BF00400E400428F8B548D8304BD2
S21400417013F800C02F4B1D5C2F4B33F810702F4BDD
S21400418033F810402E4B002940D0022839D15C6A03
S21400419014F0300F35D12B4CE46B5C6AE40705D580
S2140041A05E6A26F0300646F010065E62264C244B09
S2140041B025441F66AD002B68002BFCD002B3644478
S2140041C0A4002368002BFCD0022819D1C1B11C4DD5
S2140041D0696A11F0010116D001222021FFF7B2FF13
S2140041E0D5F89C60012200210220FFF7BDFFC6F330
S2140041F00A010220FFF71EFF2F662368002BFCD063
S214004200F8BD0021D2E7FFF777FFE9E701211C663A
S214004210A940D3F890000842FBD1002AF0D0012331
S214004220074903FA0CF3D1F890201A42FBD1E7E7CE
S21400423013B904000EB9040004B90400FAB8040067
S21400424000400E4000300E408004F21010B50246CA
S214004250B8B901221146FFF787FFFFF765FC0F4B41
S21400426004225A67FEF754FFFFF718FCFEF77AFFA2
S2140042700446FFF779FC01462046BDE81040FFF7EC
S21400428089BC012807D10146FFF76EFFFFF74CFCFB
S214004290024B0322E5E7FFF747FCE3E700400E404A
S2140042A038B5FEF771FF0021044600F0B7FA124851
S2140042B0FFF7F4FB012211460220FFF755FFFFF738
S2140042C033FC0CB1FFF742FC0C4B02225A67FEF798
S2140042D01FFFFFF7E3FBFEF745FF0546FFF744FC2D
S2140042E001462846FFF756FC2CB920460121BDE8BA
S2140042F0384000F093BA38BD0148E80100400E404F
S214004300012210B511460320FFF72EFFFFF70CFC25
S214004310084B05225A67FEF7FBFEFFF7BFFBFEF7CA
S21400432021FF0446FFF720FC01462046BDE810406A
S214004330FFF730BC00400E4010B504461120FFF7D2
S214004340E5FC002101220220FFF70EFF184A217C1F
S214004350536A23F00103022908BF43F001035362A6
S214004360144B2178C3F8A014637AA18843EAC123CA
S214004370D362136BA07A217A03F07F630343E0884D
S21400438043EAC02343EAC11303310F2928BF0F2194
S21400439043EA01731363A37B617B1B0143EA01338A
S2140043A0E17B0B43217B43EA0143536310BD00BF0F
S2140043B000400E400000C84338B50E4D0E4C014676
S2140043C01120FFF7A3FCAA6B4B7814400A7814431D
S2140043D044EAC3248B7844EA0364CB7844EA032493
S2140043E0AB6BA34205D0002101220846FFF7BCFEB6
S2140043F0AC6338BD00400E4080E4FFF8034B5868BD
S214004400C0F30800003818BF0120704700ED00E038
S2140044104209054B53F8223000F01F0023FA00F043
S214004420C04300F00100704700E100E0034BD86B8A
S21400443080F04000C0F38010704700BF00300E4090
S21400444042EA0322B2F5007F10B5194C29D00AD8EB
S214004450B2F5807F22D040F201139A4215D062B99D
S214004460D4F81C320BE0B2F5407F1DD040F2013389
S2140044709A4210D0D4F8283201E0D4F82432C3F39C
S2140044800722DBB203600A6010BDD4F824321A0E8D
S214004490C3F30743F6E7D4F82832F8E7D4F81C321B
S2140044A0F5E7D4F82032EAE7D4F82032EFE700BF89
S2140044B00081E00F08B5FFF7B9FF20B1024AD2F835
S2140044C0C830002BFBD108BD0000C64308B5FFF777
S2140044D0ADFF80B1FFF7EEFF074B19685A68C1F3CE
S2140044E00121C2F3014291421A688CBF42F01002C9
S2140044F022F010021A6008BD00300E40064B1B6802
S214004500DB0608D5054B1B69C3F30443082B02BF23
S214004510034B044A1A60704700300E4000400E40BD
S214004520E4100020C0EA210170B5FFF77FFF38B124
S2140045302D4B1A781023C2F1020293402B4A1361C6
S2140045402B492C4DD1F8804145F60E03C1F8803139
S2140045502B6823F0AA03DB05DB0D0B66FFF7AAFF2B
S214004560224B1B68D80604F0010415D5D1F840315B
S214004570DA01FBD4204B1B680B61204B1B78052B04
S2140045800AD11F4B1E68FFF795FF184B5968304637
S214004590C1F30141FFF7FEFA184B1B78023B0A2BCA
S2140045A00AD8DFE803F00615170909090909091AE8
S2140045B01D000020FFF74AFE2B68DB075EBF0C4B92
S2140045C002221A661CB10A4B0022C3F8802170BD75
S2140045D00120EFE7FFF764FEEEE7FFF791FEEBE75B
S2140045E0FFF704FDE8E700BF894D002000300E40CD
S2140045F000400E40F4290020F02900208A4D0020BB
S214004600E410002010B50B4C0B4BD4F890201A6029
S2140046101120FFF77BFB094B1870FFF74BFF084B89
S214004620084A5B68C3F301431370074B22691A609C
S21400463010BD00BF00400E40F42900208A4D002027
S21400464000300E40894D0020F029002006494278AF
S2140046500B6823F4407343EA0223022A0B6004BF6C
S214004660024B5B6A704700BF00300E4000400E40B1
S21400467010B5044608B1FFF7C5FFFFF727FF144A39
S214004680136943F00403136134F045FA34F044FA36
S214004690104B114AC3F8242403F559231B68DB0684
S2140046A00ED534F013F93EF077FD34F013F934F0FC
S2140046B034FA03F031FF2CB1BDE81040FFF734BFE9
S2140046C030BFF4E7FFF71AFFBDE81040FEF74ABD1B
S2140046D000ED00E000A000400000FFFF10B504461B
S2140046E008B1FFF78FFFFFF7F1FE1A4BD3F88021D2
S2140046F045F60E01D207C3F8801148BF00224FF4DA
S2140047002071196648BFC3F88021134A136943F025
S21400471004031361114B124AC3F8242434F0FBF946
S214004720104B1B68DB060CD534F0D0F83EF034FD99
S21400473034F0D0F803F0F0FE2CB1BDE81040FFF7DF
S214004740F3BE30BFF6E7FFF7D9FEBDE81040FEF730
S21400475009BD00BF00400E4000ED00E000A0004094
S2140047600000FFFF00300E400E4A0379916921F0E9
S2140047703F010B43017843EA8103417843EA410352
S214004780817843EAC103C178012908BF43F00103D9
S21400479093611368417923F4403343EA014313607D
S2140047A0704700BF00300E402DE9F04104460D462C
S2140047B0FFF73CFE60B3DFF86080FFF77BFED8F8BB
S2140047C00430C3F301439C4222D0124BD3F800318D
S2140047D0FEF79EFC022C07464FF0100609D1214634
S2140047E0FFF7D8F9C8F8106095B1BDE8F041FFF7BB
S2140047F061BEC4F102039E40C8F810600DB1FFF719
S21400480059FE2CB921463846BDE8F041FFF7C2B93B
S214004810BDE8F08100400E4000300E4038B5054639
S2140048200C46FFF703FEB8B145B90C4BD3F8005160
S214004830FEF76EFCC5F3042505FB0005084B1B7848
S21400484021463BB1074B9D4204D80220BDE83840C4
S214004850FFF7AABF0020F9E738BD00BF00400E40B2
S2140048608B4D0020002D3101034B02781A70012178
S2140048700020FFF7D3BF00BF8B4D0020234B4AF626
S214004880E85210B5596B5A639A6FD207FCD41B6C6A
S21400489013F0030306D01E4A01249842C2F8B44A15
S2140048A01AD110BDA0B1431E012B17D8174A4FF4DA
S2140048B00023D362936FDB07FCD4136C23F003034F
S2140048C043F001031364114A536A1C03FCD505E048
S2140048D00F4BC3F8B40AE4E7032BE4D00B4B9A6FF4
S2140048E0D207FCD41A6C22F0030202431A649A6FB1
S2140048F012F00102FBD10038054C18BF0120012937
S214004900C4F8B40A08BF5A63CBE700BF00300E40B5
S2140049100000C6432DE9F04F00238BB0CDE90433E9
S214004920CDE90633CDE90833A0F5E163B3F5966F1C
S21400493005460191934603D900200BB0BDE8F08FE1
S214004940624BDFF88C81D3F81842B0F5E16F15BFE3
S2140049504FEA146AC4F3072AC4F30744E4B2069481
S214004960CDF824A0D8F84C60C6F301768CBF01229F
S2140049700022334607A904A815BF4FF4E1674FF499
S21400498096674FF496694FF416790392FFF758FD31
S214004990D8F8EC30039AC3F3012308A905A80293BC
S2140049A0FFF74EFDA5EB070CAAEB04020CFB02F288
S2140049B0B2FBF9F214445445079F0498089A0599E7
S2140049C0BAD8A2EB010E0CFB0EFEBEFBF9FE11EBF5
S2140049D00E012CBF4FF0010E4FF0000E8A42ABD3F3
S2140049E0BEF1000FA8D13A1A0CFB02F2B2FBF9F2A4
S2140049F080182CBF0122002287429DD3002A9BD11B
S214004A00029BBBF1000F0FD0D8F85C20B5F5E1672C
S214004A1022F4FE4218BF012722F0020242EA4702B1
S214004A2042EA0422C8F85C20019A0AB9012084E709
S214004A30264A022ED2F830223ED0032E3FD0012E38
S214004A4014BFD2B2C2F30722120312F4702F7FF4FF
S214004A5073AF1F4EF46E24F470442243F2661B4A72
S214004A60022BD2F830222CD0032B2DD0012B14BFD2
S214004A70D2B2C2F30722120312F4702F7FF45CAF97
S214004A80134CD4F8EC3023F470431343C4F8EC30E2
S214004A90636E884238BF084623F4FF73E72823F086
S214004AA0010328BFE720B5F5E16F18BF43F0010307
S214004AB043EA40036366B9E7C2F30742C4E7120E4F
S214004AC0C2E7C2F30742D6E7120ED4E70081E00F32
S214004AD000300E402F4B1A6FD96C11F0010F02F008
S214004AE0060242D0002A40D013284FD91438132883
S214004AF08CBF102308232749013BCA6C180322F4F5
S214004B007F4240EA03231343CB64234BCA6C1B88C3
S214004B10C2F303222833013202EB820003EB530375
S214004B20B3FBF0F3C86C013B072B28BF072320F02C
S214004B30EE6040EA036343F48013CB64174BB3F98B
S214004B400030002B10DB2833500800EB420203EB4A
S214004B505303B3FBF2F30A6D072B28BF072322F09B
S214004B60700242EA03130B657047D96C01F001012D
S214004B70114304D1092809D90A380928B8E7DB6C9B
S214004B8013F00103B7D01AB92728B1E70423B2E718
S214004B900023B0E700300E400C44002008440020FC
S214004BA0064A074BD3F88039136F23F007030343F5
S214004BB01367044B1888FFF78DBF00BF00300E4008
S214004BC00000C6430A440020394B02222DE9F0417A
S214004BD09A639B6B03F00F039342044603D00025B1
S214004BE02846BDE8F081C288B0F808808588B0F90C
S214004BF00C6047784A2A4ED9B2F5FA7F4DD340F674
S214004C00C3139A428CBF4FF040524FF000522849CF
S214004C10CB6C23F0405323F00103002EA8BF43F0D3
S214004C2001031343CB64D1F8EC3043F44073C1F86E
S214004C30EC30204B1D80CB6E43F08073CB661E4B52
S214004C40D3F8800900B10420FFF7AAFF1B4BA3F896
S214004C5000801B4B28461E80FFF73CFFA37BFBB162
S214004C60012B21D0012260881146FFF753FE05462E
S214004C700028B4D00E4AD36B43F48063D36338461F
S214004C80FFF7FCFDA37AA3F12002534253410A4AE0
S214004C90C2F89437A4E70022B9E74FF08052B6E78F
S214004CA0034B084A9A65DDE7014B074AFAE700BF5F
S214004CB000300E400A4400200000C6430C4400208A
S214004CC00844002077402057372110B7044AD2F80E
S214004CD0443423F003030343C2F84434704700BF50
S214004CE000A00040072AF8B501F0030614461F4648
S214004CF04FF00F011FD8950000FA05F2A94015489D
S214004D0033F010FF0321144806FA05F2A94033F0E9
S214004D1009FF12499DF81830114A214489000F6096
S214004D20C1F880300123A340C2F824349DF81C301B
S214004D30C1F80033F8BDA2F10805AD0000FA05F28F
S214004D40A940084833F0EEFE0321074806FA05F2AC
S214004D50A940DCE700A4004008A40040802085109D
S214004D6000A0004004A400400CA4004000EB40005B
S214004D70F8B50D461F46040116463AB115480123FC
S214004D808B402044C7B100F1C0600360072D4FF090
S214004D900F0114D8AB00104806FA03F299402044DD
S214004DA033F0C0FE3EB90B4A0123AB40224477B134
S214004DB002F1C0621360F8BD00F18060E5E7A5F17E
S214004DC008039B00054806FA03F29940E7E702F15C
S214004DD08062EFE70CA0004004A0004008A000405E
S214004DE0084B4FF40072C3F88020BFF34F8FBFF319
S214004DF06F8F054B0021D9664FF4AA401962FEF763
S214004E00D9BE00BF00E100E000200E40034B034483
S214004E109B0081F001011960704700BFA001F110EE
S214004E2010B5044601214FF4AA40FEF7C3FEB4F8BD
S214004E30013022785BBA9BB243EA02630B4A1360E6
S214004E4000231362D36253634FF00043D3664FF0E0
S214004E50FF339366064A4FF40071C2F88011E37878
S214004E605B01DBB282F80933116010BD00200E40F2
S214004E7000E100E0F8B5254D8F7AD1F800C0C3B246
S214004E8001269E404FF0300ECB7A0EFB00500C46AB
S214004E901B05097BAE6643EA0743C0F880C094F85A
S214004EA00DC0C0F888C043EA415322F00302C0F8A0
S214004EB08430C0F8982033F014FDEB6E3343EB6675
S214004EC0237A13B16B6B33436B63637A13B1EB6A6C
S214004ED03343EB6223792A6823B1DB431B0263F476
S214004EE07F431A4063790BB142EA0322A3790BB1E0
S214004EF022EA0302E3791343044A1360044B9E62DA
S214004F00D663BDE8F84033F0F2BC00BF00200E4088
S214004F1000200E4410B5C0B20124844033F0E1FCFA
S214004F20054AD36E23EA0403D366044B1C62BDE82D
S214004F30104033F0DCBC00BF00200E4000200E44C2
S214004F4010B5C0B20124844033F0CBFC074B1A6A7C
S214004F50224208D19B6A9C430CBF0124002433F0F4
S214004F60C6FC204610BD0024F9E700BF00200E4016
S214004F70054B5A685B68054B41F671321A649A68AD
S214004F8022F001029A60704700300E4000000E408A
S214004F90034B9A6822F001029A6000221A64704756
S214004FA000000E40094A0A4BD969C90705D512B94F
S214004FB06FF002007047013AF6E7002AF8D00122A7
S214004FC01861DA60D86940F38000704780969800D0
S214004FD000000E4070B509B9002070BD0E4A0023CF
S214004FE0082550F8234094610C4CD5600133D669EF
S214004FF0F60705D514B96FF00200EEE7013CF6E7B8
S214005000002CF8D0D469A40702D49942E9D1E3E78A
S2140050106FF00100E1E700BF00000E4080969800A8
S2140050202DE9F8431C4B0D4641F671311E6C196490
S2140050301A49804648684968996841F00101B6B245
S214005040996097084FF00009B94501D3002005E0A4
S21400505008EB89042046FFF7A5FF48B10E4B9A6877
S21400506022F001029A600EB100221A64BDE8F883AD
S214005070C4F30A01C1F500618908A7EB0903994248
S21400508028BF19462846FFF7A5FF0028E6D1894421
S21400509005EB8105D8E700BF00000E4000300E404B
S2140050A0234B41F671311A6C10B5196421494C68CE
S2140050B04968996841F00101996001211861D96039
S2140050C0D9694C0792B209D5996821F00101996017
S2140050D00AB100221A644FF0FF3010BD0221D960D9
S2140050E01549D869C00700D569B9D86910F002001B
S2140050F00BD0996821F0010199600AB100221A6468
S2140051006FF00100E9E70139EBE741B9986820F054
S2140051100100986002B119646FF00200DDE799683B
S21400512021F0010199600AB90020D6E71864FBE770
S21400513000000E4000300E4080969800014B012281
S2140051409A60704700500E40134B1449F0B5002289
S2140051505D68134E1046D6F8E8714C680B687F07FA
S2140051600BD4B3F5006F06D012D8B3F5007F02D08B
S214005170B3F5806F01D144F480742B4202D02C42E8
S21400518008BF18430132092A01F10801E3D1F0BD36
S214005190B3F5803FEEE700BF00500E4040B9040074
S2140051A00040E00F8B784A789B0143EA82030A7836
S2140051B01343CA7843EA02130A7943EAC2234A79B8
S2140051C043EA02338A79043043EA42430001014A43
S2140051D01350704700200440014B1860704700BF12
S2140051E000008442437882789B0043EA02130278E8
S2140051F01343C27843EA4213027943EA0223427910
S21400520043EA0233827943EAC233C27943EA02436D
S214005210027A43EA4243014A136070470020044082
S2140052200D4AD2F8E430D2F8E0109B0003F03C03BD
S214005230C1F381110B438370D2F8E03003F03F03D3
S2140052404370D2F8E830D2F8EC2003F0F003C2F353
S214005250031213430370704700FF0FE0024BD3F8AE
S214005260FC00000E704700BF0081E00F044BD3F82F
S214005270E4301B0E0A3303F01F03012098407047EA
S2140052800081E00F70B5054616461C4619B914484D
S214005290FEF7E2FD0146402C1BD003D8DCB1202CE3
S2140052A01BD070BD602CFCD1042303FB06F2530810
S2140052B003EB4113B3FBF2F30A4A203B02EAC303B3
S2140052C02A6822F060022A602A6814432C606B6108
S2140052D0E7E70623E9E71023E7E70823E5E700BF4B
S2140052E040410500F8FF7F0038B50546144619B959
S2140052F00548FEF7B1FD014601396400B1FBF4F143
S2140053000902696138BD00BF4041050040F6AA6346
S214005310C36041F20502002303604260104A8360C6
S2140053204361C36482640F4A03669042436783679F
S214005330C3670DD002F5806290420BD002F5806202
S214005340904205D002F58062904203D08365704794
S2140053500365FBE7036583650023C365704700BFED
S214005360F9FF0100000001404111054A00F01F004E
S2140053700123834052F82100034342F8213070474E
S214005380F8290020044B1B681BB1044B0360002067
S21400539070470120704700BF082A00200E440020F6
S2140053A070B50D4C246884B10C4C26888518B5421F
S2140053B00DDC6688CD18B54209DC52B14BB1A08031
S2140053C0E18022816381002070BD0120FCE704207B
S2140053D0FAE70520F8E700BF082A00200E44002060
S2140053E02DE9F74F9946494B1B68002B00F08A8041
S2140053F0DFF820A10D9EBAF80650BAF80A30B9F1C7
S21400540000072B4418BF01279BB27F420D44009330
S214005410FFB2ADB24FF0010B1EB9304603B0BDE887
S214005420F08F009AABB29A426ED9BAF80840BAF832
S2140054300430241AB4421844354B28BF3446361B71
S21400544080B203EB0512B9F1000F0AD0072C26D85C
S2140054500444A04216D32846FFF786FF01350020F5
S214005460DAE7072C1BD80444A042F4D2C10800F0A7
S214005470070C535C0BFA0CFC23EA0C030130535464
S21400548080B2F1E7C10800F0070312F801C00BFA7A
S21400549003F343EA0C030130535480B2D9E74FEAD2
S2140054A0D00C02EBD00810F007000BD1E20839460A
S2140054B0404601923DF032FC14F00704019ACAD02F
S2140054C0904412E00BFA00F312F80CE0DBB2591E1F
S2140054D05B420EEA01013B4008381943044402F8D7
S2140054E00C10E20808F10108E1D10BFA04F498F870
S2140054F00030E4B26242013C13403C40234388F84B
S2140055000030A8E7012688E7042686E7082A002058
S2140055108C4D00200E44002037B5114D2B68EBB99A
S214005520FDF728FD044610B1012003B030BDFDF79D
S21400553015FD28600028F7D002884188094B1A809C
S2140055401A814A43598059819C80DC802146CDE9E6
S2140055500042234622462046FFF742FF0020E4E7AB
S214005560082A00200E4400202DE9F8431B4FDFF8E0
S21400557074803C68DFF86890002301251A46D8F846
S21400558000004188D6188E4207D3FBB91348102274
S21400559000213DF0C3FB002012E0E10708D50133EF
S2140055A0D118C9060ABF57F8254064080135E6E752
S2140055B053B109EB0211FDF775FC034610B1072045
S2140055C0BDE8F883721CEBE70132E9E7044901EB1A
S2140055D00211FDF767FC0028D8D0F0E7F829002074
S2140055E08C4D0020082A002030B5054687B000B351
S2140055F000226FF07F43C0E9012301A8FFF7C2FE37
S214005600044698B9019B2B601A885B88CDE9020096
S214005610013A013B02A928460492059333F061FB48
S214005620044618B90449284633F0F3FC204607B070
S21400563030BD0524FAE700BFB8BC040038B5044600
S21400564039F0E2FA0FCC044D0FC594E80F0085E858
S2140056500F00002038BD00BF0C2A002047F6FF735D
S2140056609A42F0B572D0062972D83A4B5B5C022B90
S2140056706ED8394D05EBC304DF00A17815F833303A
S214005680012938BF0121012B13D1E0780025401AEB
S214005690A84202D80844C0B2F0BD431BA0EB530397
S2140056A0666836F913609642CCBF03F1FF301D469C
S2140056B0EEE760680028EFD0B0F90040944204DBC3
S2140056C0B0F902409442B8BF14468388FF2B04BF4B
S2140056D0B0F90620B0F908C03D440FBF01260026E9
S2140056E0C8224FF0280C131B93FBFCF333446E7850
S2140056F01BB29E4201DD002B01DA731E1BB2013382
S2140057009BB24FF47A7C071D5D1E2DB24FEAC50E84
S21400571000EBC5059E42EA88AD6814FB025222EAF9
S214005720E27202F15C02B2FBFCF205DD37F83350A0
S214005730954203F10103E7D200EB0E0398889042EE
S21400574028BF1046884238BF0846A4E7FF20A3E7D4
S2140057500020A1E7E8BF04000C2A00200629F0B5C7
S21400576061D8324B595C02295DD8314B13F83100B1
S214005770012816D103EBC1039C78D8785B68012C0E
S214005780214638BF0121904294BFC1EB0001C1EB16
S2140057900201CAB2001B8242C8BF002233F91200BF
S2140057A0F0BD002A3DD003EBC103596800293AD06A
S2140057B09878904202D3B1F90200F1E7DC78B1F9AB
S2140057C000009442ECD95C788B88A3F1FF06013C7C
S2140057D0734201F10405E4B2734101F10C07DEB235
S2140057E0B44216D805EBC3034FF47A75B3F90240FA
S2140057F05B686A43D21A04EBD47302EB630292FB33
S214005800F4F29042CCDBB1F902009042C8DC10B250
S214005810C6E737F833C0944503F10106E2D33346B2
S214005820DDE70448BCE70448BAE700BFE8BF040069
S2140058300C2A00200CFEFFFF0080FFFF08B504487E
S214005840FFF7FCFEBDE80840012039F002BA00BFB1
S214005850F0BF04007FB5094B09490222CDE90123B8
S2140058604FF08373CDE903134FF0FF300D2301A9EA
S214005870059339F02AFA07B05DF804FB006A1800B1
S21400588006010C00024B03480122C3F800267047AD
S2140058900010C84300000F40094B98420ED003F595
S2140058A08063984209D10122064B03EBC2035A6873
S2140058B0054B13449B0000221A6070470022F3E752
S2140058C000000F4060C104008005F21010B50446C9
